:100000000C941C010C94C0290C94ED290C9444010F
:100010000C9444010C9444010C947B260C944401F0
:100020000C9444010C9444010C9444010C9444013C
:100030000C9444010C9444010C9444010C9444012C
:100040000C941A2A0C9444010C944B280C948E287E
:100050000C9444010C9444010C9444010C9444010C
:100060000C9444010C94440182135B1387135F13B7
:100070005F135F135F138C1394135F135F139B1352
:100080009F137D13BA1B621C1D1DFA1D8A1DA51E20
:10009000131F721F961F481C67238D1C6D6D002057
:1000A000002D3E5400410064626D002050006D6DD3
:1000B0000020004100536574757020646F6E650008
:1000C0002000616464723A2000416E63686F7220A0
:1000D00000546167200044574D204F6B00436F75FB
:1000E0006C64206E6F7420696E69742044572052CE
:1000F000616E67696E67004C50532076312E312057
:10010000536574757000000099599959EB518F42ED
:100110001E45142EFF7FEB51F5283333E13A703D35
:10012000E13AC235852BC2353333C235C235AE47CD
:10013000E13A5138A33051386B003B31BE003B33BC
:100140005E013B3596023B372D001A3152001A33BF
:100150009A001A351D011A37405C0000A05C0400AB
:10016000C06C0800805C0400E03F1E00E07D1E00C3
:100170002C20646174613D3078003A2062797465A6
:100180002D616464726573733D3078003A20776F37
:1001900072642D616464726573733D3078004E65DE
:1001A0007874207265706F72743A200053617665BE
:1001B00064207265706F7274733A20002D2D2D2D9E
:1001C0002D2D2D2D2D2D2D2D2D2D2D2D2D2D2D008C
:1001D0004170706C69636174696F6E204D6F6E69F8
:1001E000746F7200000000070002010000030406A3
:1001F0000000000000000000010204081020408000
:100200000102040810200102040810200404040460
:1002100004040404020202020202030303030303B0
:1002200000000000250028002B0000000000240032
:1002300027002A0050044A2911241FBECFEFD8E01E
:10024000DEBFCDBF11E0A0E0B1E0EEE6FDE502C00B
:1002500005900D92AA3BB107D9F716E0AAEBB1E0E1
:1002600001C01D92AA34B107E1F712E0C8E3D2E061
:1002700004C02297FE010E94322EC433D107C9F771
:100280000E9483260C94B52E0C9400008BB10E9422
:100290000E175A9BFCCF089561E084E00E94282B42
:1002A00060E084E00E94612B61E070E080E090E01B
:1002B0000E94932A61E084E00E94612B62E084E066
:1002C0000E94282B0895ADE2B0E0E9E6F1E00C943D
:1002D000052E8C01F62E0E9494240E949B240E94DD
:1002E0004C010E944805603371408A4C9E4D21F0BC
:1002F0006FEF7FEFCB0168C00E94260B97FDF8CF10
:100300000E948E24C8010E941E05C8010E94571A2F
:1003100085E08DA383E0E82EEEA211E01FA302E0AA
:100320000AA71BA781E294E09DA78CA718A688E0E6
:1003300089A7CE0185960E944B0582E490E40E9435
:10034000A80519831A821B821C821D820E839AECD7
:100350009F838EED8887F98A1A8A1B8A1C8A1D8AD8
:100360001E8B9F8B888FF9861A861B861C861D869E
:100370000E879F87888B80E490E09A8F898F81E039
:1003800090E09CA38BA38FEF8B8FEC8E1D8E1E8E27
:100390001F8E18A219A21AA2CE0101960E947523DF
:1003A00064E670E084E690E00E949F058AE090E0B9
:1003B0000E94702360E070E08AE090E00E947C1A66
:1003C00060E371E08AEC9EEDAD96E6E00C94212EA0
:1003D00061E082E00E94612B62E082E00E94282BB3
:1003E00062E370E080E090E00E94932A42E050E0F7
:1003F00066E471E080E00E94A0290895883C23E033
:10040000920708F042C0823623E0920708F03FC00E
:100410008F3023E09207E8F58C3C22E09207D8F574
:10042000833922E09207C8F5833622E09207B8F5B7
:10043000893322E09207A8F5853122E0920798F5EA
:10044000853F21E0920788F5893D21E0920778F504
:10045000803C21E0920768F5893A21E0920768F430
:10046000853921E0920758F4833821E0920748F457
:100470008237914040F08EE008958BE008958CE043
:1004800008958DE008958FE0089580E0089581E05B
:10049000089582E0089583E0089584E0089585E05A
:1004A000089586E0089587E0089588E0089589E03A
:1004B00008958AE008950F931F93CF93DF9361E02F
:1004C00084E00E94282B60E084E00E94612B81E0A0
:1004D0000E94942B61E083E00E94282B60E083E07F
:1004E0000E94612B60E084E10E94282B60E084E19F
:1004F0000E94612B60E085E10E94282B60E085E18D
:100500000E94612B62E370E080E090E00E94932AF9
:1005100084E10E94972B8C0185E10E94972BEC01CE
:10052000C8010E94FE01182FCE010E94FE01C82FB3
:1005300061E084E00E94612B62E084E00E94282B4D
:1005400060E083E00E94282B20E1C29FC0011124BB
:10055000812BDF91CF911F910F9108950F93CF932E
:10056000DF931F92CDB7DEB7A89588E10FB6F89458
:1005700080936000109260000FBE40E052EC61E09A
:1005800070E083E995E00E94C92841E063E975E0E5
:1005900080EC91E00E94892568E070E080EC91E0B9
:1005A0000E94D92467EF70E083E995E00E94082754
:1005B0000E945B02282F332727FD30952227330F17
:1005C000221F332742E050E0BA01621B730B709385
:1005D0000101609300018F778093CA010E94AA24D1
:1005E00061E089E00E94282B61E089E00E94612B94
:1005F0006091CA0180910001909101010E94630104
:100600006F3F7F4F8F4F9F4F69F46DED70E083E92F
:1006100095E00E94082768EE73E080E090E00E9479
:10062000932AE6CF66ED70E083E995E00E94082703
:100630008091000190910101019719F461ED70E042
:1006400002C069EC70E083E995E00E94C92662EC83
:1006500070E083E995E00E94C9260E948B2300E2A6
:100660000E94512EF22FE32F20E130E0CF01BA019A
:10067000492F582F83E995E00E9495270E948B23EC
:10068000F22FE32F20E130E0CF01BA01492F582F9C
:1006900083E995E00E94952760EC70E083E995E09E
:1006A0000E9408270E94E80165EB70E083E995E06D
:1006B0000E9408271982E0919305F0919405028029
:1006C000F381E02D41E050E0BE016F5F7F4F83E991
:1006D00095E009950F90DF91CF910F9108954F927A
:1006E0005F926F927F928F929F92AF92BF92CF92C2
:1006F000DF92EF92FF92CF93DF930E947D0B0E94D7
:100700002305892B09F489C080EC91E00E94F02434
:100710001092BC011092BD011092BE011092BF0157
:100720008091000190910101019709F03FC00E9462
:10073000A02329013A010E94B7056B017C010E94A8
:10074000AB23EC0163EB70E083E995E00E94C926DE
:10075000B301A2016627772720E130E083E995E025
:100760000E94952761EB70E083E995E00E94C9261D
:100770002AE030E0B701A60183E995E00E949527C1
:100780006EEA70E083E995E00E94C9266BEA70E0AA
:1007900083E995E00E94C9264AE050E0BE0183E962
:1007A00095E00E948C2767EA70E032C00E94B7058E
:1007B0004B015C0165EA70E083E995E00E94C9267F
:1007C0000E94962340E150E0BC0183E995E00E943D
:1007D000AC2761EA70E083E995E00E94C9260E9497
:1007E0009B2340E150E0BC0183E995E00E94AC27E7
:1007F0006FE970E083E995E00E94C9262AE030E0C5
:10080000B501A40183E995E00E9495276CE970E0A9
:1008100083E995E00E94082734C00E94B02320910C
:10082000BA013091BB01A9014F5F5F4F5093BB01EB
:100830004093BA013770232B59F489309105E1F0C8
:10084000089731F480910001909101010297A1F085
:100850008091BC019091BD01A091BE01B091BF01FA
:100860000196A11DB11D8093BC019093BD01A09381
:10087000BE01B093BF0105C080EC91E00E94F0245E
:10088000E7CFDF91CF91FF90EF90DF90CF90BF90B7
:10089000AF909F908F907F906F905F904F90089552
:1008A0004AE050E064EF71E080EC91E00E94CF24D8
:1008B0000895A0E0B0E0EFE5F4E00C94FE2DFC011B
:1008C000EE5EFE4F708081809280D381C481B581BD
:1008D000A681E781272D382D492D5D2F6C2F7B2F89
:1008E0008A2F9E2F2F3FFFEF3F074F075F07FFE73E
:1008F0006F0771058105910561F05CF07150810908
:100900009109722E832E942ED52FC62FB72FA82F84
:10091000E92F272D382D492D5D2F6C2F7B2F8A2F06
:100920009E2F05E00E94362EA72CB82CC92CDD2E58
:10093000EC2EFB2E0A2F1E2F0E94762E59016A01E3
:100940007B01F82F192F06E00E94362E0F2F0E94F0
:10095000762E03E00E94362EA72CB82CC92CDD2E53
:10096000EC2EFB2E0A2F1E2F0E946D2E06E00E94F9
:10097000362EEEE4AE2EF3E0BF2EADE0CA2ED12C23
:10098000E12CF12C00E010E00E94FA2CC901DA0100
:1009900081302DE2920721E3A20721E0B20740F463
:1009A0008093200590932105A0932205B093230501
:1009B000CDB7DEB7EDE00C941A2EA8E0B0E0E3EE80
:1009C000F4E00C94012E7C016B01CE0101965C01D8
:1009D00088E0F50111928A95E9F78701065D1E4FBF
:1009E00048E050E0C8010E948B2E892BA1F048E01E
:1009F00050E0B501C8010E948B2E892B61F488E07C
:100A0000F601D80101900D928A95E1F7F701E95DB1
:100A1000FE4F81E0808380E090E02896EAE00C942D
:100A20001D2E88E0E1E5F3E0DF011D928A95E9F7EC
:100A300010924E0381E080934D0308959093280215
:100A40008093270208958091440390914503009775
:100A500031F0109245031092440381E090E0089534
:100A6000CF93DF9310928F02109290021092910216
:100A700010929202C3E0D3E0188281E090E00E94DD
:100A8000BA1618828FEF80934103DF91CF910895BA
:100A90000E94B10D0895FC01808180933102818113
:100AA0008093360281818093350282818093320265
:100AB000238120933802848180933302858180933F
:100AC00034028681809337021092390287819085A3
:100AD00090933C0280933B02223021F481E080938A
:100AE0003A0202C010923A0281E392E00E94AF0FF4
:100AF00080EC80933D0280913A02813069F44FE1AD
:100B000058E268E07EE040933E0250933F026093DB
:100B10004002709341020BC04FE15FE1BA01409384
:100B20003E0250933F02609340027093410290E076
:100B30000E94C5118DE392E00E947C0E089590936F
:100B40006A028093690270936C0260936B0208954D
:100B5000CF93DF93C2E4D2E0998388830E944D0E45
:100B6000888199810E94590EDF91CF9108956091FB
:100B7000200570912105809122059091230508950B
:100B8000CF93DF93EC01FC01E859FF4F4081518185
:100B9000628173814F5F5F4F6F4F7F4F40835183FF
:100BA00062837383198618868881998182309105C2
:100BB000C1F4FE01EB5FFE4F80818150823028F44A
:100BC00085E090E09B838A8316C087E090E09B835A
:100BD0008A8380E090E00E942F16CD5FDE4F18825E
:100BE0000AC021E030E03B832A83019721F482E0B0
:100BF00090E09D838C830E948A15DF91CF910895A8
:100C0000E0911D058AE5E89FF0011124E75AFC4FA9
:100C1000808190E00895A0E0B0E0E1E1F6E00C947E
:100C2000092E8AE5FE013596A1ECB4E001900D9203
:100C30008A95E1F7E2E00C94252E2AE5E1ECF4E058
:100C4000DC0101900D922A95E1F70895A0E0B0E053
:100C5000ECE2F6E00C94092E4D8120911C051D82DA
:100C60003AE5329FC0011124DC01A75ABC4FFE01B6
:100C7000359601900D923A95E1F7FC01E75AFC4F49
:100C800040832F5F243019F020931C0502C010927E
:100C90001C05E2E00C94252EA9EBB0E0E2E5F6E0BD
:100CA0000C94F92D7E0125EBE20EF11C25E0F701F5
:100CB00011922A95E9F7FC0110818091280388237D
:100CC00009F110922803CE0101960E941D068DB7EE
:100CD0009EB78A5591090FB6F8949EBF0FBE8DBF7F
:100CE000ADB7BEB711968AE5FE01319601900D921F
:100CF0008A95E1F70E9426060FB6F894DEBF0FBE74
:100D0000CDBF8FC0113009F089C0C7010E94510DBD
:100D1000F7014180512C612C712C762C652C542CC0
:100D20004424828190E0A0E0B0E0DC01992788278C
:100D3000480E591E6A1E7B1E8081480E511C611C84
:100D4000711C438150E060E070E0742F66275527E6
:100D50004427440E551E661E771E2481BB27A72DEF
:100D6000962D852D422F50E060E070E0742F6627AD
:100D700055274427840F951FA61FB71FAF968CAF2A
:100D80009DAFAEAFBFAFAF97109231036F961FAE5E
:100D90001EAE6F976D961FAF6D976C961FAF6C97D9
:100DA0005301420130E040E050E060E070E080E05C
:100DB00090E000E20E94362E1901B42FA52FF62FE5
:100DC000E72F8C019201A50160E070E080E090E0E7
:100DD0005101CB2EDA2EEF2EFE2E0E946D2EA09604
:100DE0002FAFA097A1963FAFA197A2964FAFA29722
:100DF000A3965FAFA397A4966FAFA497A5967FAF76
:100E0000A597A6968FAFA697A7969FAFA797AB96E5
:100E10004CAE5DAE6EAE7FAEAB972CC0163009F017
:100E200044C06F961FAE1EAE6F9786E06D968FAF73
:100E30006D976C968FAF6C97A0961FAEA097A196FA
:100E40001FAEA197A2961FAEA297A3961FAEA3971F
:100E5000A4961FAEA497A5961FAEA597A6961FAE03
:100E6000A697A7961FAEA797AB961CAE1DAE1EAE5B
:100E70001FAEAB978DB79EB78A5591090FB6F89400
:100E80009EBF0FBE8DBFADB7BEB711968AE5FE01FE
:100E9000E55AFF4F01900D928A95E1F70E942606D0
:100EA0000FB6F894DEBF0FBECDBFC754DF4FE2E1EF
:100EB0000C94152EA9E7B0E0E0E6F7E00C94FA2DCB
:100EC0004C018E0103591F4F85E0D8011D928A9570
:100ED000E9F7CE01855A9F4F0E94DB0DA9968EAD92
:100EE0009FADA99769969FAF8EAF6997A7968EAD74
:100EF0009FADA7976B969FAF8EAF6B97F4018081E4
:100F0000823009F007C18181809328038281938117
:100F10009C838B8324812134A9F018F4223069F05A
:100F2000B8C0213679F0253C09F0B3C08C3091056A
:100F300071F0429709F0ADC00AC0059759F465E019
:100F4000362E0AC08334910508F0A3C003C077E0B1
:100F5000372E02C0F2E03F2EC8010E94610DD80179
:100F600011964C901197512C612C712C762C652C7C
:100F7000542C442412968C9190E0A0E0B0E0DC0167
:100F800099278827480E591E6A1E7B1EF80180810A
:100F9000480E511C611C711C438150E060E070E000
:100FA000742F662755274427440E551E661E771E4C
:100FB0004D865E866F86788AE481A301920160E0A7
:100FC00070E0CB01E3964FAEE397E4963FAFE49732
:100FD000E5964FAFE597E6965FAFE697E7966FAF7A
:100FE000E797E8967FAFE897E9968FAFE997EA969B
:100FF0009FAFEA972E2F30E040E050E060E070E0D5
:1010000080E090E000E20E94362E59016A017B01E7
:101010008C01E3962FADE397E4963FADE497E59618
:101020004FADE597E6965FADE69760E070E080E053
:1010300090E00E946D2E2D833E834F8358876987F1
:101040007A878B879C87452C562C672C77248E2F8C
:1010500090E0A0E0B0E0B82FAA2799278827480E93
:10106000591E6A1E7B1E498A5A8A6B8A7C8AD40161
:1010700012966D917C91139740E050E0CE01459619
:101080000E94430D0E944715892B29F0A3E03A2EB8
:1010900002C0B3E63B2E39823A82B2E03B1223C053
:1010A00081E08093310380912803882309F463C091
:1010B0004DB75EB74A5551090FB6F8945EBF0FBEE3
:1010C0004DBFADB7BEB711968AE5FE0131960190CE
:1010D0000D928A95E1F70E940B060FB6F894DEBFD9
:1010E0000FBECDBF62C0832D8D7F853009F443C014
:1010F00073E637125AC0E12CF12C00E010E020E03A
:1011000030E040E050E060E070E087E292E00E9472
:101110005B194BC08430F1F489838A831C821B8263
:101120001D821E821F82188619861A861B861C86BF
:101130001D861E861F86188A198A1A8A1B8A1C8A8F
:101140008DB79EB78A5591090FB6F8949EBF0FBE12
:101150008DBF1AC080914402811127C0809127025F
:10116000909128028D7F019731F684E0898384E491
:101170008A831C821B82EDB7FEB7EA55F1090FB6D0
:10118000F894FEBF0FBEEDBFADB7BEB711968AE5AE
:10119000FE01319601900D928A95E1F70E94260694
:1011A0000FB6F894DEBF0FBECDBFC758DF4FE1E1E9
:1011B0000C94162EA6E0B0E0E0EEF8E00C94092EB8
:1011C0009E838D831A82198249815A8129EF32E0E8
:1011D000429FC001439F900D529F900D1124855E48
:1011E0009A4FFC018081882F90E09C838B838B81B8
:1011F0009C8169817A814AE5489F9001499F300D21
:10120000112449EF52E0649FC001659F900D749FC7
:10121000900D1124820F931F875A9C4FFC018081EF
:10122000882339F41092CB011092CC018BEC91E021
:10123000A2C18B819C8169817A814AE5489F900196
:10124000499F300D112449EF52E0649FC001659F12
:10125000900D749F900D1124820F931F865A9C4FFE
:10126000FC0180818093CC018B819C8169817A8192
:101270004AE5489F9001499F300D112449EF52E003
:10128000649FC001659F900D749F900D1124820F83
:10129000931F855A9C4FFC01808191819093CE01D0
:1012A0008093CD018B819C8169817A814AE5489F39
:1012B0009001499F300D112449EF52E0649FC00115
:1012C000659F900D749F900D1124820F931FFC0158
:1012D000E35AFC4F208131814281538164817581C1
:1012E000868197812093CF013093D0014093D10123
:1012F0005093D2016093D3017093D4018093D501B0
:101300009093D6018B819C8169817A814AE5489FBF
:101310009001499F300D112449EF52E0649FC001B4
:10132000659F900D749F900D1124820F931F8B5910
:101330009C4FFC0180819181A281B3818093D70170
:101340009093D801A093D901B093DA018B819C814D
:1013500069817A814AE5489F9001499F300D1124A7
:1013600049EF52E0649FC001659F900D749F900DFE
:101370001124820F931F87599C4FFC01808191811A
:10138000A281B3818093DB019093DC01A093DD0106
:10139000B093DE018B819C8169817A814AE5489F07
:1013A0009001499F300D112449EF52E0649FC00124
:1013B000659F900D749F900D1124820F931F8F5481
:1013C0009C4FFC01808191819093240280932302A1
:1013D0008B819C8169817A814AE5489F9001499F70
:1013E000300D112449EF52E0649FC001659F900DBC
:1013F000749F900D1124820F931F81559C4FFC0107
:101400008081918190932202809321028B819C8123
:101410004AE5489F9001499F300D112469817A81E6
:1014200049EF52E0649FC001659F900D749F900D3D
:101430001124820F931F8A5B9E4F895D9D4F22E48A
:10144000FC01AFEDB1E001900D922A95E1F78B819F
:101450009C8169817A814AE5489F9001499F300DBE
:10146000112449EF52E0649FC001659F900D749F65
:10147000900D1124820F931F875A9C4FFC0180818D
:101480008093CB018B819C8169817A814AE5489F59
:101490009001499F300D112449EF52E0649FC00133
:1014A000659F900D749F900D1124820F931F875A92
:1014B0009C4FFC01108249815A8129EF32E0429F02
:1014C000C001439F900D529F900D1124855E9A4F4D
:1014D000FC01808161E0680F49815A8129EF32E087
:1014E000429FC001439F900D529F900D1124855E35
:1014F0009A4FFC01608349815A8129EF32E0429F73
:10150000C001439F900D529F900D1124855E9A4F0C
:10151000FC018081843079F449815A8129EF32E0DD
:10152000429FC001439F900D529F900D1124855EF4
:101530009A4FFC01108249815A8129EF32E0429F83
:10154000C001439F900D529F900D1124855E9A4FCC
:10155000FC01608149815A8129EF32E0429FC0013C
:10156000439F900D529F900D1124835E9A4FFC0172
:1015700060838BEC91E02696E2E00C94252EA4E0AB
:10158000B0E0E5ECFAE00C94092E1A8219821C8274
:101590001B821A82198224C089819A814AE5489F58
:1015A0009001499F300D11246B817C8149EF52E0FD
:1015B000649FC001659F900D749F900D1124820F50
:1015C000931F8E5C9E4F895D9D4F4AE550E060E021
:1015D00070E00E94982E89819A8101969A8389836E
:1015E00089819A8184309105BCF24B815C8129EF1D
:1015F00032E0429FC001439F900D529F900D1124F5
:10160000845E9A4FFC0110824B815C8129EF32E0AD
:10161000429FC001439F900D529F900D1124855E03
:101620009A4FFC0110824B815C8129EF32E0429F8E
:10163000C001439F900D529F900D1124835E9A4FDD
:10164000FC0110822496E2E00C94252ECF93DF93C8
:1016500082E090E09093280280932702109230035A
:1016600010922D0387E098E10E94D813EC0183E0EB
:101670000E94C012CD2B19F50E9430058AEC9EED18
:10168000909305038093040310922C031092290376
:1016900010922A0310923103109232030E94BF0A63
:1016A0001092440287EF92E00E941A0F10922602D5
:1016B0001092250210924C0380E090E002C08FEF60
:1016C0009FEFDF91CF910895A4E0B0E0EAE6FBE060
:1016D0000C94092E9C838B831A82198289819A81AA
:1016E000880F991F8B5D9D4F2B813C81FC013183BD
:1016F00020832496E2E00C94252ECF92DF92EF9285
:10170000FF92CF93DF93CDB7DEB7C056D1090FB6A6
:10171000F894DEBF0FBECDBF1E821D821A821982D1
:101720000E9400069C838B831FC08D819E81880F41
:10173000991F8B5D9D4FFC01208131816D817E81E0
:1017400049EF52E0649FC001659F900D749F900D1A
:101750001124895D9D4F4B815C81BA01F901099586
:101760009A8389831C821B8289819A810097E9F27E
:1017700089819A818230910509F084C04D815E8112
:1017800029EF32E0429FC001439F900D529F900D80
:101790001124895D9D4FFC018081918181309105EB
:1017A00009F051C04D815E8129EF32E0429FC001B6
:1017B000439F900D529F900D112487599D4FFC011E
:1017C0008081918118161906F4F50E94A1249B01CD
:1017D000AC01ED81FE8169EF72E0E69FC001E79FF9
:1017E000900DF69F900D112487599D4FFC0180812B
:1017F0009181AA2797FDA095BA2F820F931FA41F4E
:10180000B51F6D817E8149EF52E0649F9001659F15
:10181000300D749F300D11242D5C3C4FF9018083F5
:101820009183A283B3834D815E8129EF32E0429F91
:10183000C001439F900D529F900D11248E5C9C4FD0
:1018400021E0FC0120834D815E8129EF32E0429F3F
:10185000C001439F900D529F900D11248F5C9C4FAF
:10186000FC0110824D815E8129EF32E0429FC00170
:10187000439F900D529F900D1124815D9D4FFC015F
:10188000118210824D815E8129EF32E0429FC001BA
:10189000439F900D529F900D11248E5C9C4FFC0134
:1018A0008081813009F065C04D815E8129EF32E091
:1018B000429FC001439F900D529F900D11248F5C59
:1018C0009C4FFC018081882309F053C04D815E81CB
:1018D00029EF32E0429FC001439F900D529F900D2F
:1018E00011248D5C9C4FFC01C080D180E280F3808C
:1018F0000E94A124DC01CB0121E0C816D906EA062A
:10190000FB0608F020E02223A1F14D815E8129EF42
:1019100032E0429FC001439F900D529F900D1124D1
:101920008E5C9C4FFC0110821A86198684E08F839E
:1019300084E888878DB79EB78A5591090FB6F894C9
:101940009EBF0FBE8DBF8DB79EB701962AE5FE01E3
:101950003796DC0101900D922A95E1F70E94260648
:10196000EDB7FEB7E65AFF4F0FB6F894DEBF0FBED5
:10197000CDBF80E090E0C05ADF4F0FB6F894DEBFD5
:101980000FBECDBFDF91CF91FF90EF90DF90CF9052
:10199000089560918B0570918C0580918D059091D3
:1019A0008E050895A3E0B0E0E8EDFCE00C94072E6E
:1019B00061157105E9F0806C898360387105A0F0CC
:1019C000862F80688A83660F672F661F770B719555
:1019D0006B8383E090E0BE016F5F7F4F0E94BB236B
:1019E0002396E4E00C94232E6A8382E090E0F3CF08
:1019F0008068898381E090E0EECF0F931F93FA0116
:101A00009A01280F391F2130344080F49C01225064
:101A1000310940E050E08B01BF0189E090E00E9475
:101A2000D20C80E090E01F910F9108958FEF9FEF0F
:101A3000FACFA3E0B0E0EFE1FDE00C94072E6115D2
:101A40007105E9F08064898360387105A0F0862F04
:101A500080688A83660F672F661F770B71956B838B
:101A600083E090E0BE016F5F7F4F0E9424242396A5
:101A7000E4E00C94232E6A8382E090E0F3CF898324
:101A800081E090E0EFCF0F931F939B01BA0140E0FC
:101A900050E08C0181E190E00E94190D1F910F919F
:101AA00008950F931F938C0125E030E040E050E053
:101AB00060E070E087E190E00E94190D1F910F91A6
:101AC00008950F931F938C0125E030E040E050E033
:101AD00060E070E085E190E00E94190D1F910F9188
:101AE0000895A4E0B0E0E7E7FDE00C94072E8E0136
:101AF0000F5F1F4F24E030E040E050E00E94190DDE
:101B0000892B41F06FEF7FEFCB012496E4E00C943A
:101B1000232E27C06C81862F90E0A0E0B0E091508A
:101B2000A109B109BA2FA92F982F88272B81820FDD
:101B3000911DA11DB11DBA2FA92F982F88272A8189
:101B4000820F911DA11DB11D6627782F892F9A2F15
:101B50002981620F711D811D911D2496E4E00C9472
:101B6000232E60E070E080E090E00E94710D089507
:101B7000A2E0B0E0EEEBFDE00C94072E8E010F5FCB
:101B80001F4F22E030E040E050E00E94190D892B09
:101B900039F08FEF9FEF2296E4E00C94232E0BC0D8
:101BA0008A8190E0982F88272981820F911D2296A3
:101BB000E4E00C94232EA2E0B0E0E1EEFDE00C9412
:101BC000052E7C018E010F5F1F4F22E030E040E0C8
:101BD00050E065E070E085E190E00E94190D898198
:101BE0006A8170E0762F6627680F711D80E090E0B3
:101BF0000E94B42B20E030E040E85CE30E94422CDD
:101C0000F70166877787808B918B60E070E08EE2CA
:101C100090E00E94B80DF7019183808387010C5FEB
:101C20001F4F28E030E040E050E060E070E082E1EB
:101C300090E00E94190D67E070E085E190E00E945D
:101C4000B80DF7019383828360E070E080E190E05B
:101C50000E94710DF4E19695879577956795FA95B1
:101C6000D1F7F701758764872296E6E00C94212E60
:101C7000A2E0B0E0EEE3FEE00C94072E49835A8325
:101C80008E010F5F1F4F22E030E040E050E00E94E5
:101C9000D20C2296E4E00C94232E90933705809387
:101CA0003605AC0164E078E18EE290E00E94380EE7
:101CB00008959093390580933805AC0160E070E099
:101CC00088E190E00E94380E0895A4E0B0E0EBE6D1
:101CD000FEE00C94072E29833A834B835C838E01AC
:101CE0000F5F1F4F24E030E040E050E00E94D20C34
:101CF0002496E4E00C94232E0F931F93CF93DF934D
:101D0000EC018C0121E030E040E050E06BE070E05D
:101D10008AE290E00E94D20C29813A814B815C8159
:101D200060E070E08EE190E00E94650EDF91CF915F
:101D30001F910F9108959C0140E050E0CB01A0E07D
:101D4000B0E066E1880F991FAA1FBB1F6A95D1F703
:101D5000282B392B4A2B5B2B809132059091330530
:101D6000A0913405B0913505282B392B4A2B5B2BDC
:101D700060E070E088E090E00E94650E80E090E016
:101D80000895CF93DF93EC0160E070E084E090E091
:101D90000E94710D9B01AC012097A1F42E7F477426
:101DA000507F209340053093410540934205509366
:101DB000430560E070E084E090E00E94650EDF91F2
:101DC000CF91089521703E7F4774507FCE018E7F62
:101DD00091708160A0E0B0E0282B392B4A2B5B2B5F
:101DE000E0CFA2E0B0E0E7EFFEE00C94072E89839D
:101DF0009A838E010F5F1F4F22E030E040E050E0F9
:101E000062E070E083E090E00E94D20C2296E4E071
:101E10000C94232E0F931F938C0128E030E040E0B8
:101E200050E060E070E081E090E00E94D20C1F91F1
:101E30000F9108950F931F938C0128E030E040E04C
:101E400050E060E070E081E090E00E94190D1F9189
:101E50000F910895A4E0B0E0E0E3FFE00C94072EBA
:101E60007A8369838E010F5F1F4F22E030E040E0EC
:101E700050E064E070E08DE290E00E94D20C83E0DC
:101E800089838E010F5F1F4F21E030E040E050E07A
:101E900066E070E08DE290E00E94D20C19828E0123
:101EA0000F5F1F4F21E030E040E050E066E070E05F
:101EB0008DE290E00E94D20C6AE070E08DE290E04A
:101EC0000E94710D2496E4E00C94232ECF93DF93AF
:101ED000EC0164E070E086E390E00E94710D9B01EC
:101EE000AC01CD2B51F4377F64E070E086E390E0E5
:101EF0000E94650EDF91CF9108953860F5CFA3E081
:101F0000B0E0E5E8FFE00C94052E7C018DE68B83C4
:101F10008E010D5F1F4F21E030E040E050E066E0B1
:101F200078E08EE290E00E94D20C87E08983E11491
:101F3000F10499F486E18A838E010F5F1F4F22E03E
:101F400030E040E050E066E078E18EE290E00E9410
:101F5000D20C2396E6E00C94212E86E0ECCFA1E093
:101F6000B0E0E5EBFFE00C94FE2D7C01DC019C90E1
:101F70001596EC911597F0E0EE0FFF1FEA5FFE4F0C
:101F80002591349159011196CC90D12CB1E0CB1A06
:101F9000D108D0928A05C09289057C2CE4E088247F
:101FA00083949E1619F0F7E09F12812C90923005D1
:101FB000D70117964C918091400590914105A091D1
:101FC0004205B0914305411110C0A06480934005C3
:101FD00090934105A0934205B0934305590133E026
:101FE000B694A7943A95E1F709C0AF7B809340057A
:101FF00090934105A0934205B0934305F701808576
:10200000809331052085822F90E0A0E0B0E0AC0104
:1020100033272227222733274370552780914005F5
:1020200090914105A0914205B0914305282B392B91
:102030004A2B5B2B2093400530934105409342058A
:102040005093430560E070E084E090E00E94650EEC
:10205000A50164E078E28EE290E00E94380EDD2473
:10206000C6010E947F0FE92DF0E0E15CFE4F008188
:10207000A02EB12CF5E00F9F800111240F5D1E4FA3
:1020800025E030E040E050E067E070E08BE290E077
:102090000E94D20C00E211E021E030E040E050E08C
:1020A0006EE070E08BE290E00E94D20C082D10E010
:1020B000025E1E4F21E030E040E050E06BE070E057
:1020C00088E290E00E94D20CF501EE0FFF1FEE0FA8
:1020D000FF1FE85AFE4F25913591459154916CE0D0
:1020E00070E088E290E00E94650ED7011696EC91B0
:1020F000169717968C91F0E0E80FF11DE80FF11D8F
:10210000EE0FFF1FE95FFE4F4081518162E070E0FA
:1021100087E290E00E94380EF601EE0FFF1FED5FA0
:10212000FE4F4081518164E070E087E290E00E94C0
:10213000380EF7018781811109C044E650E066E05E
:1021400070E087E290E00E94380E1FC082818430E8
:1021500029F480E1898340E150E004C088E289836A
:1021600040E250E066E070E087E290E00E94380EC6
:102170008E010F5F1F4F21E030E040E050E066E24B
:1021800070E087E290E00E94D20C772019F0E8E33B
:10219000F1E002C0E8E4F1E0D70113968C91B4E0DD
:1021A0008B9FE00DF11D112425913591459154919E
:1021B00068E070E087E290E00E94650EF7014285DA
:1021C00053854134F0E15F0731F060E270E087E26F
:1021D00090E00E94380ED7011A968D919C911B9722
:1021E000892B41F441E450E160E270E087E290E045
:1021F0000E94380E2091160130911701409118016C
:10220000509119016CE070E083E290E00E94650E4D
:10221000F601EE0FFF1FE65EFE4F4081518164E044
:1022200070E083E290E00E94380EF70186818823F7
:1022300089F0078110E00D5E1E4F21E030E040E0A4
:1022400050E060E070E081E290E00E94D20C61E03A
:1022500073E002C060E070E0D70115962C9130E089
:1022600040E050E0EBE1220F331F441F551FEA9579
:10227000D1F7892D8F70282B892D90E0A0E0B0E058
:10228000F4E0880F991FAA1FBB1FFA95D1F7992771
:10229000AA27BB27282B392B4A2B5B2BF7018181DF
:1022A00090E0A0E0B0E0072E72E1880F991FAA1F0E
:1022B000BB1F7A95D1F7702D88279927AC70BB2763
:1022C000282B392B4A2B5B2B848190E0A0E0B0E0D7
:1022D000E6E1880F991FAA1FBB1FEA95D1F788274F
:1022E0009927A07CB770282B392B4A2B5B2B872E84
:1022F000912CA12CB12CF4E1880C991CAA1CBB1CBC
:10230000FA95D1F7282939294A295B29862F90E0A7
:10231000A0E0B0E061E1880F991FAA1FBB1F6A957A
:10232000D1F7282B392B4A2B5B2B60E070E08FE133
:1023300090E00E94650ED70111968C91119712962C
:102340009C911297892B17962C9130E0322F2227DF
:102350003295330F307E442737FD4095542F482B5C
:102360003068209332053093330540933405509301
:10237000350560E070E088E090E00E94650E80E046
:1023800090E02196EDE00C941A2ECF93DF93EC01B0
:1023900060E070E084E090E00E94710DDC01CB0110
:1023A000CD2BA1F4A4608093400590934105A093A8
:1023B0004205B09343059C01AD0160E070E084E00C
:1023C00090E00E94650EDF91CF910895AB7FEBCF37
:1023D000A2E0B0E0EEEEF1E10C94052E50E4E52E23
:1023E00055E0F52EF701408151816281738170645F
:1023F000408351836283738319828A838E010F5FC6
:102400001F4F22E030E040E050E062E070E08AE1FF
:1024100090E00E94D20CF7012081318142815381EA
:1024200060E070E084E090E00E94650E2296E6E0B5
:102430000C94212E892BE1F4809140059091410567
:10244000A0914205B091430590618093400590931F
:102450004105A0934205B093430510923F059C01AE
:10246000AD0160E070E084E090E00E94650E0895A8
:102470008091400590914105A0914205B09143059E
:102480009F7E8093400590934105A0934205B093B1
:10249000430521E020933F059C01AD0160E070E021
:1024A00084E090E00E94650E0895A1E0B0E0EBE5C5
:1024B000F2E10C94072E892B21F580914005909133
:1024C0004105A0914205B0914305BF7D8093400531
:1024D00090934105A0934205B09343058B2F8983C8
:1024E0008E010F5F1F4F21E030E040E050E063E0DD
:1024F00070E084E090E00E94D20C2196E4E00C941D
:10250000232E8091400590914105A0914205B09104
:102510004305B0628093400590934105A093420526
:10252000B09343058B2FDBCFCF92DF92EF92FF92D8
:102530006B017C0160E070E08AE190E00E94710D27
:102540009B01AC0122273327407F8FE0E822FF2444
:102550002C293D294E295F2960E070E08AE190E056
:102560000E94650EFF90EF90DF90CF9008959093BA
:10257000900580938F05709392056093910508955F
:10258000A2E0B0E0E6ECF2E10C94042ED82ECE01ED
:1025900001967C018C0122E030E040E050E060E0F8
:1025A00070E086E290E0D0FC30C00E94190D8A8174
:1025B0008A7E8A8389818F7B898322E030E040E0B4
:1025C00050E060E070E086E290E00E94D20CD1FE24
:1025D00018C08FE08983870121E030E040E050E0BF
:1025E0006AE270E086E390E00E94D20C198221E05A
:1025F00030E040E050E06AE270E086E390E00E9464
:10260000D20C2296E7E00C94202E0E94190D8A81AC
:1026100084618A838E010E5F1F4F21E030E040E02D
:1026200050E061E070E086E290E00E94D20C870109
:1026300021E030E040E050E062E070E086E390E0CE
:102640000E94190D89818468898321E030E040E08F
:1026500050E062E070E086E390E00E94D20C80E1FE
:10266000898381E08A8322E030E040E050E068E244
:1026700070E086E390E00E94D20CA9CFA2E0B0E027
:10268000E4E4F3E10C94052E7C018E010F5F1F4FF3
:1026900022E030E040E050E060E070E086E390E06F
:1026A0000E94190D8EE0E816F10448F4F701EC5C85
:1026B000FF4F0C94302E19828A818E7F8A838E017F
:1026C0000F5F1F4F21E030E040E050E060E070E03D
:1026D00086E390E00E94D20C8E010E5F1F4F21E036
:1026E00030E040E050E061E070E086E390E00E947E
:1026F000D20C2296E6E00C94212E89818F7C806298
:102700008983DDCF89818C7F81608983D8CF89815E
:102710008C7F82608983D3CF8981837B886489831E
:102720008A8180688A83CBCF8981837B89838A81F0
:102730008F778A83C4CF8A8182608A83C0CF8A815F
:102740008D7F8A83BCCFA4E0B0E0E9EAF3E10C948A
:10275000072E83E08C8381E08B838E010D5F1F4FFA
:1027600022E030E040E050E060E070E086E390E09E
:102770000E94D20C198280E88A838E010F5F1F4F5E
:1027800022E030E040E050E066E070E08DE290E072
:102790000E94D20C88EE93E00E94B92A81E090E07A
:1027A0000E943E1380E090E02496E4E00C94232EF7
:1027B000A1E0B0E0EEEDF3E10C94012E5C0110928B
:1027C000870510923F0510928A0510928905109294
:1027D000750510928B0510928C0510928D05109244
:1027E0008E05109288051092900510928F05109218
:1027F0009205109291050E94B10D6093240570938B
:1028000025058093260590932705603371408A4CF7
:102810009E4D09F0C8C080E090E00E943E13A3FEE8
:102820000EC064E070E080E090E00E942A0F6093A8
:102830008B0570938C0580938D0590938E05809108
:102840008B05882381F082E089838E010F5F1F4F03
:1028500021E030E040E050E062E170E08DE290E0A5
:102860000E94D20C08C010928B0510928C05109219
:102870008D0510928E0566E070E080E090E00E9489
:102880002A0F609328057093290580932A05909359
:102890002B0567E070E080E090E00E942A0F6093D3
:1028A0002C0570932D0580932E0590932F05A1FE86
:1028B0000FC06CE170E080E090E00E942A0F60930E
:1028C0003A0570933B0580933C0590933D0508C005
:1028D00010923A0510923B0510923C0510923D056E
:1028E000A0FE0BC06EE170E080E090E00E942A0F35
:1028F0006F7160933E05611105C0809120018F7159
:1029000080933E05A2FE21C004E415E060E1C62EDE
:10291000D12CE12CF12CC701B6010E942A0FF8013D
:1029200061937193819391938F01FFEFCF1ADF0A27
:10293000EF0AFF0A2CE1C216D104E104F10459F7B1
:10294000B3FE0EC00E94A31319C0E4E4F5E0119297
:1029500011921192119285E0E437F807C1F7F0CF98
:1029600065E070E086E390E00E94B80DAC015D7F09
:1029700065E070E086E390E00E94380E81E090E030
:102980000E943E1360E070E084E090E00E94710DD0
:1029900060934005709341058093420590934305F1
:1029A00080E090E002C08FEF9FEF2196EAE00C9468
:1029B0001D2E9B01AC0161E070E08AE090E00E9476
:1029C000650E0895A1E0B0E0E8EEF4E10C94072E66
:1029D00081FD29C092E026E080FF2CC029838E0172
:1029E0000F5F1F4F21E030E040E050E060E070E01A
:1029F0008DE090E00E94D20C8E010F5F1F4F21E00E
:102A000030E040E050E063E070E08FE090E00E9452
:102A1000190D898183FD23C080E090E02196E4E0D8
:102A20000C94232E34C091E09093880592E826E818
:102A300080FDD4CF99838E010F5F1F4F21E030E0DE
:102A400040E050E060E070E08DE090E00E94D20C49
:102A500080E090E02196E4E00C94232E18C080E4FE
:102A600089838E010F5F1F4F21E030E040E050E08E
:102A700060E070E08DE090E00E94D20C80E090E099
:102A80000E94660F109288058FEF9FEFE3CF62E000
:102A900070E08FE090E00E94B80D80719927089552
:102AA000A2E0B0E0E6E5F5E10C94072E8E010E5FA2
:102AB0001F4F21E030E040E050E063E070E08FE045
:102AC00090E00E94190D9A81492F407850E060E013
:102AD00070E0892F807490E0A0E0B0E0880F991F2B
:102AE000AA1FBB1F481759076A077B0779F081E0C7
:102AF00089838E010F5F1F4F21E030E040E050E0FE
:102B000063E070E08DE090E00E94D20C2296E4E059
:102B10000C94232EA1E0B0E0E0E9F5E10C94012E45
:102B200080E4898360E070E08EE090E00E94710DA7
:102B30006B017C010E94A4245C0120E030E0A9012B
:102B400060E070E08EE090E00E94650E8E010F5F05
:102B50001F4F21E030E040E050E060E070E08DE0A9
:102B600090E00E94D20C28EF3FEF47E254E260E091
:102B700070E08FE090E00E94650E0E945015A70162
:102B8000960160E070E08EE090E00E94650EC50165
:102B90000E94A824109288052196EAE00C941D2E2C
:102BA000A3E0B0E0E6EDF5E10C94072E8C011B826A
:102BB0000E945015012B39F1198283E08A838E011E
:102BC0000F5F1F4F22E030E040E050E060E070E037
:102BD0008DE090E00E94D20C8E010D5F1F4F21E02E
:102BE00030E040E050E063E070E08FE090E00E9471
:102BF000190D8B8183FD1EC080E090E02396E4E0F8
:102C00000C94232E2CC0198281E08A838E010F5FE1
:102C10001F4F22E030E040E050E060E070E08DE0E7
:102C200090E00E94D20C80E090E02396E4E00C94C7
:102C3000232E15C00E948A15198281E08A838E0195
:102C40000F5F1F4F22E030E040E050E060E070E0B6
:102C50008DE090E00E94D20C8FEF9FEFE6CFA3E0D3
:102C6000B0E0E5E3F6E10C94052E7C018E010D5FEA
:102C70001F4F21E030E040E050E063E070E084E08E
:102C800090E00E94190DE114F10429F58B818F7EEB
:102C90008B838091400590914105A0914205B091B0
:102CA0004305BF7E8093400590934105A093420564
:102CB000B09343058E010D5F1F4F21E030E040E0EF
:102CC00050E063E070E084E090E00E94D20C239634
:102CD000E6E00C94212EE982FA828E010F5F1F4FED
:102CE00022E030E040E050E060E070E08CE090E016
:102CF0000E94D20C8B8180618B83809140059091E2
:102D00004105A0914205B0914305B061CBCFA1E050
:102D1000B0E0EDE8F6E10C94032E6B017C014983F1
:102D20000E94A4248C0160E070E08EE090E00E949C
:102D3000710D4981411117C0A70196012095309569
:102D400040955095262337234823592360E070E0AF
:102D50008EE090E00E94650EC8010E94A824219692
:102D6000E8E00C941F2E9B01AC012C293D294E2933
:102D70005F29ECCFA1E0B0E0E0ECF6E10C94052E89
:102D80007C0182E089838E010F5F1F4F21E030E0DC
:102D900040E050E060E070E08FE290E00E94D20CF2
:102DA000E114F10479F081E089838E010F5F1F4FF8
:102DB00021E030E040E050E060E070E08FE290E041
:102DC0000E94D20C2196E6E00C94212EA1E0B0E006
:102DD000ECEEF6E10C94072E80EE89838E010F5FF6
:102DE0001F4F21E030E040E050E063E070E086E318
:102DF00090E00E94D20C80EF89838E010F5F1F4FFD
:102E000021E030E040E050E063E070E086E390E0F5
:102E10000E94D20C2196E4E00C94232EA2E0B0E0B4
:102E2000E4E1F7E10C94012E1092740580913F05C6
:102E300080937A0560E070E08FE090E00E94710D71
:102E40006B017C0172FF05C080913F05882309F466
:102E50008EC0D6FE52C0D2FE4BC0E4FCB5C060E0CE
:102E600070E080E190E00E94B80D5C0108E715E099
:102E700022E030E040E050E060E070E081E190E08E
:102E80000E94190D80913105882309F4F9C023E0CF
:102E9000B222B0927705A0927605C3FE04C080915D
:102EA000780585FFF5C08C2D88708093750580E0CE
:102EB00090E0DC0122E02093740520913F05211170
:102EC00017C0A701960122273F7644275527282BB4
:102ED000392B4A2B5B2B60E070E08FE090E00E9482
:102EE000650EE0919105F0919205309709F084C04C
:102EF0002296EAE00C941D2E09C1C7FC85C0A701EB
:102F000096012227332742705527E1FCA0C0A70174
:102F100096012227307947725472211531054105F7
:102F2000510531F360E070E08FE090E00E94650EA3
:102F3000109288058091400590914105A09142052D
:102F4000B0914305B5FFCFC00E94E616D4FC9CC0EB
:102F5000D7FCCCC0E0FECEC089E080937405E09140
:102F60009105F0919205309709F046C0C1CFD70185
:102F7000C60188279E70AA27BB2781159E40A10500
:102F8000B10509F466CF0E948A150E94E61688EF03
:102F9000C822DD24EE24FF24809140059091410554
:102FA000A0914205B0914305B5FD7BC083E08093BD
:102FB0007405E0919105F0919205309709F449CF9D
:102FC00084E795E0099545CF0E948A150E94E61690
:102FD0008091400590914105A0914205B091430533
:102FE000B5FD70C083E080937405E0919105F09188
:102FF0009205309709F47CCF84E795E009952296F5
:10300000EAE00C941D2E82C028EF30E040E050E052
:1030100060E070E08FE090E00E94650E80917505A1
:10302000882359F01092750580913F05811105C0E4
:103030008091880581110E948A1581E08093740532
:10304000E0918F05F09190053097B1F651CF60E097
:1030500070E08FE090E00E94650E84E0809374053C
:10306000E0919105F0919205309719F084E795E091
:103070000995109288052296EAE00C941D2E46C010
:10308000E894A7F8BB2405CF88E08093740567CF48
:10309000109275051092880588E090E0A0E0B0E0FD
:1030A00009CF198281E08A838E010F5F1F4F22E0D2
:1030B00030E040E050E060E070E08DE090E00E94A1
:1030C000D20CC7CE198281E08A838E010F5F1F4F19
:1030D00022E030E040E050E060E070E08DE090E021
:1030E0000E94D20C05CF0E948A152ECF83E08093D8
:1030F000740535CFF2FE04C08AE0809374052FCFAB
:10310000E5FEF4CF8BE08093740529CFFC01E352F8
:10311000FF4F30812181FC01EF55FF4F3083FC01CF
:10312000EE55FF4F2083672B11F020E201C020E015
:10313000FC01E256FF4F21642083FC01E156FF4F62
:103140002CEC2083FC01E452FF4F208131E0320F50
:103150003083FC01E056FF4F20830895A3E0B0E0E8
:10316000E4EBF8E10C94F92DFC01B0ADB98311AD9D
:1031700092AC83AC74AC65AC56AC47AC2B2F312F02
:10318000492D582D672D762D852D942DA0E00E9478
:103190007F2E09F487C0C6A8D7A87F0188EDE81A5A
:1031A0008EEFF80A1F0197ED291A9EEF390ADF0109
:1031B000AD55BF4FBB83AA8382E0A82ED701BC9038
:1031C0008B2D90E0C816D906ECF12981312F492DBD
:1031D000582D672D762D852D942D0B2D0E94512E67
:1031E000217030E040E050E060E070E080E090E08E
:1031F000A0E00E947F2EF1F0D101BC92AA81BB8198
:10320000BC9211961C92119712961C9212971396CB
:103210001C92139714961C9214971596AC921597BE
:103220008AEC16968C9316979EED17969C9380E0E9
:1032300090E002C081E090E0B394D701BC92892B6A
:1032400009F0BCCFD701AC901B821A82B12C2A8026
:103250003B802A0C3B1CC214D304ECF08A819B8176
:1032600001969B838A832981312F492D582D672D03
:10327000762D852D942D022D0E94512E217030E047
:1032800040E050E060E070E080E090E0A0E00E946C
:103290007F2EE9F20AC0E75FFE4F81E08083D7010D
:1032A0001C9203C081E090E002C080E090E0239691
:1032B000E2E10C94152EEF92FF920F931F93CF93A0
:1032C000DF93EB01B901CA01209749F09701A801EA
:1032D00008E00E94512EB901CA010E94D914CE0102
:1032E0000E94D015CDB7DEB7E6E00C94212EEF9208
:1032F000FF920F93CF93DF93EC017B01FC01E65229
:10330000FF4F60E070E0808191810E949B0EE1148C
:10331000F10491F0FE01E45AFF4F20813181428196
:103320005381648175818681978108E00E94512EC6
:10333000B901CA010E94D914CE5FDE4F88818E295F
:103340000E94E21421E030E0892B11F420E030E00B
:10335000C901DF91CF910F91FF90EF900895CF9227
:10336000DF92EF92FF920F931F936115710521E099
:103370008207910530F0E0E1CE2ED12CE12CF12C2A
:1033800003C0C12CD12C76018B019C010C2C04C0F4
:1033900036952795179507950A94D2F70F3F110593
:1033A0002105310531F028F048E050E060E070E0A0
:1033B00003C040E050E0BA01042E04C036952795C2
:1033C000179507950A94D2F74C295D296E297F2914
:1033D000003111052105310528F084E090E0A0E0DE
:1033E000B0E003C080E090E0DC01082E04C0369518
:1033F0002795179507950A94D2F7842B952BA62B22
:10340000B72B043011052105310530F052E0C52EEF
:10341000D12CE12CF12C03C0C12CD12C7601BC01A4
:10342000CD016C297D298E299F2904C036952795C9
:1034300017950795CA94D2F736952795179507954E
:10344000602B712B822B932B1F910F91FF90EF908C
:10345000DF90CF900895CF92DF92EF92FF926B01B1
:10346000E12CF12CF1E1CC0CDD1CEE1CFF1CFA95DB
:10347000D1F79C01DC010E94A52C9B01AC01C70186
:10348000B6010E94BF2CCA01B9010E94AF199B016D
:10349000AC01A3E0B0E00E94B42C6457710981092B
:1034A0009109CB01FF90EF90DF90CF90089590931A
:1034B00028028093270210922A021092290241E0EA
:1034C00060E870ED83E094E20E94871681E00E943C
:1034D000C0126AE577E08CE496E00E94B712109281
:1034E0002E0310922F0385EA9BE10E94640B109239
:1034F0004F0380E090E00895A0E0B0E0E2E8FAE158
:103500000C94FB2DEC018B016115710531F04B0121
:10351000AA2497FCA094BA2C05C047E2842E912CD3
:10352000A12CB12C33E0880C991CAA1CBB1C3A9529
:10353000D1F7C501B4012AE431E040E050E00E9437
:10354000E12C2F5F3F4F80E3829F6001839FD00C6F
:1035500011249601442737FD4095542F280D391D1D
:103560004A1D5B1DE0913802E1110EC0ADE0B0E2F2
:103570000E94B42C6B017C0184E1C80E81EAD81E44
:1035800082E0E81EF11C18C0E13039F4A2E0B4E09A
:103590000E94B42C6B017C0109C069017A0127E00B
:1035A000CC0CDD1CEE1CFF1C2A95D1F783E2C80E63
:1035B00084E5D81EE11CF11CF0E0ED5EFE4F408179
:1035C000E0913302E450E13360F4F0E0EE0FFF1FCE
:1035D000E95BFE4F80819181AA2797FDA095BA2FC4
:1035E00003C080E090E0DC012091320250E060E016
:1035F00070E0213049F49A01AB01280F391F4A1FAE
:103600005B1FA2EEB3E008C09A01AB01280F391F7F
:103610004A1F5B1FAAEFB3E00E94B42C28EE33E0F0
:1036200040E050E00E94E12C29013A0188EE882E0A
:1036300083E0982EA12CB12CC701B601A5019401FD
:103640000E94E12C240D351D461D571DAFECB3E043
:103650000E94B42C012B31F16B017C01A501940176
:103660000E94E12C2853344F30937E0220937D0238
:103670008FEC93E0C89F8001C99F100DD89F100D5B
:10368000112400511109C701B60128E13CEF4FEFA9
:103690005FEF0E94E12C020F131F10937A02009338
:1036A00079024EC02B013C01A50194010E94E12C3E
:1036B0002853344F30937C0220937B029D2F990F27
:1036C000990BA12CB12CAFECCA2EB3E0DB2EE12C70
:1036D000F12C00E010E09E01492F592F692F792F1E
:1036E000892F0E94372D20936D0230936E024093F4
:1036F0006F02509370026093710270937202809314
:10370000730290937402D0937602C09375028FEC8B
:1037100093E0C89F8001C99F100DD89F100D112400
:1037200000511109C301B20128E13CEF4FEF5FEFF7
:103730000E94E12C020F131F10937802009377026E
:10374000CDB7DEB7E0E10C94172EA9E3B0E0EBEAC9
:10375000FBE10C94F92D4C015B01DC011296ED911B
:10376000FC911397EC30F10508F0B1C7EE5BFF4F09
:103770000C94302EFC01808191818130910519F0EB
:103780000297C9F1A4C788E190E00E94C10E88E0C9
:10379000F401BE96840100531F4FD80101900D9291
:1037A0008A95E1F7C8010E940A0FF401E352FF4F26
:1037B000808191810E94F10E88E0F801D401A55525
:1037C000BF4F01900D928A95E1F782E090E0D4011D
:1037D00013969C938E9312975D968C9190E00E9425
:1037E000551280E090E00E941A1285E00E94E811D4
:1037F0000E94C90C6CC76401B6E2CB0ED11C88E0F4
:10380000F601840100531F4FD80101900D928A9553
:10381000E1F7C8010E940A0FF401E352FF4F8081D3
:1038200091810E94F10EF8018081811103C080E036
:1038300090E002C088E190E00E94C10E88E0F601AD
:10384000D401A555BF4F01900D928A95E1F760E034
:1038500070E0CB010E94941287E090E0D4011396AF
:103860009C938E93129760E070E0CB010E949412BB
:10387000F401858D90E00E94551280E090E00E9456
:103880001A1280E090E00E942F1681E0F40137C008
:103890008AE090E00E94DA08DC018C91843009F023
:1038A000A5C1D40119961C921E921897F401E75FE6
:1038B000FE4F1082F4018481958193838283158267
:1038C000148205C7DC0114968D919C9115979C017B
:1038D000277F22303105B9F4F401E75FFE4F4081C4
:1038E000442389F0F4013187208789E090E09383B5
:1038F000828380819181039709F0E9C681E0EB5DC5
:10390000FE4F8083E4C6D40113969C938E93129746
:1039100015961C921E921497DAC680E2F401EF57B6
:10392000FF4F8083F401E852FF4F90818181F401C1
:10393000EE57FF4F9083F401ED57FF4F8083F40162
:10394000E25BFF4F90818181F401EC57FF4F908340
:10395000F401EB57FF4F808381E4B40164597F4F3A
:10396000FB0180838CECF401E359FF4F80838CE1F1
:1039700090E0F401E652FF4F91838083F401E3521B
:10398000FF4F90818181F401E159FF4F9083F40151
:10399000E059FF4F8083F401E452FF4F808191E0B2
:1039A000980F90836401FEE6CF0ED11CD6018C9354
:1039B00084010E5F1E4F82E0F8018083F401ED5F09
:1039C000FE4F1082F401EC5FFE4F1082E6E06E2E97
:1039D000712CD40113967C926E921297FBE0AF2E5D
:1039E000B12C1796BC92AE92169740E050E08CE155
:1039F00090E00E94FD0C61E070E0C4010E94771924
:103A0000892B59F060E070E0CB010E94941287E0AE
:103A100090E0F40193838283DEC0F6018081F4019B
:103A2000EA5FFE4F8083D40113967C926E921297C8
:103A30001796BC92AE92169766C00E94AE18892B5C
:103A400009F045C6F401EB54FF4F1082F401EC5429
:103A5000FF4F108281E2F401ED54FF4F80838AE131
:103A600090E06401BAEDCB0ED11CF6019183808306
:103A700060E070E0C4010E948618F401ED5FFE4F23
:103A80001082F401E05BFF4F60817181882777FD30
:103A90008095982F0E949412F401EC5AFF4F808178
:103AA00091810E942F1640E050E0B40162567F4F92
:103AB000D6018D919C910E94FD0C82E084010E5FE5
:103AC0001E4FF801808360E070E0D6018D919C91DB
:103AD0000E949B0EF80180810E94E214F401E056DE
:103AE000FF4F8081F401EA5FFE4F808386E090E023
:103AF000D40113969C938E93129782E090E01796D0
:103B00009C938E93169781E090E019969C938E93E8
:103B10001897DDC552E0E52EFC01EC54FF4FE08222
:103B2000FC01E95FFE4F8081F401EB54FF4F80837D
:103B3000F401EA54FF4F108280E1F401ED54FF4F8D
:103B400080838BE190E06401BAEDCB0ED11CF601CD
:103B50009183808360E070E0C4010E948618F401C4
:103B6000ED5FFE4F108286E090E0D40113969C93A7
:103B70008E93129784E090E017969C938E931697FD
:103B8000F401E05BFF4F60817181882777FD8095AC
:103B9000982F0E94941284010E5F1E4FF801E0825C
:103BA00040E050E0B40162567F4FD6018D919C9168
:103BB0000E94FD0C61E070E0C4010E947719892B1E
:103BC00069F087E090E0F4019383828360E070E025
:103BD000CB010E949412D8011C9279C5F401E056E1
:103BE000FF4F8081F401EA5FFE4F808381E090E027
:103BF000F4016BC585E0F401E751FF4FD401AC54EB
:103C0000BF4F01900D928A95E1F785E0F401EF50E6
:103C1000FF4FD401A754BF4F01900D928A95E1F751
:103C2000D4015B964D915C915C97F401E45AFF4F8F
:103C300011811E7FC280D380E4809A0140E050E071
:103C400060E070E080E090E0A12CB12EF12C00E06B
:103C500010E00E946D2E29833A834B835C836D8331
:103C60001E821F82188685E0FE013196D401A2547F
:103C7000BF4F01900D928A95E1F789E2F401ED546E
:103C8000FF4F80836401BAEDCB0ED11C87E290E038
:103C9000F6019183808360E070E0C4010E94861881
:103CA000F401ED5FFE4F10828401085F1E4FD801C2
:103CB0008C91882351F082E0F401EE5FFE4F808307
:103CC00060E070E0CB010E94941240E050E0B4014B
:103CD00062567F4FF601808191810E94FD0C61E068
:103CE00070E0C4010E947719892B71F081E090E0A7
:103CF000D40113969C938E93129782E090E01596D0
:103D00009C938E931497CDC0F401E056FF4F8081B1
:103D1000F401EA5FFE4F808386E090E0F401938334
:103D2000828383E090E09783868381E090E09187AF
:103D30008087D8018C91882309F4C9C480E090E081
:103D40000E942F1682E090E053CF3C01FBEF6F1AE8
:103D5000FEEF7F0AD3018C91840100561F4F811121
:103D60000CC085E0F401EE5EFE4FD401AC54BF4FB1
:103D700001900D928A95E1F704C0F801808181508D
:103D800080838AE2F401ED54FF4F80838DE190E05F
:103D90005401FAEDAF0EB11CD5018D939C9361E0F7
:103DA00070E0C4010E94861842E0E42E6401BEEF78
:103DB000CB1ADB0AF601E08281E0F401ED5FFE4FF1
:103DC000808340E050E0B40162567F4FD5018D9171
:103DD0009C910E94FD0C60E070E0CB010E94941267
:103DE000F601E08260E070E0D5018D919C910E9427
:103DF0009B0EF60180810E94E214D8018C91F4019F
:103E0000EA5FFE4F808386E090E0F4019383828333
:103E100085E090E097838683D3018C918F5F8C93AC
:103E200082E090E052C48BE090E00E94DA08FC014E
:103E30008081813081F0843029F481E0D401A05F59
:103E4000BE4F8C938081853009F0D0CEF401EE5FB7
:103E5000FE4F1082CBCED40119961C921E92189759
:103E600016968D919C911797039779F4A85FBE4F92
:103E70008C9181110AC081E090E0F40193838283E8
:103E800082E090E09583848322C48401005F1E4F0A
:103E9000D8018C91882351F0C4010E94C005F8011B
:103EA0001082F401EE5FFE4F108211C474816581AF
:103EB000568147813085218592858385F401E751BC
:103EC000FF4F7083618352834383348325839683BA
:103ED000878387E090E0D40113969C938E9312978A
:103EE000A12CB12CF401EE5FFE4F8081811105C041
:103EF00080E090E00E94D01501C01082F401808122
:103F00009181892B41F086819781059721F081E08D
:103F100090E09187808788E090E0D40113969C938D
:103F20008E931297A114B10409F4D1C3B5E0AB1676
:103F3000B10431F18CF4F2E0AF16B10469F114E090
:103F4000A116B10409F0BAC381E190E00E94DA0839
:103F5000C4010E94C005BBC327E0A216B10409F446
:103F6000B6C388E0A816B10409F0A8C38DE090E0BC
:103F70000E94DA08D40119961C921E92189792C3D7
:103F80008EE090E00E94DA0887E090E0F4019383ED
:103F90008283118610869BC38FE090E00E94DA082E
:103FA0002C0188E03E01F1E26F0E711CD301E82F75
:103FB0001D92EA95E9F75E01F9E1AF0EB11CD5015A
:103FC0001D928A95E9F7F401E65FFE4F1082F20137
:103FD000EA5AFF4F80819181009761F0F201E85A1F
:103FE000FF4F608171810E942B1AF401E951FF4F4C
:103FF00091838083F20185898C38F1F1B8F4883897
:1040000009F04EC0838D948D9AA389A388E0F201B4
:104010007996D50101900D928A95E1F7F201858D8F
:1040200090E06201FDE1CF0ED11C3CC0883CD9F08C
:104030008C3CB1F588E0F201B196D30101900D926C
:104040008A95E1F788E0F2017996D50101900D9209
:104050008A95E1F7D20199968C9190E06201B9E2DC
:10406000CB0ED11C1FC088E0F2017B96D3010190DA
:104070000D928A95E1F704C081A192A19AA389A328
:1040800088E0F2017996D50101900D928A95E1F7C9
:10409000F20183A190E06201F3E2CF0ED11C02C0D5
:1040A00080E090E0F401ED5FFE4F2081222351F08B
:1040B000D401AC5FBE4F2C91222321F0C4010E9499
:1040C000C005E4C210828132910509F44EC03CF46F
:1040D0008031910509F49FC0809749F0C3C28932AD
:1040E000910509F45FC18A9709F409C1BBC2D401E3
:1040F0008D919C911197039709F0C0C201E010E0E7
:1041000013961C930E93129782E090E015969C9361
:104110008E931497F6012181828190E0982F882751
:10412000820F911DF401E852FF4F91838083D601E5
:1041300013962C91139714968C9190E0982F8827C2
:1041400060E070E0820F911D0E947C1A88E0F3010C
:10415000D401AD55BF4F01900D928A95E1F7F4015E
:1041600011830083E75FFE4F75C2998DF401E05320
:10417000FF4F808198130EC19A8DF401EF52FF4FCB
:104180008081981307C1F2012481358146815781CE
:104190006085718582859385F401E750FF4F208308
:1041A0003183428353836483758386839783F401C9
:1041B000EA5BFF4FA080B180C280D380E480F580AD
:1041C000068117810E946D2E3E7FF401E45AFF4F55
:1041D000108231834283538364831582168217824F
:1041E00084E090E0D40113969C938E931297F4018F
:1041F000EB5DFE4F10820E941105B301C4010E94C5
:10420000DD0488E0F301D401AD55BF4F01900D925C
:104210008A95E1F733C2998DF401E053FF4F808115
:104220009813B8C09A8DF401EF52FF4F8081981314
:10423000B1C0F6018281F401E85FFE4F8083D201B4
:1042400014962C91149715963C91159716964C91AF
:10425000169717965C91179718966C911897199660
:104260007C9119971A968C911A971B969C91F40140
:10427000EF50FF4F208331834283538364837583E0
:1042800086839783F401EA5BFF4FA080B180C280F0
:10429000D380E480F580068117810E946D2E3E7FD9
:1042A000F401E45AFF4F10823183428353836483C5
:1042B00015821682178283E090E0F4019383828353
:1042C00088E0F301D401A152BF4F01900D928A956D
:1042D000E1F762E070E080E190E00E94B80DF40147
:1042E000ED5DFE4FA4E096958795AA95E1F7918341
:1042F000808382E0F401EB5DFE4F8083BFC1F60155
:10430000319685E0D401AE5EBE4F01900D928A9544
:10431000E1F7D4018D919C918401065E1E4F0197B7
:1043200031F4F2019689D8018C91981731F1C401CA
:104330000E94590481E090E0F401E35EFE4F918316
:104340008083F2018689D8018C938AA190E0982F0E
:10435000882729A1820F911DF401E15EFE4F918310
:1043600080838A8D90E0982F8827298D820F911D58
:10437000F401EF5DFE4F91838083F4018081918190
:104380008130910539F49383828382E090E09583B4
:10439000848374C187E090E0D40113969C938E933C
:1043A00012976CC1198A1A8A1B8A1C8A1D8A1E8A56
:1043B0001F8A188E19861A861B861C861D861E86E5
:1043C0001F86188A19821A821B821C821D821E82F5
:1043D0001F821886F401E053FF4FFAA7E9A7998DD1
:1043E000808198130BC0C4018F529F4F9CA78BA74D
:1043F0009A8DABA5BCA58C91981731F087E090E021
:10440000F401938382833AC1D20114962C911497BC
:1044100015963C91159716964C91169717965C91A8
:10442000179718966C91189719967C9119971A9668
:104430008C911A971B969C91F401E45AFF4F1082BD
:104440001182128213821482158216821782F6015B
:10445000319615E0DE01199601900D921A95E1F75B
:10446000F601369615E0DE01119601900D921A952F
:10447000E1F7F6013B9615E0DE01519601900D92B1
:104480001A95E1F76980FA81EB813C802D80BE812D
:10449000BDA7AF81AEA7B885BFA7D401A751BF4FB5
:1044A0001C911AAB11961C9111971BAB12961C9183
:1044B00012971CAB13961C9113971DAB14961C916D
:1044C00014971EAB15961C9115971FAB16961C9151
:1044D000169718AF17961C9119AFAAA8BBA8CCA81D
:1044E000DDA8EEA8FFA808AD0E94762E28AB39AB58
:1044F000742EB52FA62F29893A894B895C896D893D
:104500007E898F89988DA62CBF2ECE2ED32CE22C9F
:10451000FDA40EA51FA50E94762E59016A01E62E64
:1045200028A939A9472D5B2F6A2F70E080E090E021
:10453000F12C00E010E00E94762E722EB32FA42FF3
:1045400058AB69AB262D3F2F4E2F532D622D7DA5E5
:104550008EA59FA5A984BA84CB84DC84ED84FE84D7
:104560000F8518890E94762E19014DA75EA7662E29
:104570002AA93BA94CA95DA96EA97FA988AD99ADCF
:10458000F401E750FF4FA080B180C280D380E48067
:10459000F580068117810E94762E59016A01E62E68
:1045A00091014DA55EA5662D70E080E090E0F12CB4
:1045B00000E010E00E94762E59016A01E62E272DB8
:1045C0003B2F4A2F58A969A970E080E090E00E9433
:1045D0006D2EF401EE5EFE4F2083318342835383C0
:1045E0006483158216821782C4010E94590481E0F7
:1045F00090E0F401E35EFE4F918380838AA190E016
:10460000982F882729A1820F911DF401EF5DFE4F9D
:1046100091838083ABA5BCA58C9190E0982F8827CF
:10462000E9A5FAA52081820F911DF401E15EFE4FFC
:1046300091838083F401E95FFE4F8081813061F4D2
:1046400085E090E0D40113969C938E931297F40129
:10465000EB5FFE4F108212C087E090E0F40193837D
:10466000828307C087E090E0D40113969C938E93D9
:10467000129760E070E0CB010E949412F2018489ED
:1046800085FF04C080E190E00E94DA08F401E75F52
:10469000FE4F808181111BC0D4018D919C91119797
:1046A000892BA9F487E090E013969C938E93129740
:1046B00060E070E0CB010E94941209C0F401808593
:1046C0009185892B21F481E090E091878087D40146
:1046D00018968D919C911997E996E2E10C94152E0C
:1046E0006CE170E00E947C1A089524E2FC01A5E4CC
:1046F000B2E001900D922A95E1F720916702209394
:104700002E0328E0FC017096A7EFB2E001900D9215
:104710002A95E1F70895E7EFF2E0208131814281A7
:1047200053816481758186819781089580914603C4
:10473000909147030895809148039091490308950B
:10474000E6E0F3E02081318142815381648175810B
:1047500086819781089580910E0390910F030895AB
:104760008091290290912A0208958EBD0DB407FE12
:10477000FDCF8EB50895AF92BF92DF92EF92FF9278
:104780000F931F93CF93DF9300D000D01F92CDB72C
:10479000DEB77C01D62E60E089E02A833B834C8320
:1047A0005D8379830E94612B2A813B814C815D81ED
:1047B0007981E114F104A1F0AD2CB72EEA0CFB1CB9
:1047C000F50181915F012A833B834C835D830E94C5
:1047D000B5232A813B814C815D81AE14BF0481F7F2
:1047E0002115310541055105D1F0780100E010E0B7
:1047F000F70181917F012A833B834C835D830E9473
:10480000B5230F5F1F4FC801A0E0B0E02A813B81B4
:104810004C815D8182179307A407B50748F361E0D7
:1048200089E00E94612B80E090E00F900F900F9044
:104830000F900F90DF91CF911F910F91FF90EF900C
:10484000DF90BF90AF900895AF92BF92DF92EF924A
:10485000FF920F931F93CF93DF9300D000D01F924E
:10486000CDB7DEB77C01D62E60E089E02A833B839A
:104870004C835D8379830E94612B2A813B814C812B
:104880005D817981E114F104A1F0AD2CB72EEA0C21
:10489000FB1CF50181915F012A833B834C835D837F
:1048A0000E94B5232A813B814C815D81AE14BF04F7
:1048B00081F72115310541055105D9F0780100E056
:1048C00010E080E02A833B834C835D830E94B52304
:1048D000F70181937F010F5F1F4FC801A0E0B0E097
:1048E0002A813B814C815D8182179307A407B5071C
:1048F00040F361E089E00E94612B80E090E00F903E
:104900000F900F900F900F90DF91CF911F910F910B
:10491000FF90EF90DF90BF90AF90089580E00E94ED
:10492000C12480E090E008950E94AA240E948E2471
:1049300080E090E0089586E00E94C12480E090E04D
:1049400008950E94642A0895F89481E090E0089503
:104950007894089561E08AE00E94612B61E08AE02A
:104960000E94282B8CB580618CBD8CB580648CBD79
:1049700061E08DE00E94282B61E08BE00E94282BF3
:1049800008952CB5982F93702C7F922B9CBD9DB5CC
:1049900082FB882780F99E7F982B9DBD0895FC019E
:1049A0007183608353834283168217821086118637
:1049B000089563FF02C088E201C088E06770682B39
:1049C00088E190E00FB6F894A895809360000FBE40
:1049D000609360008091600080648093600008951F
:1049E000A89508958F929F92AF92BF92CF92EF9227
:1049F0000F931F93CF93DF93EB0148015901BA0145
:104A0000CE010E94C9262E2D30E0B501A401CE01B1
:104A10000E949527CC2019F0CE010E94F426DF9148
:104A2000CF911F910F91EF90CF90BF90AF909F903B
:104A30008F900895FC01208131812E5F3F4F82814C
:104A400093816817790714F0C901089546E0469FDD
:104A5000C001479F900D1124820F931F0895A1E07C
:104A6000B0E0E5E3F5E20C94052E8B017A01041B1E
:104A7000150B215058F0C8018E0D9F1D29830E94EF
:104A80009F2EF70181937F012981F3CF2196E6E0E4
:104A90000C94212E0F931F93CF93DF938C01EB0186
:104AA000FC016081718122E0AE010E942F252881E6
:104AB0002F3F11F4188208C0F8018281938130E001
:104AC000821793070CF48883298130E0F8018281F2
:104AD0009381281739070CF01982DF91CF911F912C
:104AE0000F9108950F931F93CF93DF938C01EA01E9
:104AF0000E941A2526E0AE01BC01C8010E942F25A4
:104B00008881998198838983DF91CF911F910F913B
:104B10000895ADE0B0E0EFE8F5E20C94FE2D4C0115
:104B20005B01BE01655F7F4F4D870E944A254D8521
:104B3000442321F08B85882309F46DC060ED71E07A
:104B4000C5010E9408276CEB71E0C5010E9408278F
:104B50000B8510E020E030E0CC24C3944AE0E42E42
:104B60004CEA51E0B501C4010E94F2240C8510E02A
:104B700020E030E04EE951E0B501C4010E94F2248A
:104B8000712C8B85781608F046C0672D70E0AE0159
:104B90004F5F5F4FC4010E9472254AE050E0672DCD
:104BA000C5010E94A4271F82188619861A8689814A
:104BB0009A8198878F83CF80D884E984FA846CE8BF
:104BC00071E0C5010E94C92620E130E0B701A601CD
:104BD000C5010E9495276AE771E0C5010E94C926B8
:104BE000B701A601440F551F661F771F20E130E073
:104BF000C5010E9495270B811C812D813E81CC240B
:104C0000C39490E1E92E40E751E0B501C4010E9450
:104C1000F2247394B6CF2D96EDE00C941A2EA1E0F9
:104C2000B0E0E5E1F6E20C94052E7B018A01260F47
:104C30002E1561F0F80161918F01C70129830E944F
:104C4000A72EFFEFEF1AFF0A2981F2CF2196E6E0A7
:104C50000C94212EAB01FC016081718122E00E9445
:104C60000F260895CF93DF93EC010E941A25AE0121
:104C70004C5F5F4F26E0BC01CE010E940F26DF9102
:104C8000CF910895A2E0B0E0E8E4F6E20C94052E9E
:104C90008C017B01BE016F5F7F4F0E944A25F701A7
:104CA00080819181F801958384836A8170E0C801D5
:104CB0000E9432262A812F5F2A8330E0F801828108
:104CC00093812817390714F01A8203C089818F5FF6
:104CD0008983BE016F5F7F4FC8010E942A262BE0A7
:104CE00088E190E00FB6F894A895809360000FBE1D
:104CF00020936000FFCF6DB77EB76F5F7F4F80EC72
:104D000091E00E9442260E94C42A0E94AE02C5E899
:104D1000D8E20E946F032097E1F30E948528F9CF23
:104D2000A0E0B0E0E6E9F6E20C94032E6C017A0113
:104D3000EB01E60EF71E00E010E0CE15DF0561F096
:104D40006991D601ED91FC910190F081E02DC601B1
:104D50000995080F191FF1CFC801CDB7DEB7E8E0FC
:104D60000C941F2E6115710589F0DB010D90002058
:104D7000E9F7AD0141505109461B570BDC01ED919C
:104D8000FC910280F381E02D0995089580E090E088
:104D90000895EF92FF920F931F93CF93DF938C01AF
:104DA000FB01C0E0D0E064917F018FEFE81AF80AC0
:104DB000662361F0D801ED91FC910190F081E02D26
:104DC000C8010995C80FD91FF701EDCFCE01CDB7A6
:104DD000DEB7E6E00C94212EDC01ED91FC91019010
:104DE000F081E02D099508950F931F93CF93DF93E2
:104DF000EC016DE00E94EC268C016AE0CE010E947D
:104E0000EC26800F911FDF91CF911F910F91089594
:104E10000F931F93CF93DF93EC010E94C9268C015F
:104E2000CE010E94F426800F911FDF91CF911F9138
:104E30000F910895A1E2B0E0E0E2F7E20C94FF2DBB
:104E40007C01C42EE52FCB01D22E19A221E02D1515
:104E500010F02AE0D22E8E010F5D1F4F8D2C912C69
:104E6000A12CB12C6C2D7E2FA50194010E94BF2C8A
:104E70008C2DD29E80191124015011098A3014F40E
:104E8000805D01C0895CF8018083211531054105F1
:104E9000510521F0C22EE32FCA01E4CFB801C701AA
:104EA0000E94B226A196ECE00C941B2EA0E0B0E08C
:104EB000ECE5F7E20C94032EEC016A017B0121156D
:104EC000310541F4E881F9810190F081E02D642FF2
:104ED00009951DC02A303105A9F477FF12C06DE293
:104EE0000E94EC268C0144275527BA014C195D0914
:104EF0006E097F092AE0CE010E941A27800F911FB8
:104F000006C02AE0B701A601CE010E941A27CDB73C
:104F1000DEB7E8E00C941F2E9A01AB01662757FD1F
:104F20006095762F0E94562708952115310549F482
:104F3000DC01ED91FC910190F081E02D642F099549
:104F400008950E941A2708959A01462F50E060E0C4
:104F500070E00E94952708959A01AB0160E070E02F
:104F60000E9495270895FC0124853585F901E05CB0
:104F7000FF4F80819181F901EE5BFF4F20813181EC
:104F8000821B930B8F7399270895FC018485958567
:104F9000FC01E05CFF4F40815181FC01EE5BFF4F63
:104FA000208131814217530741F00190F081E02DBB
:104FB000E80FF91F808190E008958FEF9FEF08952B
:104FC000FC0184859585FC01E05CFF4F40815181A7
:104FD000FC01EE5BFF4F208131814217530779F0CE
:104FE000A081B181A80FB91F8C91208131812F5FE1
:104FF0003F4F2F7333273183208390E008958FEF45
:105000009FEF0895FC0181A1882329F0A489B58927
:105010008C9186FFFBCF11A20895CF93DF93FC0103
:1050200026853785D901A05CBF4F8D919C91119742
:1050300001968F739927E901CE5BDF4F4881598133
:1050400084179507D9F30D90BC91A02DA20FB31F23
:105050006C93A685B785A05CBF4F11969C938E93E9
:10506000A689B7892C9181E090E0078C02C0880F57
:10507000991F0A94E2F7282B2C9381E081A30488DE
:10508000F589E02D80818064808381E090E0DF916C
:10509000CF91089508951F920F920FB60F92112489
:1050A0002F933F934F938F939F93EF93FF93809111
:1050B000C00082FD1CC04091C600809139069091CD
:1050C0003A0601968F73992720913B0630913C0652
:1050D0008217930771F0E0913906F0913A06E75094
:1050E000FA4F408390933A068093390602C080912C
:1050F000C600FF91EF919F918F914F913F912F911A
:105100000F900FBE0F901F90189583E995E00E94B5
:10511000B327892B11F00E944A2808951F920F92FD
:105120000FB60F9211242F933F938F939F93EF937A
:10513000FF932091F5053091F6058091F705909148
:10514000F8052817390731F48091C1008F7D8093CD
:10515000C10014C0E091F705F091F805EB54FA4F47
:1051600020818091F7059091F80501968F7399271A
:105170009093F8058093F7052093C600FF91EF9177
:105180009F918F913F912F910F900FBE0F901F9085
:105190001895CF92DF92EF92FF92CF93DF93EC01BD
:1051A0006A017B01411581EE580761057105F9F02F
:1051B000EC89FD8981E090E008A002C0880F991F6A
:1051C0000A94E2F7808360E079E08DE390E0A70144
:1051D00096010E94BF2C2150310941095109569571
:1051E000479537952795211580E1380798F0EC8988
:1051F000FD89108260E874E88EE190E0A7019601D5
:105200000E94BF2C215031094109510956954795FB
:1052100037952795E889F9893083EA89FB892083C6
:1052200019A2EE89FF89408181E090E09C010C8CFD
:1052300002C0220F331F0A94E2F7422B4083EE890B
:10524000FF8940819C010D8C02C0220F331F0A94FC
:10525000E2F7422B4083EE89FF8940819C010E8C4E
:1052600002C0220F331F0A94E2F7422B4083EE89DB
:10527000FF8920810F8C02C0880F991F0A94E2F7E2
:10528000809582238083DF91CF91FF90EF90DF9014
:10529000CF900895109296051092950588EE93E0B0
:1052A000A0E0B0E08093970590939805A0939905AE
:1052B000B0939A058DEA91E09093940580939305BD
:1052C00089EF95E09093A00580939F0585EB95E08D
:1052D0009093A2058093A10585EC90E09093A4059E
:1052E0008093A30584EC90E09093A6058093A50598
:1052F00080EC90E09093A8058093A70581EC90E066
:105300009093AA058093A90582EC90E09093AC0558
:105310008093AB0586EC90E09093AE058093AD054D
:1053200084E08093AF0583E08093B00587E08093AD
:10533000B10585E08093B20581E08093B3050895BF
:105340008230E8F4E82FF0E0EE0FFF1FE35CF94F46
:1053500071836083813041F0809169008C7F842B60
:1053600080936900E89A089580916900440F551F61
:10537000440F551F837F842B80936900E99A089519
:105380001F920F920FB60F9211242F933F934F93BA
:105390005F936F937F938F939F93AF93BF93EF939D
:1053A000FF9380913D0690913E06892B29F0E09174
:1053B0003D06F0913E060995FF91EF91BF91AF91A7
:1053C0009F918F917F916F915F914F913F912F911D
:1053D0000F900FBE0F901F9018951F920F920FB64F
:1053E0000F9211242F933F934F935F936F937F936B
:1053F0008F939F93AF93BF93EF93FF9380913F065B
:1054000090914006892B29F0E0913F06F0914006EB
:105410000995FF91EF91BF91AF919F918F917F91EE
:105420006F915F914F913F912F910F900FBE0F9011
:105430001F9018951F920F920FB60F9211242F9361
:105440003F938F939F93AF93BF9380914206909128
:105450004306A0914406B09145063091410623E0F1
:10546000230F2D3720F40196A11DB11D05C026E89C
:10547000230F0296A11DB11D209341068093420681
:1054800090934306A0934406B09345068091460648
:1054900090914706A0914806B09149060196A11D3A
:1054A000B11D8093460690934706A0934806B0939B
:1054B0004906BF91AF919F918F913F912F910F908E
:1054C0000FBE0F901F9018952FB7F8946091420669
:1054D0007091430680914406909145062FBF089530
:1054E0003FB7F8948091460690914706A0914806F0
:1054F000B091490626B5A89B05C02F3F19F001962B
:10550000A11DB11D3FBF6627782F892F9A2F620FEB
:10551000711D811D911D42E0660F771F881F991F25
:105520004A95D1F70895CF92DF92EF92FF92CF93F1
:10553000DF936B017C010E94702AEB01C114D1043E
:10554000E104F10479F00E94702A6C1B7D0B683E27
:105550007340A0F381E0C81AD108E108F108C851EE
:10556000DC4FECCFDF91CF91FF90EF90DF90CF90A9
:1055700008950197009739F0880F991F880F991F98
:1055800002970197F1F70895789484B5826084BDFD
:1055900084B5816084BD85B5826085BD85B5816037
:1055A00085BDEEE6F0E0808181608083E1E8F0E097
:1055B0001082808182608083808181608083E0E8C6
:1055C000F0E0808181608083E1EBF0E080818460A5
:1055D0008083E0EBF0E0808181608083EAE7F0E0A7
:1055E000808184608083808182608083808181600B
:1055F00080838081806880831092C1000895833009
:1056000081F028F4813099F08230A1F0089586303D
:10561000A9F08730B9F08430D1F4809180008F7D7B
:1056200003C0809180008F7780938000089584B5B7
:105630008F7702C084B58F7D84BD08958091B000BE
:105640008F7703C08091B0008F7D8093B000089564
:10565000CF93DF9390E0FC01E850FE4F2491FC01D2
:10566000E45FFD4F8491882349F190E0880F991FF2
:10567000FC01E65DFD4FA591B491805E9D4FFC015C
:10568000C591D4919FB7611108C0F8948C91209571
:1056900082238C93888182230AC0623051F4F8946B
:1056A0008C91322F309583238C938881822B888331
:1056B00004C0F8948C91822B8C939FBFDF91CF9183
:1056C0000895A1E0B0E0E7E6FBE20C94072E282F56
:1056D00030E0F901EC51FE4F8491F901E850FE4FA2
:1056E0001491F901E45FFD4F04910023C9F0882370
:1056F00021F069830E94FF2A6981E02FF0E0EE0F1C
:10570000FF1FE05EFD4FA591B4919FB7F8948C9177
:10571000611103C01095812301C0812B8C939FBF21
:105720002196E4E00C94232E8093020108958E309C
:1057300008F08E5087702091020190E4299F90011B
:105740001124822B80937C0080917A008064809366
:105750007A0080917A0086FDFCCF809178002091BC
:10576000790090E0922B0895E89409C097FB3EF4ED
:1057700090958095709561957F4F8F4F9F4F99239E
:10578000A9F0F92F96E9BB279395F695879577951C
:105790006795B795F111F8CFFAF4BB0F11F460FFDC
:1057A0001BC06F5F7F4F8F4F9F4F16C0882311F034
:1057B00096E911C0772321F09EE8872F762F05C048
:1057C000662371F096E8862F70E060E02AF09A95E3
:1057D000660F771F881FDAF7880F9695879597F9D8
:1057E000089597F99F6780E870E060E008959FEF63
:1057F00080EC089500240A94161617061806090668
:10580000089500240A941216130614060506089536
:10581000092E0394000C11F4882352F0BB0F40F4BE
:10582000BF2B11F460FF04C06F5F7F4F8F4F9F4FFE
:10583000089557FD9058440F551F59F05F3F71F080
:105840004795880F97FB991F61F09F3F79F08795E7
:105850000895121613061406551FF2CF4695F1DF70
:1058600008C0161617061806991FF1CF8695710500
:10587000610508940895E894BB2766277727CB0134
:1058800097F908950BD0C4CFB5DF28F0BADF18F030
:10589000952309F0A6CFABCF1124EECFCADFA0F33A
:1058A000959FD1F3950F50E0551F629FF001729FB5
:1058B000BB27F00DB11D639FAA27F00DB11DAA1FD4
:1058C000649F6627B00DA11D661F829F2227B00D21
:1058D000A11D621F739FB00DA11D621F839FA00DAC
:1058E000611D221F749F3327A00D611D231F849FFC
:1058F000600D211D822F762F6A2F11249F57504053
:105900008AF0E1F088234AF0EE0FFF1FBB1F661FED
:10591000771F881F91505040A9F79E3F510570F0A6
:1059200060CFAACF5F3FECF3983EDCF38695779586
:105930006795B795F795E7959F5FC1F7FE2B880FA1
:10594000911D9695879597F90895A29FB001B39FF1
:10595000C001A39F700D811D1124911DB29F700D78
:10596000811D1124911D08950E94A52CA59F900DC5
:10597000B49F900DA49F800D911D11240895A1E264
:105980001A2EAA1BBB1BFD010DC0AA1FBB1FEE1FB9
:10599000FF1FA217B307E407F50720F0A21BB30B04
:1059A000E40BF50B661F771F881F991F1A9469F780
:1059B00060957095809590959B01AC01BD01CF01DC
:1059C0000895052E97FB1EF400940E94E12D57FDCB
:1059D00007D00E94BF2C07FC03D04EF40C94E12D9D
:1059E00050954095309521953F4F4F4F5F4F08950B
:1059F000689401C0E894F92FF12B12F00C942C2D2F
:105A0000A0E0B0E0E6E0FDE20C94FF2D092E059445
:105A100022F40E94E92D112392F4F0E80F26FFEF03
:105A2000E094F09400951095B094C094D094A19413
:105A3000BF0ACF0ADF0AEF0AFF0A0F0B1F0B0E94F3
:105A4000902D07FC0E94E92DCDB7DEB7ECE00C9459
:105A50001B2E689401C0E8948F929F92CF93DF939E
:105A60000E94902DDF91CF919F908F900895DF93AA
:105A7000CF931F930F939A9DF02D219FF00D8B9D37
:105A8000F00D8A9DE02DF10D039FF00D029FE00DBA
:105A9000F11D4E9DE00DF11D5E9DF00D4F9DF00D31
:105AA0007F936F93BF92AF925F934F93D5010E9404
:105AB000A52C8B01AC01D7010E94A52CEB01E80FAE
:105AC000F91FD6010E94872D2F913F91D6010E9488
:105AD000A52CC60FD71FE81FF91FAF91BF910E94D9
