:100000000C944C010C945A300C9487300C9474016D
:100010000C9474010C9474010C94382C0C9474019D
:100020000C9474010C9474010C9474010C9474017C
:100030000C9474010C9474010C9474010C9474016C
:100040000C94B4300C9474010C94EB2E0C942E2F61
:100050000C9474010C9474010C9474010C9474014C
:100060000C9474010C947401CD15A615D215AA1523
:10007000AA15AA15AA15D715DF15AA15AA15E615EA
:10008000EA15C815051EAD1E681F4520D51FF020B6
:100090005E21BD21E121931EB225D81E006D6D00A9
:1000A00020002D3E5400410064626D002050006D20
:1000B0006D0020004100536574757020646F6E659B
:1000C000002000616464723A2000416E63686F72C0
:1000D0002000546167200044574D204F6B00436F50
:1000E000756C64206E6F7420696E697420445720AB
:1000F00052616E67696E67004D50552D393235304B
:10010000204D6167206661696C2C2077686F2049FB
:1001100020616D3A004D50552D39323530204D61FA
:1001200067204F6B004D50552D39323530204163DB
:1001300063206661696C2C2077686F20616D2049AF
:100140003A004D50552D3932353020416363204FF0
:100150006B004C50534D696E692076312E30205320
:100160006574757000000099599959EB518F421EC2
:1001700045142EFF7FEB51F5283333E13A703DE112
:100180003AC235852BC2353333C235C235AE47E16D
:100190003A5138A33051386B003B31BE003B335EDF
:1001A000013B3596023B372D001A3152001A339A23
:1001B000001A351D011A37405C0000A05C0400C025
:1001C0006C0800805C0400E03F1E00E07D1E002CF7
:1001D00020646174613D3078003A20627974652D45
:1001E000616464726573733D3078003A20776F7292
:1001F000642D616464726573733D3078004E657878
:1002000074207265706F72743A2000536176656471
:10021000207265706F7274733A20002D2D2D2D2D74
:100220002D2D2D2D2D2D2D2D2D2D2D2D2D2D004117
:1002300070706C69636174696F6E204D6F6E697464
:100240006F720000000007000201000003040600B6
:10025000000000000000000102040810204080019E
:1002600002040810200102040810200404040404FD
:100270000404040202020202020303030303030054
:10028000000000250028002B0000000000240027AB
:10029000002A0000DE02E42F11241FBECFEFD8E0B9
:1002A000DEBFCDBF11E0A0E0B1E0E4E7FDE602C0B3
:1002B00005900D92A83DB107D9F716E0A8EDB1E081
:1002C00001C01D92A839B107E1F712E0C8E9D2E0F8
:1002D00004C02297FE010E943536C439D107C9F700
:1002E0000E94402C0C94B8360C9400008BB10E94F4
:1002F00059195A99FCCF089561E084E00E94C331F6
:1003000060E084E00E94FC3161E070E080E090E019
:100310000E942D3161E084E00E94FC3162E084E0C3
:100320000E94C3310895ADE2B0E0E9E9F1E00C9438
:1003300008368C01F62E0E94DF260E94E6260E94D7
:100340007C010E949307603371408A4C9E4D21F0DE
:100350006FEF7FEFCB0168C00E94710D97FDF8CF62
:100360000E94D926C8010E946907C8010E94A21CE8
:1003700085E08DA383E0E82EEEA211E01FA302E04A
:100380000AA71BA781E294E09DA78CA718A688E086
:1003900089A7CE0185960E94960782E490E40E9488
:1003A000F30719831A821B821C821D820E839AEC2A
:1003B0009F838EED8887F98A1A8A1B8A1C8A1D8A78
:1003C0001E8B9F8B888FF9861A861B861C861D863E
:1003D0000E879F87888B80E490E09A8F898F81E0D9
:1003E00090E09CA38BA38FEF8B8FEC8E1D8E1E8EC7
:1003F0001F8E18A219A21AA2CE0101960E94C02532
:100400006CE271E08CE291E00E94EA078AE090E001
:100410000E94BB2560E070E08AE090E00E94C71C6B
:1004200060E371E08AEC9EEDAD96E6E00C94243634
:1004300060E082E00E94FC3160E082E00E94C33113
:1004400062E370E080E090E00E942D3143E050E0F4
:1004500066E771E080E00E943A300895883C23E02E
:10046000920708F042C0823623E0920708F03FC0AE
:100470008F3023E09207E8F58C3C22E09207D8F514
:10048000833922E09207C8F5833622E09207B8F557
:10049000893322E09207A8F5853122E0920798F58A
:1004A0008B3E21E0920788F5823D21E0920778F5A6
:1004B000893B21E0920768F5823A21E0920768F4CF
:1004C0008E3821E0920758F48B3721E0920748F4E8
:1004D0008936914040F08EE008958BE008958CE0DD
:1004E00008958DE008958FE0089580E0089581E0FB
:1004F000089582E0089583E0089584E0089585E0FA
:10050000089586E0089587E0089588E0089589E0D9
:1005100008958AE008950F931F93CF93DF9361E0CE
:1005200084E00E94C33160E084E00E94FC3181E0FD
:100530000E942F3261E083E00E94C33161E083E0DA
:100540000E94FC3160E084E10E94C33160E084E1FC
:100550000E94FC3160E085E10E94C33160E085E1EA
:100560000E94FC3162E370E080E090E00E942D3157
:1005700084E10E9432328C0185E10E943232EC012A
:10058000C8010E942E02182FCE010E942E02C82FF1
:1005900061E084E00E94FC3162E084E00E94C331AB
:1005A00060E083E00E94C33120E1C29FC0011124BA
:1005B000812BDF91CF911F910F91089561E086E12A
:1005C00092E00E94722766E172E087EF91E00E945C
:1005D00087274AE050E064EF71E08EED91E00E94E1
:1005E0008C2A0895A2E0B0E0E8EFF2E00C9408361F
:1005F000F62E042F182F110F612F86E192E0298328
:100600003A830E9440276F2D86E192E00E94622784
:10061000612F616086E192E00E941A272981E22E13
:100620003A81F32E11E0011760F061E0101360E0F1
:1006300086E192E00E943627F70181937F011F5FD8
:10064000F2CF86E192E00E9422272296E6E00C9407
:100650002436A1E0B0E0EFE2F3E00C940B36162F65
:10066000682F660F86E192E049830E944027612F40
:1006700086E192E00E9462274981642F86E192E040
:100680000E94622786E192E00E9422272196E3E001
:100690000C9427360F93CF93DF9300D01F92CDB7E2
:1006A000DEB7A89588E10FB6F894809360001092A9
:1006B00060000FBE40E052EC61E070E081EE95E03A
:1006C0000E94692F41E061EE75E08EED91E00E949D
:1006D000462B68E070E08EED91E00E94962A62E57C
:1006E00071E081EE95E00E94C82C42E867E389E65C
:1006F0000E9429031B829E012D5F3F4F41E065E769
:1007000089E60E94F2028B81813739F462E471E05C
:1007100081EE95E00E94C82C13C065E271E081EE85
:1007200095E00E94C82C40E150E06B8181EE95E09D
:100730000E946C2D68EE73E080E090E00E942D3105
:1007400048E16BE189E60E94290348E16CE189E612
:100750000E9429031A829E012E5F3F4F41E060E014
:100760008CE00E94F2028A81883439F465E171E0FC
:1007700081EE95E00E94C82C13C068EF70E081EE16
:1007800095E00E94C82C40E150E06A8181EE95E03E
:100790000E946C2D68EE73E080E090E00E942D31A5
:1007A00041E06AE08CE00E94290367E787EF91E06F
:1007B0000E94772A0E948B02282F332727FD30952D
:1007C0002227330F221F332742E050E0BA01621B79
:1007D000730B70930101609300018F778093E801A0
:1007E0000E94F52661E089E00E94C33161E089E062
:1007F0000E94FC316091E80180910001909101011B
:100800000E9493016F3F7F4F8F4F9F4F69F46EEDB2
:1008100070E081EE95E00E94C82C68EE73E080E005
:1008200090E00E942D31E6CF67ED70E081EE95E01B
:100830000E94C82C8091000190910101019719F448
:1008400062ED70E002C06AEC70E081EE95E00E941B
:10085000862C63EC70E081EE95E00E94862C0E946D
:10086000D62500E20E945436F22FE32F20E130E03B
:10087000CF01BA01492F582F81EE95E00E94552DE6
:100880000E94D625F22FE32F20E130E0CF01BA01FC
:10089000492F582F81EE95E00E94552D61EC70E0B4
:1008A00081EE95E00E94C82C0E94180266EB70E071
:1008B00081EE95E00E94C82C1982E091E105F0914B
:1008C000E2050280F381E02D41E050E0BE016F5F60
:1008D0007F4F81EE95E009950F900F900F90DF917B
:1008E000CF910F910895AFE0B0E0E9E7F4E00C9408
:1008F000FE350E94C80D0E946E07892B09F48BC03B
:100900008EED91E00E94AD2A1092DA011092DB0187
:100910001092DC011092DD018091000190910101A3
:10092000019709F041C00E94EB2529013A014B01D2
:100930005C010E9402086B017C010E94F6258C017B
:1009400064EB70E081EE95E00E94862CB301A20179
:100950006627772720E130E081EE95E00E94552D53
:1009600062EB70E081EE95E00E94862C2AE030E098
:10097000B701A60181EE95E00E94552D6FEA70E067
:1009800081EE95E00E94862C6CEA70E081EE95E0A5
:100990000E94862C4AE050E0B80181EE95E00E946A
:1009A0004C2D68EA70E032C00E9402084B015C01E5
:1009B00066EA70E081EE95E00E94862C0E94E125B7
:1009C00040E150E0BC0181EE95E00E94832D62EA97
:1009D00070E081EE95E00E94862C0E94E62540E1C1
:1009E00050E0BC0181EE95E00E94832D60EA70E04A
:1009F00081EE95E00E94862C2AE030E0B501A4014A
:100A000081EE95E00E94552D6DE970E081EE95E054
:100A10000E94C82C95C10E94FB252091D8013091DD
:100A2000D901A9014F5F5F4F5093D9014093D8017D
:100A30003770232B09F071C18930910551F0089767
:100A400009F06BC18091000190910101029709F0BA
:100A500064C18EED91E00E94AD2A9E012F5F3F4F51
:100A60004EE06BE389E60E94F2026B8170E0762F24
:100A700066278C81682BCC24DD24C61AD70AED802A
:100A8000F12CFE2CEE248E81E82A898590E0982FA7
:100A900088272A85822BAA24BB24A81AB90A8B8509
:100AA00090E0982F88272C85822B88249924881AF7
:100AB000990A0D8510E0102F00278E85082B89815B
:100AC00090E0982F88272A81822B66277727681B3A
:100AD000790B4AE050E081EE95E00E944C2D63E0F6
:100AE00071E081EE95E00E94A92C4AE050E0B60149
:100AF00081EE95E00E944C2D63E071E081EE95E07F
:100B00000E94A92C4AE050E0B70181EE95E00E94D6
:100B10004C2D63E071E081EE95E00E94A92C4AE043
:100B200050E0B50181EE95E00E944C2D63E071E04C
:100B300081EE95E00E94A92C4AE050E0B40181EEDC
:100B400095E00E944C2D63E071E081EE95E00E94FB
:100B5000A92C4AE050E0B80181EE95E00E944C2DAE
:100B600063E071E081EE95E00E94A92C9E01215F77
:100B70003F4F41E062E08CE00E94F2028F8580FFEF
:100B800034C09E012F5F3F4F47E063E08CE00E943E
:100B9000F2028C8190E0982F88272B81822B9195EF
:100BA000819591099093EE018093ED018A8190E007
:100BB000982F88272981822B91958195910990936F
:100BC000EC018093EB018E8190E0982F88272D8196
:100BD000822B9195819591099093EA018093E90187
:100BE00041E06AE08CE00E9429036091ED01709180
:100BF000EE0168537F4F4AE050E081EE95E00E949D
:100C00004C2D63E071E081EE95E00E94A92C60918B
:100C1000EB017091EC01665471094AE050E081EEFD
:100C200095E00E944C2D63E071E081EE95E00E941A
:100C3000A92C6091E9017091EA016C5B72404AE075
:100C400050E081EE95E00E944C2D63E071E081EE72
:100C500095E00E94A92C68E087EF91E00E94A62908
:100C6000C901DA010097A105B10541F08093F301B4
:100C70009093F401A093F501B093F6016091F30114
:100C80007091F4018091F5019091F6010E94533327
:100C900020E030E048EC52E40E94B832AB01BC01E5
:100CA00022E030E081EE95E00E94502E63E071E09A
:100CB00081EE95E00E94A92C68E087EF91E00E9408
:100CC000E428C901DA010097A105B10541F080933C
:100CD000EF019093F001A093F101B093F2016091C4
:100CE000EF017091F0018091F1019091F2010E9469
:100CF000533320E030E048EC52E40E94B832AB01BC
:100D0000BC0122E030E081EE95E00E94502E6CE9BB
:100D100070E081EE95E00E94C82C8091DA019091FC
:100D2000DB01A091DC01B091DD010196A11DB11D97
:100D30008093DA019093DB01A093DC01B093DD0195
:100D40002F96E0E10C941A36A0E0B0E0EAEAF6E073
:100D50000C940136FC01EE5EFE4F70808180928023
:100D6000D381C481B581A681E781272D382D492DF6
:100D70005D2F6C2F7B2F8A2F9E2F2F3FFFEF3F077A
:100D80004F075F07FFE76F0771058105910561F068
:100D90005CF0715081099109722E832E942ED52F0B
:100DA000C62FB72FA82FE92F272D382D492D5D2FBE
:100DB0006C2F7B2F8A2F9E2F05E00E943936A72C9F
:100DC000B82CC92CDD2EEC2EFB2E0A2F1E2F0E94D4
:100DD000793659016A017B01F82F192F06E00E942C
:100DE00039360F2F0E94793603E00E943936A72C3E
:100DF000B82CC92CDD2EEC2EFB2E0A2F1E2F0E94A4
:100E0000703606E00E943936EEE4AE2EF3E0BF2ED7
:100E1000ADE0CA2ED12CE12CF12C00E010E00E94B4
:100E2000C334C901DA0181302DE2920721E3A20720
:100E300021E0B20740F480936E0590936F05A09374
:100E40007005B0937105CDB7DEB7EDE00C941D369B
:100E5000A8E0B0E0EEE2F7E00C9404367C016B0110
:100E6000CE0101965C0188E0F50111928A95E9F7BF
:100E70008701065D1E4F48E050E0C8010E948E3693
:100E8000892BA1F048E050E0B501C8010E948E36E0
:100E9000892B61F488E0F601D80101900D928A95C2
:100EA000E1F7F701E95DFE4F81E0808380E090E0AB
:100EB0002896EAE00C94203688E0EFE9F3E0DF01C1
:100EC0001D928A95E9F710929C0381E080939B0321
:100ED000089590937602809375020895809192030D
:100EE00090919303009731F0109293031092920324
:100EF00081E090E00895CF93DF931092DD0210928D
:100F0000DE021092DF021092E002C1E5D3E0188207
:100F100081E090E00E94051918828FEF80938F0383
:100F2000DF91CF9108950E94FC0F0895FC0180810C
:100F300080937F02818180938402818180938302E8
:100F40008281809380022381209386028481809312
:100F5000810285818093820286818093850210922E
:100F600087028781908590938A028093890222303C
:100F700021F481E08093880202C0109288028FE7FA
:100F800092E00E94FA1180EC80938B02809188029B
:100F9000813069F44FE158E268E07EE040938C02D2
:100FA00050938D0260938E0270938F020BC04FE1BD
:100FB0005FE1BA0140938C0250938D0260938E02E0
:100FC00070938F0290E00E9410148BE892E00E94D0
:100FD000C71008959093B8028093B7027093BA0235
:100FE0006093B9020895CF93DF93C0E9D2E099836B
:100FF00088830E949810888199810E94A410DF91B3
:10100000CF91089560916E0570916F058091700584
:10101000909171050895CF93DF93EC01FC01E8599D
:10102000FF4F40815181628173814F5F5F4F6F4FEE
:101030007F4F40835183628373831986188688812A
:10104000998182309105C1F4FE01EB5FFE4F8081F2
:101050008150823028F485E090E09B838A8316C01B
:1010600087E090E09B838A8380E090E00E947A187A
:10107000CD5FDE4F18820AC021E030E03B832A8337
:10108000019721F482E090E09D838C830E94D51724
:10109000DF91CF910895E0916B058AE5E89FF0011B
:1010A0001124E955FC4F808190E00895A0E0B0E064
:1010B000ECE5F8E00C940C368AE5FE013596AFE0DD
:1010C000B5E001900D928A95E1F7E2E00C942836A4
:1010D0002AE5EFE0F5E0DC0101900D922A95E1F7B9
:1010E0000895A0E0B0E0E7E7F8E00C940C364D81FD
:1010F00020916A051D823AE5329FC0011124DC016E
:10110000A955BC4FFE01359601900D923A95E1F735
:10111000FC01E955FC4F40832F5F243019F02093E8
:101120006A0502C010926A05E2E00C942836A9EB29
:10113000B0E0EDE9F8E00C94FC357E0125EBE20E21
:10114000F11C25E0F70111922A95E9F7FC011081C5
:1011500080917603882309F110927603CE010196DF
:101160000E9468088DB79EB78A5591090FB6F8940A
:101170009EBF0FBE8DBFADB7BEB711968AE5FE010B
:10118000319601900D928A95E1F70E9471080FB691
:10119000F894DEBF0FBECDBF8FC0113009F089C0FB
:1011A000C7010E949C0FF7014180512C612C712CCA
:1011B000762C652C542C4424828190E0A0E0B0E091
:1011C000DC0199278827480E591E6A1E7B1E8081E4
:1011D000480E511C611C711C438150E060E070E0BE
:1011E000742F662755274427440E551E661E771E0A
:1011F0002481BB27A72D962D852D422F50E060E03E
:1012000070E0742F662755274427840F951FA61F6B
:10121000B71FAF968CAF9DAFAEAFBFAFAF97109279
:101220007F036F961FAE1EAE6F976D961FAF6D97C3
:101230006C961FAF6C975301420130E040E050E0E4
:1012400060E070E080E090E000E20E943936190131
:10125000B42FA52FF62FE72F8C019201A50160E096
:1012600070E080E090E05101CB2EDA2EEF2EFE2EC2
:101270000E947036A0962FAFA097A1963FAFA1977E
:10128000A2964FAFA297A3965FAFA397A4966FAF16
:10129000A497A5967FAFA597A6968FAFA697A7967A
:1012A0009FAFA797AB964CAE5DAE6EAE7FAEAB97E1
:1012B0002CC0163009F044C06F961FAE1EAE6F975B
:1012C00086E06D968FAF6D976C968FAF6C97A096FA
:1012D0001FAEA097A1961FAEA197A2961FAEA29790
:1012E000A3961FAEA397A4961FAEA497A5961FAE74
:1012F000A597A6961FAEA697A7961FAEA797AB96E3
:101300001CAE1DAE1EAE1FAEAB978DB79EB78A55F5
:1013100091090FB6F8949EBF0FBE8DBFADB7BEB793
:1013200011968AE5FE01E55AFF4F01900D928A95CC
:10133000E1F70E9471080FB6F894DEBF0FBECDBF73
:10134000C754DF4FE2E10C941836A9E7B0E0EBEAAE
:10135000F9E00C94FD354C018E0103591F4F85E0D7
:10136000D8011D928A95E9F7CE01855A9F4F0E94B8
:101370002610A9968EAD9FADA99769969FAF8EAFA7
:101380006997A7968EAD9FADA7976B969FAF8EAFCF
:101390006B97F4018081823009F007C181818093CD
:1013A0007603828193819C838B8324812134A9F0ED
:1013B00018F4223069F0B8C0213679F0253C09F0E4
:1013C000B3C08C30910571F0429709F0ADC00AC0EE
:1013D000059759F465E0362E0AC08334910508F06C
:1013E000A3C003C077E0372E02C0F2E03F2EC80151
:1013F0000E94AC0FD80111964C901197512C612C82
:10140000712C762C652C542C442412968C9190E0EF
:10141000A0E0B0E0DC0199278827480E591E6A1E1B
:101420007B1EF8018081480E511C611C711C438198
:1014300050E060E070E0742F662755274427440E83
:10144000551E661E771E4D865E866F86788AE481FD
:10145000A301920160E070E0CB01E3964FAEE39709
:10146000E4963FAFE497E5964FAFE597E6965FAF1A
:10147000E697E7966FAFE797E8967FAFE897E9962C
:101480008FAFE997EA969FAFEA972E2F30E040E0C2
:1014900050E060E070E080E090E000E20E943936C9
:1014A00059016A017B018C01E3962FADE397E49625
:1014B0003FADE497E5964FADE597E6965FADE697CD
:1014C00060E070E080E090E00E9470362D833E8303
:1014D0004F83588769877A878B879C87452C562C42
:1014E000672C77248E2F90E0A0E0B0E0B82FAA27D9
:1014F00099278827480E591E6A1E7B1E498A5A8AD8
:101500006B8A7C8AD40112966D917C91139740E08E
:1015100050E0CE0145960E948E0F0E949217892BB3
:1015200029F0A3E03A2E02C0B3E63B2E39823A827C
:10153000B2E03B1223C081E080937F038091760369
:10154000882309F463C04DB75EB74A5551090FB6F9
:10155000F8945EBF0FBE4DBFADB7BEB711968AE51A
:10156000FE01319601900D928A95E1F70E9456088E
:101570000FB6F894DEBF0FBECDBF62C0832D8D7F46
:10158000853009F443C073E637125AC0E12CF12CC0
:1015900000E010E020E030E040E050E060E070E08B
:1015A00085E792E00E94A61B4BC08430F1F489834A
:1015B0008A831C821B821D821E821F8218861986C6
:1015C0001A861B861C861D861E861F86188A198A07
:1015D0001A8A1B8A1C8A8DB79EB78A5591090FB645
:1015E000F8949EBF0FBE8DBF1AC0809192028111E8
:1015F00027C080917502909176028D7F019731F618
:1016000084E0898384E48A831C821B82EDB7FEB761
:10161000EA55F1090FB6F894FEBF0FBEEDBFADB7A6
:10162000BEB711968AE5FE01319601900D928A951A
:10163000E1F70E9471080FB6F894DEBF0FBECDBF70
:10164000C758DF4FE1E10C941936A6E0B0E0EBE2B9
:10165000FBE00C940C369E838D831A82198249819B
:101660005A8129EF32E0429FC001439F900D529F63
:10167000900D112487599A4FFC018081882F90E0AA
:101680009C838B838B819C8169817A814AE5489F09
:101690009001499F300D112449EF52E0649FC00131
:1016A000659F900D749F900D1124820F931F895593
:1016B0009C4FFC018081882339F41092190210920A
:1016C0001A0289E192E0A2C18B819C8169817A81B1
:1016D0004AE5489F9001499F300D112449EF52E09F
:1016E000649FC001659F900D749F900D1124820F1F
:1016F000931F88559C4FFC01808180931A028B8137
:101700009C8169817A814AE5489F9001499F300D0B
:10171000112449EF52E0649FC001659F900D749FB2
:10172000900D1124820F931F87559C4FFC018081DF
:10173000918190931C0280931B028B819C81698113
:101740007A814AE5489F9001499F300D112449EF65
:1017500052E0649FC001659F900D749F900D11240D
:10176000820F931FFC01E555FC4F2081318142819E
:101770005381648175818681978120931D02309306
:101780001E0240931F025093200260932102709327
:10179000220280932302909324028B819C81698191
:1017A0007A814AE5489F9001499F300D112449EF05
:1017B00052E0649FC001659F900D749F900D1124AD
:1017C000820F931F8D549C4FFC0180819181A281D7
:1017D000B3818093250290932602A0932702B093B1
:1017E00028028B819C8169817A814AE5489F90011A
:1017F000499F300D112449EF52E0649FC001659F5D
:10180000900D749F900D1124820F931F89549C4F4B
:10181000FC0180819181A281B38180932902909300
:101820002A02A0932B02B0932C028B819C816981A8
:101830007A814AE5489F9001499F300D112449EF74
:1018400052E0649FC001659F900D749F900D11241C
:10185000820F931F81509C4FFC0180819181909356
:101860007202809371028B819C8169817A814AE541
:10187000489F9001499F300D112449EF52E0649F29
:10188000C001659F900D749F900D1124820F931FCE
:1018900083509C4FFC0180819181909370028093D2
:1018A0006F028B819C814AE5489F9001499F300DD2
:1018B000112469817A8149EF52E0649FC001659FDC
:1018C000900D749F900D1124820F931F8A5B9E4F81
:1018D0008B589D4F22E4FC01ADE2B2E001900D92E5
:1018E0002A95E1F78B819C8169817A814AE5489F3D
:1018F0009001499F300D112449EF52E0649FC001CF
:10190000659F900D749F900D1124820F931F895530
:101910009C4FFC018081809319028B819C8169819D
:101920007A814AE5489F9001499F300D112449EF83
:1019300052E0649FC001659F900D749F900D11242B
:10194000820F931F89559C4FFC01108249815A8157
:1019500029EF32E0429FC001439F900D529F900DAE
:10196000112487599A4FFC01808161E0680F4981F9
:101970005A8129EF32E0429FC001439F900D529F50
:10198000900D112487599A4FFC01608349815A8137
:1019900029EF32E0429FC001439F900D529F900D6E
:1019A000112487599A4FFC018081843079F4498150
:1019B0005A8129EF32E0429FC001439F900D529F10
:1019C000900D112487599A4FFC01108249815A8148
:1019D00029EF32E0429FC001439F900D529F900D2E
:1019E000112487599A4FFC01608149815A8129EF5E
:1019F00032E0429FC001439F900D529F900D1124F1
:101A000085599A4FFC01608389E192E02696E2E0D5
:101A10000C942836A4E0B0E0E0E1FDE00C940C3634
:101A20001A8219821C821B821A82198224C089811F
:101A30009A814AE5489F9001499F300D11246B819E
:101A40007C8149EF52E0649FC001659F900D749FB7
:101A5000900D1124820F931F8E5C9E4F8B589D4FCB
:101A60004AE550E060E070E00E949B3689819A81EF
:101A700001969A83898389819A8184309105BCF289
:101A80004B815C8129EF32E0429FC001439F900D62
:101A9000529F900D112486599A4FFC0110824B8160
:101AA0005C8129EF32E0429FC001439F900D529F1D
:101AB000900D112487599A4FFC0110824B815C8153
:101AC00029EF32E0429FC001439F900D529F900D3D
:101AD000112485599A4FFC0110822496E2E00C945F
:101AE0002836CF93DF9382E090E090937602809344
:101AF000750210927E0310927B0387E098E10E94AA
:101B00002316EC0183E00E940B15CD2B19F50E94E2
:101B10007B078AEC9EED90935303809352031092BF
:101B20007A03109277031092780310927F03109239
:101B300080030E940A0D1092920285E493E00E94B5
:101B40006511109274021092730210929A0380E051
:101B500090E002C08FEF9FEFDF91CF910895A4E056
:101B6000B0E0E5EBFDE00C940C369C838B831A828D
:101B7000198289819A81880F991F8D589D4F2B81D9
:101B80003C81FC01318320832496E2E00C942836CA
:101B9000CF92DF92EF92FF92CF93DF93CDB7DEB774
:101BA000C056D1090FB6F894DEBF0FBECDBF1E825E
:101BB0001D821A8219820E944B089C838B831FC04E
:101BC0008D819E81880F991F8D589D4FFC0120812A
:101BD00031816D817E8149EF52E0649FC001659F34
:101BE000900D749F900D11248B589D4F4B815C81FB
:101BF000BA01F90109959A8389831C821B82898124
:101C00009A810097E9F289819A818230910509F0E1
:101C100084C04D815E8129EF32E0429FC001439F25
:101C2000900D529F900D11248B589D4FFC01808187
:101C300091818130910509F051C04D815E8129EF7C
:101C400032E0429FC001439F900D529F900D11249E
:101C500089549D4FFC018081918118161906F4F575
:101C60000E94EC269B01AC01ED81FE8169EF72E0E0
:101C7000E69FC001E79F900DF69F900D11248954B7
:101C80009D4FFC0180819181AA2797FDA095BA2FD5
:101C9000820F931FA41FB51F6D817E8149EF52E013
:101CA000649F9001659F300D749F300D11242F5754
:101CB0003C4FF90180839183A283B3834D815E8180
:101CC00029EF32E0429FC001439F900D529F900D3B
:101CD000112480589C4F21E0FC0120834D815E81BE
:101CE00029EF32E0429FC001439F900D529F900D1B
:101CF000112481589C4FFC0110824D815E8129EF97
:101D000032E0429FC001439F900D529F900D1124DD
:101D100083589D4FFC01118210824D815E8129EF15
:101D200032E0429FC001439F900D529F900D1124BD
:101D300080589C4FFC018081813009F065C04D8145
:101D40005E8129EF32E0429FC001439F900D529F78
:101D5000900D112481589C4FFC018081882309F04B
:101D600053C04D815E8129EF32E0429FC001439F05
:101D7000900D529F900D11248F579C4FFC01C080F5
:101D8000D180E280F3800E94EC26DC01CB0121E0CF
:101D9000C816D906EA06FB0608F020E02223A1F1C6
:101DA0004D815E8129EF32E0429FC001439F900D3B
:101DB000529F900D112480589C4FFC0110821A866E
:101DC000198684E08F8384E888878DB79EB78A550B
:101DD00091090FB6F8949EBF0FBE8DBF8DB79EB709
:101DE00001962AE5FE013796DC0101900D922A95B5
:101DF000E1F70E947108EDB7FEB7E65AFF4F0FB644
:101E0000F894DEBF0FBECDBF80E090E0C05ADF4F38
:101E10000FB6F894DEBF0FBECDBFDF91CF91FF901C
:101E2000EF90DF90CF9008956091D9057091DA0519
:101E30008091DB059091DC050895A3E0B0E0E3E23A
:101E4000FFE00C940A3661157105E9F0806C898316
:101E500060387105A0F0862F80688A83660F672F2F
:101E6000661F770B71956B8383E090E0BE016F5F17
:101E70007F4F0E9406262396E4E00C9426366A8360
:101E800082E090E0F3CF8068898381E090E0EECF3C
:101E90000F931F93FA019A01280F391F2130344004
:101EA00080F49C012250310940E050E08B01BF01D9
:101EB00089E090E00E941D0F80E090E01F910F915B
:101EC00008958FEF9FEFFACFA3E0B0E0EAE6FFE0DE
:101ED0000C940A3661157105E9F0806489836038D5
:101EE0007105A0F0862F80688A83660F672F661FB2
:101EF000770B71956B8383E090E0BE016F5F7F4F3E
:101F00000E946F262396E4E00C9426366A8382E0D2
:101F100090E0F3CF898381E090E0EFCF0F931F93A0
:101F20009B01BA0140E050E08C0181E190E00E9409
:101F3000640F1F910F9108950F931F938C0125E05B
:101F400030E040E050E060E070E087E190E00E9427
:101F5000640F1F910F9108950F931F938C0125E03B
:101F600030E040E050E060E070E085E190E00E9409
:101F7000640F1F910F910895A4E0B0E0E2ECFFE040
:101F80000C940A368E010F5F1F4F24E030E040E0D2
:101F900050E00E94640F892B41F06FEF7FEFCB017F
:101FA0002496E4E00C94263627C06C81862F90E0BE
:101FB000A0E0B0E09150A109B109BA2FA92F982F44
:101FC00088272B81820F911DA11DB11DBA2FA92F2A
:101FD000982F88272A81820F911DA11DB11D662788
:101FE000782F892F9A2F2981620F711D811D911DD4
:101FF0002496E4E00C94263660E070E080E090E007
:102000000E94BC0F0895A2E0B0E0E9E0F0E10C947A
:102010000A368E010F5F1F4F22E030E040E050E0B3
:102020000E94640F892B39F08FEF9FEF2296E4E036
:102030000C9426360BC08A8190E0982F882729813E
:10204000820F911D2296E4E00C942636A2E0B0E0C7
:10205000ECE2F0E10C9408367C018E010F5F1F4F1B
:1020600022E030E040E050E065E070E085E190E0A3
:102070000E94640F89816A8170E0762F6627680F5D
:10208000711D80E090E00E94513320E030E040E894
:102090005CE30E940734F70166877787808B918B1A
:1020A00060E070E08EE290E00E940310F7019183FF
:1020B000808387010C5F1F4F28E030E040E050E054
:1020C00060E070E082E190E00E94640F67E070E001
:1020D00085E190E00E940310F7019383828360E022
:1020E00070E080E190E00E94BC0FF4E19695879546
:1020F00077956795FA95D1F7F701758764872296EA
:10210000E6E00C942436A2E0B0E0E9E8F0E10C94BB
:102110000A3649835A838E010F5F1F4F22E030E059
:1021200040E050E00E941D0F2296E4E00C94263619
:102130009093850580938405AC0164E078E18EE29C
:1021400090E00E9483100895909387058093860500
:10215000AC0160E070E088E190E00E948310089597
:10216000A4E0B0E0E6EBF0E10C940A3629833A8370
:102170004B835C838E010F5F1F4F24E030E040E013
:1021800050E00E941D0F2496E4E00C9426360F9335
:102190001F93CF93DF93EC018C0121E030E040E00E
:1021A00050E06BE070E08AE290E00E941D0F298110
:1021B0003A814B815C8160E070E08EE190E00E94AA
:1021C000B010DF91CF911F910F9108959C0140E0D5
:1021D00050E0CB01A0E0B0E066E1880F991FAA1F94
:1021E000BB1F6A95D1F7282B392B4A2B5B2B80918B
:1021F000800590918105A0918205B0918305282BDF
:10220000392B4A2B5B2B60E070E088E090E00E9465
:10221000B01080E090E00895CF93DF93EC0160E090
:1022200070E084E090E00E94BC0F9B01AC0120971D
:10223000A1F42E7F4774507F20938E0530938F0535
:10224000409390055093910560E070E084E090E049
:102250000E94B010DF91CF91089521703E7F4774A6
:10226000507FCE018E7F91708160A0E0B0E0282B7E
:10227000392B4A2B5B2BE0CFA2E0B0E0E2E4F1E1A6
:102280000C940A3689839A838E010F5F1F4F22E0D8
:1022900030E040E050E062E070E083E090E00E94D7
:1022A0001D0F2296E4E00C9426360F931F938C01A9
:1022B00028E030E040E050E060E070E081E090E055
:1022C0000E941D0F1F910F9108950F931F938C0172
:1022D00028E030E040E050E060E070E081E090E035
:1022E0000E94640F1F910F910895A4E0B0E0EBE706
:1022F000F1E10C940A367A8369838E010F5F1F4FD8
:1023000022E030E040E050E064E070E08DE290E0F8
:102310000E941D0F83E089838E010F5F1F4F21E014
:1023200030E040E050E066E070E08DE290E00E9436
:102330001D0F19828E010F5F1F4F21E030E040E03A
:1023400050E066E070E08DE290E00E941D0F6AE0D0
:1023500070E08DE290E00E94BC0F2496E4E00C94C3
:102360002636CF93DF93EC0164E070E086E390E0E3
:102370000E94BC0F9B01AC01CD2B51F4377F64E070
:1023800070E086E390E00E94B010DF91CF91089555
:102390003860F5CFA3E0B0E0E0EDF1E10C94083651
:1023A0007C018DE68B838E010D5F1F4F21E030E0B5
:1023B00040E050E066E078E08EE290E00E941D0F81
:1023C00087E08983E114F10499F486E18A838E0120
:1023D0000F5F1F4F22E030E040E050E066E078E120
:1023E0008EE290E00E941D0F2396E6E00C942436C6
:1023F00086E0ECCFA1E0B0E0E0E0F2E10C94013641
:102400007C01DC019C901596EC911597F0E0EE0FA5
:10241000FF1FEB59FE4F2591349159011196CC9035
:10242000D12CB1E0CB1AD108D092D805C092D705F3
:102430007C2CE4E0882483949E1619F0F7E09F1228
:10244000812C90927E05D70117964C9180918E0534
:1024500090918F05A0919005B0919105411110C008
:10246000A06480938E0590938F05A0939005B09300
:102470009105590133E0B694A7943A95E1F709C064
:10248000AF7B80938E0590938F05A0939005B093BA
:102490009105F701808580937F052085822F90E04C
:1024A000A0E0B0E0AC013327222722273327437076
:1024B000552780918E0590918F05A0919005B09140
:1024C0009105282B392B4A2B5B2B20938E053093BB
:1024D0008F05409390055093910560E070E084E093
:1024E00090E00E94B010A50164E078E28EE290E0F6
:1024F0000E948310DD24C6010E94CA11E92DF0E07C
:10250000EF5BFE4F0081A02EB12CF5E00F9F800104
:1025100011240D5D1E4F25E030E040E050E067E003
:1025200070E08BE290E00E941D0F02E211E021E0DA
:1025300030E040E050E06EE070E08BE290E00E941E
:102540001D0F082D10E0005E1E4F21E030E040E03E
:1025500050E06BE070E088E290E00E941D0FF50112
:10256000EE0FFF1FEE0FFF1FE954FE4F259135912F
:10257000459154916CE070E088E290E00E94B010C8
:10258000D7011696EC91169717968C91F0E0E80F0C
:10259000F11DE80FF11DEE0FFF1FE75FFE4F4081B9
:1025A000518162E070E087E290E00E948310F601C2
:1025B000EE0FFF1FEB5FFE4F4081518164E070E042
:1025C00087E290E00E948310F7018781811109C0A2
:1025D00044E650E066E070E087E290E00E948310FD
:1025E0001FC08281843029F480E1898340E150E07A
:1025F00004C088E2898340E250E066E070E087E250
:1026000090E00E9483108E010F5F1F4F21E030E0A9
:1026100040E050E066E270E087E290E00E941D0F2B
:10262000772019F0E7E9F1E002C0E7EAF1E0D7012D
:1026300013968C91B4E08B9FE00DF11D1124259130
:1026400035914591549168E070E087E290E00E94F6
:10265000B010F701428553854134F0E15F0731F056
:1026600060E270E087E290E00E948310D7011A9642
:102670008D919C911B97892B41F441E450E160E2DC
:1026800070E087E290E00E94831020911801309161
:10269000190140911A0150911B016CE070E083E236
:1026A00090E00E94B010F601EE0FFF1FE45EFE4FB7
:1026B0004081518164E070E083E290E00E948310E9
:1026C000F7018681882389F0078110E00B5E1E4F99
:1026D00021E030E040E050E060E070E081E290E036
:1026E0000E941D0F61E073E002C060E070E0D7015E
:1026F00015962C9130E040E050E0EBE1220F331FC3
:10270000441F551FEA95D1F7892D8F70282B892DED
:1027100090E0A0E0B0E0F4E0880F991FAA1FBB1F73
:10272000FA95D1F79927AA27BB27282B392B4A2BB3
:102730005B2BF701818190E0A0E0B0E0072E72E111
:10274000880F991FAA1FBB1F7A95D1F7702D882774
:102750009927AC70BB27282B392B4A2B5B2B848104
:1027600090E0A0E0B0E0E6E1880F991FAA1FBB1F30
:10277000EA95D1F788279927A07CB770282B392BA9
:102780004A2B5B2B872E912CA12CB12CF4E1880CC9
:10279000991CAA1CBB1CFA95D1F7282939294A296A
:1027A0005B29862F90E0A0E0B0E061E1880F991FDF
:1027B000AA1FBB1F6A95D1F7282B392B4A2B5B2BFD
:1027C00060E070E08FE190E00E94B010D7011196B8
:1027D0008C91119712969C911297892B17962C9198
:1027E00030E0322F22273295330F307E442737FDD9
:1027F0004095542F482B30682093800530938105F5
:10280000409382055093830560E070E088E090E09B
:102810000E94B01080E090E02196EDE00C941D360F
:10282000CF93DF93EC0160E070E084E090E00E94E1
:10283000BC0FDC01CB01CD2BA1F4A46080938E05ED
:1028400090938F05A0939005B09391059C01AD01E5
:1028500060E070E084E090E00E94B010DF91CF91E2
:102860000895AB7FEBCFA2E0B0E0E9E3F4E10C9494
:1028700008365EE8E52E55E0F52EF70140815181DE
:102880006281738170644083518362837383198290
:102890008A838E010F5F1F4F22E030E040E050E05E
:1028A00062E070E08AE190E00E941D0FF701208154
:1028B00031814281538160E070E084E090E00E94C9
:1028C000B0102296E6E00C942436892BE1F4809136
:1028D0008E0590918F05A0919005B0919105906122
:1028E00080938E0590938F05A0939005B0939105EA
:1028F00010928D059C01AD0160E070E084E090E0F5
:102900000E94B010089580918E0590918F05A0913E
:102910009005B09191059F7E80938E0590938F05D1
:10292000A0939005B093910521E020938D059C0123
:10293000AD0160E070E084E090E00E94B010089586
:10294000A1E0B0E0E6EAF4E10C940A36892B21F527
:1029500080918E0590918F05A0919005B091910581
:10296000BF7D80938E0590938F05A0939005B093C3
:1029700091058B2F89838E010F5F1F4F21E030E07F
:1029800040E050E063E070E084E090E00E941D0FC2
:102990002196E4E00C94263680918E0590918F0567
:1029A000A0919005B0919105B06280938E059093AF
:1029B0008F05A0939005B09391058B2FDBCFCF921D
:1029C000DF92EF92FF926B017C0160E070E08AE1A0
:1029D00090E00E94BC0F9B01AC0122273327407F6F
:1029E0008FE0E822FF242C293D294E295F2960E051
:1029F00070E08AE190E00E94B010FF90EF90DF90CD
:102A0000CF9008959093DE058093DD057093E005E7
:102A10006093DF050895A2E0B0E0E1E1F5E10C94F8
:102A20000736D82ECE0101967C018C0122E030E0E1
:102A300040E050E060E070E086E290E0D0FC30C022
:102A40000E94640F8A818A7E8A8389818F7B898331
:102A500022E030E040E050E060E070E086E290E0AC
:102A60000E941D0FD1FE18C08FE08983870121E0ED
:102A700030E040E050E06AE270E086E390E00E94DF
:102A80001D0F198221E030E040E050E06AE270E082
:102A900086E390E00E941D0F2296E7E00C94233617
:102AA0000E94640F8A8184618A838E010E5F1F4FAA
:102AB00021E030E040E050E061E070E086E290E04C
:102AC0000E941D0F870121E030E040E050E062E00D
:102AD00070E086E390E00E94640F898184688983B6
:102AE00021E030E040E050E062E070E086E390E01A
:102AF0000E941D0F80E1898381E08A8322E030E01B
:102B000040E050E068E270E086E390E00E941D0F34
:102B1000A9CFA2E0B0E0EFE8F5E10C9408367C0123
:102B20008E010F5F1F4F22E030E040E050E060E098
:102B300070E086E390E00E94640F8EE0E816F104F6
:102B400048F4F701EC5CFF4F0C94333619828A810C
:102B50008E7F8A838E010F5F1F4F21E030E040E0BF
:102B600050E060E070E086E390E00E941D0F8E016F
:102B70000E5F1F4F21E030E040E050E061E070E088
:102B800086E390E00E941D0F2296E6E00C94243626
:102B900089818F7C80628983DDCF89818C7F816090
:102BA0008983D8CF89818C7F82608983D3CF8981C3
:102BB000837B886489838A8180688A83CBCF89817B
:102BC000837B89838A818F778A83C4CF8A8182605D
:102BD0008A83C0CF8A818D7F8A83BCCFA4E0B0E096
:102BE000E4EFF5E10C940A3683E08C8381E08B837B
:102BF0008E010D5F1F4F22E030E040E050E060E0CA
:102C000070E086E390E00E941D0F198280E88A83BD
:102C10008E010F5F1F4F22E030E040E050E066E0A1
:102C200070E08DE290E00E941D0F88EE93E00E941C
:102C3000533181E090E00E94891580E090E0249675
:102C4000E4E00C942636A1E0B0E0E9E2F6E10C9471
:102C500004365C011092D50510928D051092D805AE
:102C60001092D7051092C3051092D9051092DA057B
:102C70001092DB051092DC051092D6051092DE054D
:102C80001092DD051092E0051092DF050E94FC0F06
:102C90006093720570937305809374059093750526
:102CA000603371408A4C9E4D09F0C8C080E090E0CE
:102CB0000E948915A3FE0EC064E070E080E090E001
:102CC0000E9475116093D9057093DA058093DB0536
:102CD0009093DC058091D905882381F082E0898377
:102CE0008E010F5F1F4F21E030E040E050E062E1D5
:102CF00070E08DE290E00E941D0F08C01092D9058F
:102D00001092DA051092DB051092DC0566E070E0A7
:102D100080E090E00E9475116093760570937705CE
:102D2000809378059093790567E070E080E090E00B
:102D30000E94751160937A0570937B0580937C05E2
:102D400090937D05A1FE0FC06CE170E080E090E003
:102D50000E947511609388057093890580938A0598
:102D600090938B0508C010928805109289051092E7
:102D70008A0510928B05A0FE0BC06EE170E080E02A
:102D800090E00E9475116F7160938C05611105C010
:102D9000809122018F7180938C05A2FE21C002E9EF
:102DA00015E060E1C62ED12CE12CF12CC701B60153
:102DB0000E947511F80161937193819391938F0132
:102DC000FFEFCF1ADF0AEF0AFF0A2CE1C216D10487
:102DD000E104F10459F7B3FE0EC00E94EE1519C0CC
:102DE000E2E9F5E0119211921192119285E0E23C34
:102DF000F807C1F7F0CF65E070E086E390E00E944D
:102E00000310AC015D7F65E070E086E390E00E9416
:102E1000831081E090E00E94891560E070E084E01A
:102E200090E00E94BC0F60938E0570938F05809395
:102E300090059093910580E090E002C08FEF9FEFA6
:102E40002196EAE00C9420369B01AC0161E070E031
:102E50008AE090E00E94B0100895A1E0B0E0E3E3C2
:102E6000F7E10C940A3681FD29C092E026E080FF4C
:102E70002CC029838E010F5F1F4F21E030E040E01E
:102E800050E060E070E08DE090E00E941D0F8E0148
:102E90000F5F1F4F21E030E040E050E063E070E062
:102EA0008FE090E00E94640F898183FD23C080E061
:102EB00090E02196E4E00C94263634C091E09093A3
:102EC000D60592E826E880FDD4CF99838E010F5F66
:102ED0001F4F21E030E040E050E060E070E08DE026
:102EE00090E00E941D0F80E090E02196E4E00C94B9
:102EF000263618C080E489838E010F5F1F4F21E0C2
:102F000030E040E050E060E070E08DE090E00E9452
:102F10001D0F80E090E00E94B1111092D6058FEF56
:102F20009FEFE3CF62E070E08FE090E00E9403103B
:102F3000807199270895A2E0B0E0E1EAF7E10C94EE
:102F40000A368E010E5F1F4F21E030E040E050E076
:102F500063E070E08FE090E00E94640F9A81492F57
:102F6000407850E060E070E0892F807490E0A0E04D
:102F7000B0E0880F991FAA1FBB1F481759076A079F
:102F80007B0779F081E089838E010F5F1F4F21E07D
:102F900030E040E050E063E070E08DE090E00E94BF
:102FA0001D0F2296E4E00C942636A1E0B0E0EBED94
:102FB000F7E10C94043680E4898360E070E08EE0F1
:102FC00090E00E94BC0F6B017C010E94EF265C0127
:102FD00020E030E0A90160E070E08EE090E00E9427
:102FE000B0108E010F5F1F4F21E030E040E050E055
:102FF00060E070E08DE090E00E941D0F28EF3FEF51
:1030000047E254E260E070E08FE090E00E94B01090
:103010000E949B17A701960160E070E08EE090E0AF
:103020000E94B010C5010E94F3261092D605219689
:10303000EAE00C942036A3E0B0E0E1E2F8E10C9481
:103040000A368C011B820E949B17012B39F11982D1
:1030500083E08A838E010F5F1F4F22E030E040E063
:1030600050E060E070E08DE090E00E941D0F8E0166
:103070000D5F1F4F21E030E040E050E063E070E082
:103080008FE090E00E94640F8B8183FD1EC080E082
:1030900090E02396E4E00C9426362CC0198281E05F
:1030A0008A838E010F5F1F4F22E030E040E050E046
:1030B00060E070E08DE090E00E941D0F80E090E005
:1030C0002396E4E00C94263615C00E94D517198289
:1030D00081E08A838E010F5F1F4F22E030E040E0E5
:1030E00050E060E070E08DE090E00E941D0F8FEFF7
:1030F0009FEFE6CFA3E0B0E0E0E8F8E10C940836FB
:103100007C018E010D5F1F4F21E030E040E050E078
:1031100063E070E084E090E00E94640FE114F10449
:1031200029F58B818F7E8B8380918E0590918F0501
:10313000A0919005B0919105BF7E80938E059093EC
:103140008F05A0939005B09391058E010D5F1F4FE1
:1031500021E030E040E050E063E070E084E090E0A7
:103160000E941D0F2396E6E00C942436E982FA8231
:103170008E010F5F1F4F22E030E040E050E060E042
:1031800070E08CE090E00E941D0F8B8180618B834A
:1031900080918E0590918F05A0919005B091910539
:1031A000B061CBCFA1E0B0E0E8EDF8E10C940636D9
:1031B0006B017C0149830E94EF268C0160E070E086
:1031C0008EE090E00E94BC0F4981411117C0A70119
:1031D0009601209530954095509526233723482316
:1031E000592360E070E08EE090E00E94B010C801CA
:1031F0000E94F3262196E8E00C9422369B01AC0154
:103200002C293D294E295F29ECCFA1E0B0E0EBE06D
:10321000F9E10C9408367C0182E089838E010F5F0E
:103220001F4F21E030E040E050E060E070E08FE2CE
:1032300090E00E941D0FE114F10479F081E0898390
:103240008E010F5F1F4F21E030E040E050E060E072
:1032500070E08FE290E00E941D0F2196E6E00C9452
:103260002436A1E0B0E0E7E3F9E10C940A3680EE01
:1032700089838E010F5F1F4F21E030E040E050E076
:1032800063E070E086E390E00E941D0F80EF898389
:103290008E010F5F1F4F21E030E040E050E063E01F
:1032A00070E086E390E00E941D0F2196E4E00C940C
:1032B0002636A2E0B0E0EFE5F9E10C940436109276
:1032C000C20580918D058093C80560E070E08FE0B5
:1032D00090E00E94BC0F6B017C0172FF05C08091E1
:1032E0008D05882309F48EC0D6FE52C0D2FE4BC095
:1032F000E4FCB5C060E070E080E190E00E94031063
:103300005C0106EC15E022E030E040E050E060E0D7
:1033100070E081E190E00E94640F80917F05882336
:1033200009F4F9C023E0B222B092C505A092C40509
:10333000C3FE04C08091C60585FFF5C08C2D887042
:103340008093C30580E090E0DC0122E02093C20579
:1033500020918D05211117C0A701960122273F76E4
:1033600044275527282B392B4A2B5B2B60E070E034
:103370008FE090E00E94B010E091DF05F091E00551
:10338000309709F084C02296EAE00C94203609C1F7
:10339000C7FC85C0A7019601222733274270552715
:1033A000E1FCA0C0A7019601222730794772547230
:1033B000211531054105510531F360E070E08FE0E2
:1033C00090E00E94B0101092D60580918E059091E9
:1033D0008F05A0919005B0919105B5FFCFC00E94D7
:1033E0003119D4FC9CC0D7FCCCC0E0FECEC089E033
:1033F0008093C205E091DF05F091E005309709F078
:1034000046C0C1CFD701C60188279E70AA27BB2717
:1034100081159E40A105B10509F466CF0E94D5171C
:103420000E94311988EFC822DD24EE24FF24809108
:103430008E0590918F05A0919005B0919105B5FDF5
:103440007BC083E08093C205E091DF05F091E00549
:10345000309709F449CF82EC95E0099545CF0E9459
:10346000D5170E94311980918E0590918F05A091FA
:103470009005B0919105B5FD70C083E08093C205C1
:10348000E091DF05F091E005309709F47CCF82EC04
:1034900095E009952296EAE00C94203682C028EF48
:1034A00030E040E050E060E070E08FE090E00E94AB
:1034B000B0108091C305882359F01092C305809104
:1034C0008D05811105C08091D60581110E94D51707
:1034D00081E08093C205E091DD05F091DE05309733
:1034E000B1F651CF60E070E08FE090E00E94B01044
:1034F00084E08093C205E091DF05F091E00530970C
:1035000019F082EC95E009951092D6052296EAE032
:103510000C94203646C0E894A7F8BB2405CF88E079
:103520008093C20567CF1092C3051092D60588E03C
:1035300090E0A0E0B0E009CF198281E08A838E019B
:103540000F5F1F4F22E030E040E050E060E070E0AD
:103550008DE090E00E941D0FC7CE198281E08A8322
:103560008E010F5F1F4F22E030E040E050E060E04E
:1035700070E08DE090E00E941D0F05CF0E94D517EE
:103580002ECF83E08093C20535CFF2FE04C08AE0DF
:103590008093C2052FCFE5FEF4CF8BE08093C20568
:1035A00029CFFC01E352FF4F30812181FC01EF550F
:1035B000FF4F3083FC01EE55FF4F2083672B11F046
:1035C00020E201C020E0FC01E256FF4F216420838D
:1035D000FC01E156FF4F2CEC2083FC01E452FF4F2D
:1035E000208131E0320F3083FC01E056FF4F208311
:1035F0000895A3E0B0E0EFEFFAE10C94FC35FC0194
:10360000B0ADB98311AD92AC83AC74AC65AC56ACC3
:1036100047AC2B2F312F492D582D672D762D852D19
:10362000942DA0E00E94823609F487C0C6A8D7A8CE
:103630007F0188EDE81A8EEFF80A1F0197ED291A2D
:103640009EEF390ADF01AD55BF4FBB83AA8382E0ED
:10365000A82ED701BC908B2D90E0C816D906ECF1AE
:103660002981312F492D582D672D762D852D942DAB
:103670000B2D0E945436217030E040E050E060E0B5
:1036800070E080E090E0A0E00E948236F1F0D1018D
:10369000BC92AA81BB81BC9211961C921197129682
:1036A0001C92129713961C92139714961C921497BF
:1036B0001596AC9215978AEC16968C9316979EEDFC
:1036C00017969C9380E090E002C081E090E0B39474
:1036D000D701BC92892B09F0BCCFD701AC901B82DB
:1036E0001A82B12C2A803B802A0C3B1CC214D304C2
:1036F000ECF08A819B8101969B838A832981312FFB
:10370000492D582D672D762D852D942D022D0E9443
:103710005436217030E040E050E060E070E080E03E
:1037200090E0A0E00E948236E9F20AC0E75FFE4F17
:1037300081E08083D7011C9203C081E090E002C049
:1037400080E090E02396E2E10C941836EF92FF922D
:103750000F931F93CF93DF93EB01B901CA01209719
:1037600049F09701A80108E00E945436B901CA0146
:103770000E942417CE010E941B18CDB7DEB7E6E0E9
:103780000C942436EF92FF920F93CF93DF93EC01CA
:103790007B01FC01E652FF4F60E070E08081918187
:1037A0000E94E610E114F10491F0FE01E45AFF4F8B
:1037B0002081318142815381648175818681978125
:1037C00008E00E945436B901CA010E942417CE5F56
:1037D000DE4F88818E290E942D1721E030E0892B51
:1037E00011F420E030E0C901DF91CF910F91FF90FB
:1037F000EF900895CF92DF92EF92FF920F931F9375
:103800006115710521E08207910530F0E0E1CE2ECF
:10381000D12CE12CF12C03C0C12CD12C76018B01D1
:103820009C010C2C04C036952795179507950A9492
:10383000D2F70F3F11052105310531F028F048E09E
:1038400050E060E070E003C040E050E0BA01042EB8
:1038500004C036952795179507950A94D2F74C29F9
:103860005D296E297F29003111052105310528F0D8
:1038700084E090E0A0E0B0E003C080E090E0DC01F4
:10388000082E04C036952795179507950A94D2F708
:10389000842B952BA62BB72B043011052105310560
:1038A00030F052E0C52ED12CE12CF12C03C0C12CFC
:1038B000D12C7601BC01CD016C297D298E299F294F
:1038C00004C03695279517950795CA94D2F7369573
:1038D000279517950795602B712B822B932B1F91A2
:1038E0000F91FF90EF90DF90CF900895CF92DF92ED
:1038F000EF92FF926B01E12CF12CF1E1CC0CDD1C7D
:10390000EE1CFF1CFA95D1F79C01DC010E946E347D
:103910009B01AC01C701B6010E948834CA01B901FC
:103920000E94FA1B9B01AC01A3E0B0E00E947D3431
:103930006457710981099109CB01FF90EF90DF90E5
:10394000CF9008959093760280937502109278023A
:103950001092770241E060E870ED83E094E20E940B
:10396000D21881E00E940B1565EA79E087E998E0BA
:103970000E94021510927C0310927D0380EF9DE15E
:103980000E94AF0D10929D0380E090E00895A0E0AA
:10399000B0E0EDECFCE10C94FE35EC018B0161151F
:1039A000710531F04B01AA2497FCA094BA2C05C0F4
:1039B00047E2842E912CA12CB12C33E0880C991C69
:1039C000AA1CBB1C3A95D1F7C501B4012AE431E029
:1039D00040E050E00E94AA342F5F3F4F80E3829F77
:1039E0006001839FD00C11249601442737FD409538
:1039F000542F280D391D4A1D5B1DE0918602E111EF
:103A00000EC0ADE0B0E20E947D346B017C0184E128
:103A1000C80E81EAD81E82E0E81EF11C18C0E13011
:103A200039F4A2E0B4E00E947D346B017C0109C04E
:103A300069017A0127E0CC0CDD1CEE1CFF1C2A95E5
:103A4000D1F783E2C80E84E5D81EE11CF11CF0E03A
:103A5000EB5EFE4F4081E0918102E450E13360F47F
:103A6000F0E0EE0FFF1FE75BFE4F80819181AA27F8
:103A700097FDA095BA2F03C080E090E0DC01209173
:103A8000800250E060E070E0213049F49A01AB011F
:103A9000280F391F4A1F5B1FA2EEB3E008C09A012E
:103AA000AB01280F391F4A1F5B1FAAEFB3E00E942A
:103AB0007D3428EE33E040E050E00E94AA34290132
:103AC0003A0188EE882E83E0982EA12CB12CC701F4
:103AD000B601A50194010E94AA34240D351D461D8E
:103AE000571DAFECB3E00E947D34012B31F16B0127
:103AF0007C01A50194010E94AA342853344F3093CD
:103B0000CC022093CB028FEC93E0C89F8001C99F29
:103B1000100DD89F100D112400511109C701B601D5
:103B200028E13CEF4FEF5FEF0E94AA34020F131F12
:103B30001093C8020093C7024EC02B013C01A5019F
:103B400094010E94AA342853344F3093CA02209320
:103B5000C9029D2F990F990BA12CB12CAFECCA2E45
:103B6000B3E0DB2EE12CF12C00E010E09E01492FA8
:103B7000592F692F792F892F0E9400352093BB027E
:103B80003093BC024093BD025093BE026093BF02CB
:103B90007093C0028093C1029093C202D093C4027A
:103BA000C093C3028FEC93E0C89F8001C99F100DA2
:103BB000D89F100D112400511109C301B20128E151
:103BC0003CEF4FEF5FEF0E94AA34020F131F1093D8
:103BD000C6020093C502CDB7DEB7E0E10C941A36F9
:103BE000A9E3B0E0E6EFFDE10C94FC354C015B018C
:103BF000DC011296ED91FC911397EC30F10508F081
:103C0000B1C7EE5BFF4F0C943336FC01808191818C
:103C10008130910519F00297C9F1A4C788E190E0BD
:103C20000E940C1188E0F401BE96840100531F4FDE
:103C3000D80101900D928A95E1F7C8010E945511B3
:103C4000F401E352FF4F808191810E943C1188E092
:103C5000F801D401A555BF4F01900D928A95E1F767
:103C600082E090E0D40113969C938E9312975D9618
:103C70008C9190E00E94A01480E090E00E94651476
:103C800085E00E9433140E94140F6CC76401B6E2F1
:103C9000CB0ED11C88E0F601840100531F4FD801E0
:103CA00001900D928A95E1F7C8010E945511F40127
:103CB000E352FF4F808191810E943C11F801808185
:103CC000811103C080E090E002C088E190E00E9492
:103CD0000C1188E0F601D401A555BF4F01900D925B
:103CE0008A95E1F760E070E0CB010E94DF1487E085
:103CF00090E0D40113969C938E93129760E070E04D
:103D0000CB010E94DF14F401858D90E00E94A01485
:103D100080E090E00E94651480E090E00E947A18B4
:103D200081E0F40137C08AE090E00E94250BDC01BD
:103D30008C91843009F0A5C1D40119961C921E9271
:103D40001897F401E75FFE4F1082F401848195819A
:103D5000938382831582148205C7DC0114968D91AA
:103D60009C9115979C01277F22303105B9F4F4010D
:103D7000E75FFE4F4081442389F0F40131872087BB
:103D800089E090E09383828380819181039709F099
:103D9000E9C681E0EB5DFE4F8083E4C6D401139653
:103DA0009C938E93129715961C921E921497DAC6C6
:103DB00080E2F401EF57FF4F8083F401E852FF4F98
:103DC00090818181F401EE57FF4F9083F401ED570C
:103DD000FF4F8083F401E25BFF4F90818181F4010A
:103DE000EC57FF4F9083F401EB57FF4F808381E442
:103DF000B40164597F4FFB0180838CECF401E359DB
:103E0000FF4F80838CE190E0F401E652FF4F9183F5
:103E10008083F401E352FF4F90818181F401E159E5
:103E2000FF4F9083F401E059FF4F8083F401E45287
:103E3000FF4F808191E0980F90836401FEE6CF0EE2
:103E4000D11CD6018C9384010E5F1E4F82E0F801D5
:103E50008083F401ED5FFE4F1082F401EC5FFE4FB2
:103E60001082E6E06E2E712CD40113967C926E9235
:103E70001297FBE0AF2EB12C1796BC92AE9216971C
:103E800040E050E08CE190E00E94480F61E070E07B
:103E9000C4010E94C21B892B59F060E070E0CB0185
:103EA0000E94DF1487E090E0F40193838283DEC0F8
:103EB000F6018081F401EA5FFE4F8083D4011396FE
:103EC0007C926E9212971796BC92AE92169766C02D
:103ED0000E94F91A892B09F045C6F401EB54FF4FF3
:103EE0001082F401EC54FF4F108281E2F401ED5492
:103EF000FF4F80838AE190E06401BAEDCB0ED11CC4
:103F0000F6019183808360E070E0C4010E94D11AC1
:103F1000F401ED5FFE4F1082F401E05BFF4F608122
:103F20007181882777FD8095982F0E94DF14F40116
:103F3000EC5AFF4F808191810E947A1840E050E056
:103F4000B40162567F4FD6018D919C910E94480F1B
:103F500082E084010E5F1E4FF801808360E070E014
:103F6000D6018D919C910E94E610F80180810E94FB
:103F70002D17F401E056FF4F8081F401EA5FFE4FF8
:103F8000808386E090E0D40113969C938E931297E1
:103F900082E090E017969C938E93169781E090E0D4
:103FA00019969C938E931897DDC552E0E52EFC017F
:103FB000EC54FF4FE082FC01E95FFE4F8081F40189
:103FC000EB54FF4F8083F401EA54FF4F108280E1ED
:103FD000F401ED54FF4F80838BE190E06401BAED72
:103FE000CB0ED11CF6019183808360E070E0C401A8
:103FF0000E94D11AF401ED5FFE4F108286E090E03E
:10400000D40113969C938E93129784E090E01796B8
:104010009C938E931697F401E05BFF4F6081718152
:10402000882777FD8095982F0E94DF1484010E5F0A
:104030001E4FF801E08240E050E0B40162567F4F2D
:10404000D6018D919C910E94480F61E070E0C401FF
:104050000E94C21B892B69F087E090E0F4019383F2
:10406000828360E070E0CB010E94DF14D8011C92D3
:1040700079C5F401E056FF4F8081F401EA5FFE4FFD
:10408000808381E090E0F4016BC585E0F401E751A5
:10409000FF4FD401AC54BF4F01900D928A95E1F7C8
:1040A00085E0F401EF50FF4FD401A754BF4F0190BA
:1040B0000D928A95E1F7D4015B964D915C915C97E6
:1040C000F401E45AFF4F11811E7FC280D380E48047
:1040D0009A0140E050E060E070E080E090E0A12CC8
:1040E000B12EF12C00E010E00E94703629833A8353
:1040F0004B835C836D831E821F82188685E0FE01E0
:104100003196D401A254BF4F01900D928A95E1F7E8
:1041100089E2F401ED54FF4F80836401BAEDCB0EC8
:10412000D11C87E290E0F6019183808360E070E02B
:10413000C4010E94D11AF401ED5FFE4F1082840188
:10414000085F1E4FD8018C91882351F082E0F40162
:10415000EE5FFE4F808360E070E0CB010E94DF14D1
:1041600040E050E0B40162567F4FF60180819181BA
:104170000E94480F61E070E0C4010E94C21B892BBD
:1041800071F081E090E0D40113969C938E93129786
:1041900082E090E015969C938E931497CDC0F40125
:1041A000E056FF4F8081F401EA5FFE4F808386E096
:1041B00090E0F4019383828383E090E09783868389
:1041C00081E090E091878087D8018C91882309F461
:1041D000C9C480E090E00E947A1882E090E053CF5A
:1041E0003C01FBEF6F1AFEEF7F0AD3018C91840133
:1041F00000561F4F81110CC085E0F401EE5EFE4FAA
:10420000D401AC54BF4F01900D928A95E1F704C0E0
:10421000F8018081815080838AE2F401ED54FF4FE0
:1042200080838DE190E05401FAEDAF0EB11CD50111
:104230008D939C9361E070E0C4010E94D11A42E02A
:10424000E42E6401BEEFCB1ADB0AF601E08281E0C6
:10425000F401ED5FFE4F808340E050E0B401625610
:104260007F4FD5018D919C910E94480F60E070E0D6
:10427000CB010E94DF14F601E08260E070E0D5011E
:104280008D919C910E94E610F60180810E942D176D
:10429000D8018C91F401EA5FFE4F808386E090E0C4
:1042A000F4019383828385E090E097838683D30132
:1042B0008C918F5F8C9382E090E052C48BE090E011
:1042C0000E94250BFC018081813081F0843029F42B
:1042D00081E0D401A05FBE4F8C938081853009F0CE
:1042E000D0CEF401EE5FFE4F1082CBCED4011996F2
:1042F0001C921E92189716968D919C911797039772
:1043000079F4A85FBE4F8C9181110AC081E090E0E2
:10431000F4019383828382E090E09583848322C4B6
:104320008401005F1E4FD8018C91882351F0C40195
:104330000E940B08F8011082F401EE5FFE4F10821C
:1043400011C47481658156814781308521859285AC
:104350008385F401E751FF4F708361835283438368
:10436000348325839683878387E090E0D401139676
:104370009C938E931297A12CB12CF401EE5FFE4F0B
:104380008081811105C080E090E00E941B1801C06F
:104390001082F40180819181892B41F0868197817F
:1043A000059721F081E090E09187808788E090E098
:1043B000D40113969C938E931297A114B10409F41F
:1043C000D1C3B5E0AB16B10431F18CF4F2E0AF1615
:1043D000B10469F114E0A116B10409F0BAC381E196
:1043E00090E00E94250BC4010E940B08BBC327E08C
:1043F000A216B10409F4B6C388E0A816B10409F006
:10440000A8C38DE090E00E94250BD40119961C9260
:104410001E92189792C38EE090E00E94250B87E0D1
:1044200090E0F40193838283118610869BC38FE012
:1044300090E00E94250B2C0188E03E01F1E26F0E16
:10444000711CD301E82F1D92EA95E9F75E01F9E1AD
:10445000AF0EB11CD5011D928A95E9F7F401E65F14
:10446000FE4F1082F201EA5AFF4F8081918100973E
:1044700061F0F201E85AFF4F608171810E94761C61
:10448000F401E951FF4F91838083F20185898C38D3
:10449000F1F1B8F4883809F04EC0838D948D9AA359
:1044A00089A388E0F2017996D50101900D928A9551
:1044B000E1F7F201858D90E06201FDE1CF0ED11CA4
:1044C0003CC0883CD9F08C3CB1F588E0F201B19653
:1044D000D30101900D928A95E1F788E0F201799677
:1044E000D50101900D928A95E1F7D20199968C91B0
:1044F00090E06201B9E2CB0ED11C1FC088E0F2014E
:104500007B96D30101900D928A95E1F704C081A1B9
:1045100092A19AA389A388E0F2017996D50101902E
:104520000D928A95E1F7F20183A190E06201F3E236
:10453000CF0ED11C02C080E090E0F401ED5FFE4F91
:104540002081222351F0D401AC5FBE4F2C91222355
:1045500021F0C4010E940B08E4C21082813291054F
:1045600009F44EC03CF48031910509F49FC0809756
:1045700049F0C3C28932910509F45FC18A9709F4F1
:1045800009C1BBC2D4018D919C911197039709F089
:10459000C0C201E010E013961C930E93129782E0C4
:1045A00090E015969C938E931497F6012181828159
:1045B00090E0982F8827820F911DF401E852FF4F59
:1045C00091838083D60113962C91139714968C9126
:1045D00090E0982F882760E070E0820F911D0E9484
:1045E000C71C88E0F301D401AD55BF4F01900D9277
:1045F0008A95E1F7F40111830083E75FFE4F75C2EE
:10460000998DF401E053FF4F808198130EC19A8D6C
:10461000F401EF52FF4F8081981307C1F20124810A
:104620003581468157816085718582859385F40146
:10463000E750FF4F20833183428353836483758324
:1046400086839783F401EA5BFF4FA080B180C2802C
:10465000D380E480F580068117810E9470363E7F0A
:10466000F401E45AFF4F1082318342835383648301
:1046700015821682178284E090E0D40113969C93F1
:104680008E931297F401EB5DFE4F10820E945C073F
:10469000B301C4010E94280788E0F301D401AD559D
:1046A000BF4F01900D928A95E1F733C2998DF401C5
:1046B000E053FF4F80819813B8C09A8DF401EF52F8
:1046C000FF4F80819813B1C0F6018281F401E85F49
:1046D000FE4F8083D20114962C91149715963C912D
:1046E000159716964C91169717965C9117971896F2
:1046F0006C91189719967C9119971A968C911A9724
:104700001B969C91F401EF50FF4F2083318342832D
:1047100053836483758386839783F401EA5BFF4F39
:10472000A080B180C280D380E480F58006811781AB
:104730000E9470363E7FF401E45AFF4F10823183AD
:1047400042835383648315821682178283E090E04C
:10475000F4019383828388E0F301D401A152BF4F17
:1047600001900D928A95E1F762E070E080E190E0BF
:104770000E940310F401ED5DFE4FA4E0969587952D
:10478000AA95E1F79183808382E0F401EB5DFE4F0F
:104790008083BFC1F601319685E0D401AE5EBE4F85
:1047A00001900D928A95E1F7D4018D919C9184013D
:1047B000065E1E4F019731F4F2019689D8018C9163
:1047C000981731F1C4010E94A40681E090E0F40141
:1047D000E35EFE4F91838083F2018689D8018C933A
:1047E0008AA190E0982F882729A1820F911DF401BA
:1047F000E15EFE4F918380838A8D90E0982F882719
:10480000298D820F911DF401EF5DFE4F918380830E
:10481000F401808191818130910539F49383828301
:1048200082E090E09583848374C187E090E0D401B6
:1048300013969C938E9312976CC1198A1A8A1B8ABD
:104840001C8A1D8A1E8A1F8A188E19861A861B8644
:104850001C861D861E861F86188A19821A821B8254
:104860001C821D821E821F821886F401E053FF4FB6
:10487000FAA7E9A7998D808198130BC0C4018F52C4
:104880009F4F9CA78BA79A8DABA5BCA58C91981721
:1048900031F087E090E0F401938382833AC1D20142
:1048A00014962C91149715963C91159716964C9149
:1048B000169717965C91179718966C9118971996FA
:1048C0007C9119971A968C911A971B969C91F401DA
:1048D000E45AFF4F108211821282138214821582D1
:1048E00016821782F601319615E0DE0119960190C5
:1048F0000D921A95E1F7F601369615E0DE01119654
:1049000001900D921A95E1F7F6013B9615E0DE0154
:10491000519601900D921A95E1F76980FA81EB8129
:104920003C802D80BE81BDA7AF81AEA7B885BFA753
:10493000D401A751BF4F1C911AAB11961C9111972E
:104940001BAB12961C9112971CAB13961C911397DC
:104950001DAB14961C9114971EAB15961C911597C0
:104960001FAB16961C91169718AF17961C9119AF8E
:10497000AAA8BBA8CCA8DDA8EEA8FFA808AD0E94F5
:10498000793628AB39AB742EB52FA62F29893A89F1
:104990004B895C896D897E898F89988DA62CBF2E65
:1049A000CE2ED32CE22CFDA40EA51FA50E94793695
:1049B00059016A01E62E28A939A9472D5B2F6A2FD4
:1049C00070E080E090E0F12C00E010E00E94793689
:1049D000722EB32FA42F58AB69AB262D3F2F4E2F2D
:1049E000532D622D7DA58EA59FA5A984BA84CB8465
:1049F000DC84ED84FE840F8518890E9479361901C4
:104A00004DA75EA7662E2AA93BA94CA95DA96EA950
:104A10007FA988AD99ADF401E750FF4FA080B18028
:104A2000C280D380E480F580068117810E947936A8
:104A300059016A01E62E91014DA55EA5662D70E033
:104A400080E090E0F12C00E010E00E9479365901FE
:104A50006A01E62E272D3B2F4A2F58A969A970E03D
:104A600080E090E00E947036F401EE5EFE4F2083FD
:104A70003183428353836483158216821782C40173
:104A80000E94A40681E090E0F401E35EFE4F918372
:104A900080838AA190E0982F882729A1820F911DF9
:104AA000F401EF5DFE4F91838083ABA5BCA58C9193
:104AB00090E0982F8827E9A5FAA52081820F911D03
:104AC000F401E15EFE4F91838083F401E95FFE4FC4
:104AD0008081813061F485E090E0D40113969C934D
:104AE0008E931297F401EB5FFE4F108212C087E0A5
:104AF00090E0F4019383828307C087E090E0D401C3
:104B000013969C938E93129760E070E0CB010E9405
:104B1000DF14F201848985FF04C080E190E00E94E7
:104B2000250BF401E75FFE4F808181111BC0D4018A
:104B30008D919C911197892BA9F487E090E01396B1
:104B40009C938E93129760E070E0CB010E94DF147B
:104B500009C0F40180859185892B21F481E090E0E2
:104B600091878087D40118968D919C911997E99629
:104B7000E2E10C9418366CE170E00E94C71C0895C5
:104B800024E2FC01A3E9B2E001900D922A95E1F73D
:104B90002091B50220937C0328E0FC017096A5E4E7
:104BA000B3E001900D922A95E1F70895E5E4F3E072
:104BB0002081318142815381648175818681978111
:104BC00008958091940390919503089580919603A0
:104BD000909197030895E4E5F3E0208131814281CB
:104BE00053816481758186819781089580915C03EA
:104BF00090915D03089580917702909178020895D5
:104C00008EBD0DB407FEFDCF8EB50895AF92BF9255
:104C1000DF92EF92FF920F931F93CF93DF9300D019
:104C200000D01F92CDB7DEB77C01D62E60E089E0C0
:104C30002A833B834C835D8379830E94FC312A81E4
:104C40003B814C815D817981E114F104A1F0AD2CAF
:104C5000B72EEA0CFB1CF50181915F012A833B838F
:104C60004C835D830E9400262A813B814C815D81BB
:104C7000AE14BF0481F72115310541055105D1F06E
:104C8000780100E010E0F70181917F012A833B83E6
:104C90004C835D830E9400260F5F1F4FC801A0E078
:104CA000B0E02A813B814C815D8182179307A40784
:104CB000B50748F361E089E00E94FC3180E090E0B4
:104CC0000F900F900F900F900F90DF91CF911F9149
:104CD0000F91FF90EF90DF90BF90AF900895AF924B
:104CE000BF92DF92EF92FF920F931F93CF93DF93C8
:104CF00000D000D01F92CDB7DEB77C01D62E60E089
:104D000089E02A833B834C835D8379830E94FC3155
:104D10002A813B814C815D817981E114F104A1F00C
:104D2000AD2CB72EEA0CFB1CF50181915F012A83A3
:104D30003B834C835D830E9400262A813B814C810A
:104D40005D81AE14BF0481F7211531054105510580
:104D5000D9F0780100E010E080E02A833B834C83A7
:104D60005D830E940026F70181937F010F5F1F4F33
:104D7000C801A0E0B0E02A813B814C815D818217AF
:104D80009307A407B50740F361E089E00E94FC3176
:104D900080E090E00F900F900F900F900F90DF91B8
:104DA000CF911F910F91FF90EF90DF90BF90AF9048
:104DB000089580E00E940C2780E090E008950E9412
:104DC000F5260E94D92680E090E0089586E00E94B2
:104DD0000C2780E090E008950E94FE300895F8943A
:104DE00081E090E008957894089561E08AE00E945F
:104DF000FC3161E08AE00E94C3318CB580618CBDDA
:104E00008CB580648CBD61E08DE00E94C33161E0AF
:104E10008BE00E94C33108952CB5982F93702C7F9E
:104E2000922B9CBD9DB582FB882780F99E7F982B95
:104E30009DBD0895DC01ED91FC910480F581E02D8C
:104E40000995089584E98093BC008091BC0084FD9D
:104E5000FCCF08956093BC002091BC0027FFFCCFDD
:104E60002091B900287FFC0122830895662311F068
:104E700064E801C064EC0E942A278091BB00089579
:104E80001F93CF93DF93EC01162F64EA0E942A2729
:104E90008A81883011F0803161F41093BB0064E89E
:104EA000CE010E942A279A8110FF05C081E090342C
:104EB00029F080E003C081E09831D9F7DF91CF91EC
:104EC0001F910895CF93DF93EC016093BB0064E8DA
:104ED0000E942A2781E09A81983209F080E0DF91D0
:104EE000CF9108952FEA31E0FC01318320831092A5
:104EF000B90082E08093B800662341F061E082E16E
:104F00000E94FC3161E083E10E94FC310895FC01C4
:104F1000768F658F08951F93CF93DF93EC01162F43
:104F20008D8D9E8DDC01ED91FC910480F581E02D4D
:104F3000688509958D8D9E8DDC01ED91FC91008435
:104F4000F185E02D612F09958D8D9E8DDC01ED9110
:104F5000FC910680F781E02D0995DF91CF911F919B
:104F60000895EF92FF921F93CF93DF9300D0CDB7B8
:104F7000DEB77C01DC015D968D919C915E97DC0132
:104F8000ED91FC910480F581E02DD70118966C918C
:104F90000995F701858D968DDC01ED91FC910084DA
:104FA000F185E02D60E00995F701858D968DDC0196
:104FB000ED91FC910680F781E02D0995F701858D33
:104FC000968DDC01ED91FC91D70118966C91616092
:104FD0000480F581E02D0995F701858D968DDC0122
:104FE000ED91FC910190F081E02D60E00995182F82
:104FF000F701858D968DDC01ED91FC910190F0819A
:10500000E02D60E00995782FF701858D968DDC0104
:10501000ED91FC910190F081E02D61E07A8309959A
:10502000682FF701858D968DDC01ED91FC9106804E
:10503000F781E02D6983099569817A81812F90E05C
:105040000F900F90DF91CF911F91FF90EF900895F7
:10505000CF92DF92EF92FF921F93CF93DF93EC01F9
:10506000162F0E940A316B017C01488159816A81A7
:105070007B814115510561057105E1F0C41AD50A1E
:10508000E60AF70A80E1C81687E2D806E104F104CF
:1050900010F1188219821A821B8260E4610FCE011E
:1050A0000E94B1276D8B7E8B8F8B988F60E070E0B4
:1050B000CB0115C04C815D816E817F81452B462BD4
:1050C000472B49F460E4610FCE010E948B27C88210
:1050D000D982EA82FB826D897E898F89988DDF91E2
:1050E000CF911F91FF90EF90DF90CF900895CF92D6
:1050F000DF92EF92FF921F93CF93DF93EC01162F75
:105100000E940A316B017C014C815D816E817F813F
:105110004115510561057105C9F0C41AD50AE60AA1
:10512000F70A80E1C81687E2D806E104F104F8F036
:105130001C821D821E821F8260E5610FCE010E94CB
:10514000B127698F7A8F8B8F9C8F11C048815981CD
:105150006A817B81452B462B472B49F460E5610F23
:10516000CE010E948B27CC82DD82EE82FF82698D88
:105170007A8D8B8D9C8DDF91CF911F91FF90EF9059
:10518000DF90CF9008950F931F93CF93DF93EC019F
:105190000E947728611571058105910569F00989DB
:1051A0001A8920E030E0322F212F102F0027601BBA
:1051B000710B820B930B03C060E070E0CB01DF91B9
:1051C000CF911F910F910895A0E1B0E0EAEEF8E2CF
:1051D0000C94FC351C01162F0E9428286B017C01C1
:1051E000611571058105910549F420E030E040E04A
:1051F00050E060E070E080E090E0A4C0612FC10169
:105200000E94C3282B013C016115710581059105A0
:1052100061F3D1011F960D90BC91A02DBA87A9878B
:10522000F10125853685B701A60180E090E0DC011B
:10523000C9825A836B837C838D839E83AF83B887B7
:1052400081849284A12CB12C7FE0880C991CAA1C2B
:10525000BB1C7A95D1F740E050E0C301B2010E9437
:10526000593508E00E945236F22FE32FDA016B879E
:105270007C878C019401A50160E070E080E090E003
:10528000AF2EBE2E6D01EB84FC840E947036590156
:105290006A017B018C0129813A814B815C8160E04C
:1052A00070E080E090E00E94003505E10E945236F7
:1052B0002B87388B4F87852E962E7C878D879E87F0
:1052C000D1011B968D919C911C97A0E0B0E0DC0170
:1052D000992788278C019D0140E050E0BA0189831D
:1052E0001A832B833C834D835E836F837887698524
:1052F0007A859B0140E050E0C301B2010E9459351C
:1053000007E00E94523659016A017B018C01298114
:105310003A814B815C8160E070E080E090E00E9427
:10532000703659016A017B018C012B8538894F85C4
:10533000582D692D7C858D859E850E9479360FE0DC
:105340000E9452366096E2E10C9418368F929F923A
:10535000AF92BF92CF92DF92EF92FF920F93CF93D3
:10536000DF93EC010E94C3286B017C014B015C01BF
:10537000BB0C8808982C54019B01A701682D782D3F
:10538000882D982DA0E00E948236A1F02B893C89BF
:1053900040E050E0C701B6010E94593507E10E9484
:1053A00052362053384F4F4F5F4F6F4F7F4F8F4FC5
:1053B0009F4F08C020E030E040E050E060E070E047
:1053C00080E090E0DF91CF910F91FF90EF90DF9020
:1053D000CF90BF90AF909F908F900895EF92FF92E3
:1053E0000F931F93CF93DF93EC018C0182EAF82E89
:1053F0008D8D9E8DDC01ED91FC910480F581E02D79
:10540000688509958D8D9E8DDC01ED91FC91008460
:10541000F185E02D6F2D09958D8D9E8DDC01ED912F
:10542000FC910680F781E02D09958D8D9E8DDC0124
:10543000ED91FC91688561600480F581E02D09950E
:105440008D8D9E8DDC01ED91FC910190F081E02D20
:1054500060E00995E82E8D8D9E8DDC01ED91FC912B
:105460000190F081E02D61E009952E2D30E0322F82
:105470002227282BF801328721878D8D9E8DDC0114
:10548000ED91FC910680F781E02D0995F394F3945A
:105490000E5F1F4FBEEAFB12ABCF80E090E0CDB7AE
:1054A000DEB7E6E00C942436CF93DF93EC018D8DCC
:1054B0009E8DDC01ED91FC910480F581E02D6885E5
:1054C00009958D8D9E8DDC01ED91FC910084F18517
:1054D000E02D6EE109958D8D9E8DDC01ED91FC91A5
:1054E0000680F781E02D0995DF91CF910895CF9344
:1054F000DF93EC01660F6887449845980E94542A10
:1055000068EE73E080E090E00E942D31CE010E94B1
:10551000EE29DF91CF910895FC017183608353835D
:1055200042831682178210861186089563FF02C097
:1055300088E201C088E06770682B88E190E00FB6D0
:10554000F894A895809360000FBE609360008091EE
:1055500060008064809360000895A89508958F92FC
:105560009F92AF92BF92CF92EF920F931F93CF93E0
:10557000DF93EB0148015901BA01CE010E94862C4C
:105580002E2D30E0B501A401CE010E94552DCC2076
:1055900019F0CE010E94B42CDF91CF911F910F9191
:1055A000EF90CF90BF90AF909F908F900895FC01A7
:1055B000208131812E5F3F4F828193816817790767
:1055C00014F0C901089546E0469FC001479F900D21
:1055D0001124820F931F0895A1E0B0E0E2EFFAE2F8
:1055E0000C9408368B017A01041B150B215058F0DE
:1055F000C8018E0D9F1D29830E94A236F701819359
:105600007F012981F3CF2196E6E00C9424360F9395
:105610001F93CF93DF938C01EB01FC0160817181BB
:1056200022E0AE010E94EC2A28812F3F11F418825B
:1056300008C0F8018281938130E0821793070CF44F
:105640008883298130E0F801828193812817390706
:105650000CF01982DF91CF911F910F9108950F9354
:105660001F93CF93DF938C01EA010E94D72A26E093
:10567000AE01BC01C8010E94EC2A888199819883FF
:105680008983DF91CF911F910F910895ADE0B0E034
:10569000ECE4FBE20C9401364C015B01BE01655F5A
:1056A0007F4F4D870E94072B4D85442321F08B852A
:1056B000882309F46DC06FE272E0C5010E94C82C16
:1056C0006BE172E0C5010E94C82C0B8510E020E060
:1056D00030E0CC24C3944AE0E42E4BE052E0B50124
:1056E000C4010E94AF2A0C8510E020E030E04DEFAD
:1056F00051E0B501C4010E94AF2A712C8B85781648
:1057000008F046C0672D70E0AE014F5F5F4FC401E7
:105710000E942F2B4AE050E0672DC5010E94642DA6
:105720001F82188619861A8689819A8198878F83A5
:10573000CF80D884E984FA846BEE71E0C5010E94C1
:10574000862C20E130E0B701A601C5010E94552D4D
:1057500069ED71E0C5010E94862CB701A601440FD6
:10576000551F661F771F20E130E0C5010E94552DAF
:105770000B811C812D813E81CC24C39490E1E92EC4
:105780004FEC51E0B501C4010E94AF2A7394B6CF2B
:105790002D96EDE00C941D36A1E0B0E0E2EDFBE2C9
:1057A0000C9408367B018A01260F2E1561F0F80152
:1057B00061918F01C70129830E94AA36FFEFEF1A7A
:1057C000FF0A2981F2CF2196E6E00C942436AB0142
:1057D000FC016081718122E00E94CC2B0895CF935F
:1057E000DF93EC010E94D72AAE014C5F5F4F26E0A9
:1057F000BC01CE010E94CC2BDF91CF910895A2E095
:10580000B0E0E5E0FCE20C9408368C017B01BE01BF
:105810006F5F7F4F0E94072BF70180819181F80114
:10582000958384836A8170E0C8010E94EF2B2A81EE
:105830002F5F2A8330E0F80182819381281739078E
:1058400014F01A8203C089818F5F8983BE016F5F64
:105850007F4FC8010E94E72B2BE088E190E00FB654
:10586000F894A895809360000FBE20936000FFCF4E
:105870006DB77EB76F5F7F4F8EED91E00E94FF2B7B
:105880000E945F310E944A03C5E2DFE20E94730476
:105890002097E1F30E94252FF9CFA0E0B0E0E3E5E7
:1058A000FCE20C9406366C017A01EB01E60EF71E61
:1058B00000E010E0CE15DF0561F06991D601ED91B1
:1058C000FC910190F081E02DC6010995080F191F88
:1058D000F1CFC801CDB7DEB7E8E00C9422366115F0
:1058E000710589F0DB010D900020E9F7AD01415011
:1058F0005109461B570BDC01ED91FC910280F381AD
:10590000E02D0995089580E090E00895EF92FF92D0
:105910000F931F93CF93DF938C01FB01C0E0D0E086
:1059200064917F018FEFE81AF80A662361F0D801CD
:10593000ED91FC910190F081E02DC8010995C80F0F
:10594000D91FF701EDCFCE01CDB7DEB7E6E00C945D
:1059500024360E946F2C0895DC01ED91FC9101909A
:10596000F081E02D099508950F931F93CF93DF9356
:10597000EC016DE00E94AC2C8C016AE0CE010E942B
:10598000AC2C800F911FDF91CF911F910F91089543
:105990000F931F93CF93DF93EC010E94862C8C0111
:1059A000CE010E94B42C800F911FDF91CF911F91E7
:1059B0000F910895A1E2B0E0E0EEFCE20C94023613
:1059C0007C01C42EE52FCB01D22E19A221E02D158A
:1059D00010F02AE0D22E8E010F5D1F4F8D2C912CDE
:1059E000A12CB12C6C2D7E2FA50194010E9488342E
:1059F0008C2DD29E80191124015011098A3014F483
:105A0000805D01C0895CF801808321153105410565
:105A1000510521F0C22EE32FCA01E4CFB801C7011E
:105A20000E946F2CA196ECE00C941E36A0E0B0E032
:105A3000ECE1FDE20C940636EC016A017B012115D4
:105A4000310541F4E881F9810190F081E02D642F66
:105A500009951DC02A303105A9F477FF12C06DE207
:105A60000E94AC2C8C0144275527BA014C195D09C2
:105A70006E097F092AE0CE010E94DA2C800F911F67
:105A800006C02AE0B701A601CE010E94DA2CCDB7EC
:105A9000DEB7E8E00C9422369A01AB01662757FD89
:105AA0006095762F0E94162D08952115310549F431
:105AB000DC01ED91FC910190F081E02D642F0995BE
:105AC00008950E94DA2C08959A01462F50E060E074
:105AD00070E00E94552D08950F931F93CF93DF938D
