:100000000C9463060C94541B0C94811B0C948B066B
:100010000C948B060C948B060C948B060C948B061C
:100020000C948B060C948B060C948B060C948B060C
:100030000C948B060C948B060C948B060C948B06FC
:100040000C94AE1B0C948B060C94051A0C94481A55
:100050000C948B060C948B060C948B060C948B06DC
:100060000C945F080C948B06536574757020646F54
:100070006E65004C50534D696E692076312E3020EC
:1000800053657475700000007000000000240000CB
:1000900000020003000000650054FFEF0000FA803A
:1000A000000B12820001030C30C30E8C8CE914D5B6
:1000B000400213710F8E3883F8833000F883258E49
:1000C000F8833000F883FFFFFFFF0FFEA9D624005E
:1000D00004001A8279A10000003CFFFF000000101C
:1000E000000038836FA2003E03304000000002CAC7
:1000F000E3093E80000020000000000000004000F6
:10010000000060000000000C0000000C186E0000F1
:1001100006920A16C0DFFFFF0256FD8CD377FFE17F
:10012000C496E0C5BEAA00000000FFFF0B2B000034
:100130001657000003594000000000001DFA00029D
:100140006C1D000000003FFFDFEB003EB3B6000D6A
:10015000227800002F3C00000000001942B500008A
:1001600039A20000B365D90E9FC91DCF4C343000B1
:100170000000500000003BB67AE80064000000C8B0
:10018000000000000000100000001000FA921000B3
:10019000225E000D229F0001000000320000FF4699
:1001A000000063D400001000000004D6000004CC5E
:1001B000000004CC000000001072000000400000AD
:1001C000000000000000000600020005000700001B
:1001D00000000064000000000000000000050005B1
:1001E000006400200000000000000000000000008B
:1001F00040000000030000000032F8980000FF6596
:100200000000830F0000FF9BFC00000000000000C6
:1002100000000000000000000000000000000000DE
:1002200000000000000000000000000000000000CE
:100230000000000010004000000000000006000068
:10024000B26A000200000001FB830068000000D9D0
:10025000FC007CF1FF8300000000006500000064EA
:1002600003E800640028000000250000000016A03C
:1002700000000000100000001000002F000000002F
:1002800001F40000100000280000FFFF4581FFFF7F
:10029000FA720000000000000000004400050005A4
:1002A000BAC6004778A2000000010000000000006C
:1002B0000600000000140000254D002F706D0000A6
:1002C00005AE000C02D0000000000000000000009D
:1002D000000000000000001B000000000000000003
:1002E00000000000000000640000000800000000A2
:1002F00000000000000000000000000000000000FE
:1003000000000000000000000000000000000000ED
:1003100000000000000000000000000000000000DD
:1003200000000000000000000000000000000000CD
:1003300000000000000000000000000000000000BD
:10034000000000000000001B000000000000000092
:100350000000000E000E00000AC7000400000000AC
:100360000032FFFFFF9C00000B2B0000000200008A
:10037000000100000064FFE5000000000000000034
:10038000000000000000000000010000000000016B
:10039000000000000000000180000001800000015A
:1003A0008000002426D300000000000000000006AA
:1003B00000100096003C000000000000000000005B
:1003C0000000000000000C0A4E68CDCF77095016DF
:1003D0006759C619CE82000000000000000000002E
:1003E000000000000000000000000000000017D71F
:1003F0008400030000000000000000000000C7931C
:100400008F9D1E1B1C190000000000000000000052
:1004100000000000000000000000000000000203D7
:1004200018850000400000000003000000030000E9
:10043000000000000000400000000000000000007C
:1004400000000000000000000000000000000000AC
:10045000000000000000000000000000000000009C
:1004600000000000000000000000677DDF7E729049
:100470002E554CF6E6880000000000000000000049
:10048000000000000000D8DCB4B8B0D8B9ABF3F875
:10049000FAB3B7BB8E9EAEF132F51BF1B4B8B080A3
:1004A00097F1A9DFDFDFAADFDFDFF2AAC5CDC7A999
:1004B0000CC92C97F1A989264666B28999A92D55B0
:1004C0007DB0B08AA896365676F1BAA3B4B280C091
:1004D000B8A89711B28398BAA3F0240844106418FE
:1004E000B2B9B49883F1A329557DBAB5B1A383936A
:1004F000F0002850F5B2B6AA839328547CF1B9A332
:10050000829361BAA2DADEDFDB819AB9AEF5606868
:1005100070F1DABAA2DFD9BAA2FAB9A38292DB31BA
:10052000BAA2D9BAA2F8DF85A4D0C1BBAD83C2C537
:10053000C7B8A2DFDFDFBAA0DFDFDFD8D8F1B8AA03
:10054000B38DB4980D355DB2B6BAAF8C96198F9F46
:10055000A70E161EB49AB8AA872C547CBAA4B08AE7
:10056000B691325676B28494A4C808CDD8B8B4B047
:10057000F19982A82D557D98A80E161EA22C547CA8
:1005800092A4F02C5078F184A898C4CDFCD80DDB4F
:10059000A8FC2DF3D9BAA6F8DABAA6DED8BAB2B654
:1005A0008696A6D0F3C841DAA6C8F8D8B0B4B88207
:1005B000A892F52C548898F135D9F418D8F1A2D026
:1005C000F8F9A884D9C7DFF8F883C5DADF69DF83D3
:1005D000C1D8F40114F1A8824EA884F311D182F598
:1005E000D992289788F109F41C1CD884A8F3C0F983
:1005F000D1D99782F129F40DD8F3F9F9D1D982F440
:10060000C203D8DEDF1AD8F1A2FAF9A88498D9C7B4
:10061000DFF8F8F883C7DADF69DFF883C3D8F401BD
:1006200014F198A8822EA884F311D182F5D99250A2
:100630009788F109F41CD884A8F3C0F8F9D1D997A8
:1006400082F149F40DD8F3F9F9D1D982F4C403D871
:10065000DEDFD8F1AD8898CCA809F9D98292A8F547
:100660007CF1883ACF944A6E98DB6931DAADF2DEDC
:10067000F9D88795A8F221D1DAA5F9F417D9F1AE06
:100680008ED0C0C3AE82C684C3A88595C8A588F2A3
:10069000C0F1F4010EF18E9EA8C63E56F554F188C5
:1006A00072F40115F19845856EF58E9E0488F1422D
:1006B000985A8E9E068869F4011CF1981E1108D084
:1006C000F504F11E970202983625DBF9D985A5F3CA
:1006D000C1DA85A5F3DFD88595A8F309DAA5FAD89C
:1006E0008292A8F578F1881A849F26889821DAF4F6
:1006F0001DF3D8879F39D1AFD9DFDFFBF9F40CF3B5
:10070000D8FAD0F8DAF9F9D0DFD9F9D8F40BD8F360
:10071000879F39D1AFD9DFDFF41DF3D8FAFCA86980
:10072000F9F9AFD0DADEFAD9F88F9FA8F1CCF398B7
:10073000DB45D9AFDFD0F8D8F18F9FA8CAF388097D
:10074000DAAF8FCBF8D8F2AD978D0CD9A5DFF9BA17
:10075000A6F3FAF412F2D8950DD1D9BAA6F3FADAC3
:10076000A5F2C1BAA6F3DFD8F1BAB2B68696A6D082
:10077000CAF349DAA6CBF8D8B0B4B8D8AD84F2C081
:10078000DFF18FCBC3A8B2B68696C8C1CBC3F3B096
:10079000B48898A821DB718D9D71859521D9ADF222
:1007A000FAD88597A828D9F408D8F28D29DAF40563
:1007B000D9F285A4C2F2D8A88D9401D1D9F411F24E
:1007C000D88721D8F40AD8F28498A8C801D1D9F4DE
:1007D00011D8F3A4C8BBAFD0F2DEF8F8F8F8F8F8F7
:1007E000F8F8D8F1B8F6B5B9B08A95A3DE3CA3D92C
:1007F000F8D85CA3D9F8D87CA3D9F8D8F8F9D1A552
:10080000D9DFDAFAD8B18530F7D9DED8F830ADDAE9
:10081000DED8F2B48C99A32D557DA083DFDFDFB540
:1008200091A0F629D9FBD8A0FC29D9FAD8A0D0519B
:10083000D9F8D8FC51D9F9D879D9FBD8A0D0FC790E
:10084000D9FAD8A1F9F9F9F9F9A0DADFDFDFD8A1EF
:10085000F8F8F8F8F8ACDEF8ADDE8393AC2C547CF5
:10086000F1A8DFDFDFF69D2CDAA0DFD9FADB2DF867
:10087000D8A850DAA0D0DED9D0F8F8F8DB55F8D8EF
:10088000A878DAA0D0DFD9D0FAF8F8F8F8DB7DF84C
:10089000D89CA88CF530DB38D9D0DEDFA0D0DEDFE5
:1008A000D8A848DB58D9DFD0DEA0DFD0DED8A868D2
:1008B000DB70D9DFDFA0DFDFD8F1A888902C547C73
:1008C00098A8D05C38D1DAF2AE8CDFF9D8B087A81E
:1008D000C1C1B188A8C6F9F9DA36D8A8F9DA36D88C
:1008E000A8F9DA36D8A8F9DA36D8A8F9DA36D8F776
:1008F0008D9DADF818DAF2AEDFD8F7ADFA30D9A495
:10090000DEF9D8F2AEDEFAF983A7D9C3C5C7F188FC
:100910009BA77AADF7DEDFA4F8849408A797F300CD
:10092000AEF29819A488C6A39488F632DFF28393B6
:10093000DB09D9F2AADFD8D8AEF8F9D1DAF3A4DE10
:10094000A7F1889B7AD8F38494AE19F9DAAAF1DF7B
:10095000D8A881C0C3C5C7A39283F628ADDED9F855
:10096000D8A350ADD9F8D8A378ADD9F8D8F8F9D133
:10097000A1DADEC3C5C7D8A18194F818F2B089AC5A
:10098000C3C5C7F1D8B8B4B09786A8319B069907FC
:10099000AB9728889BF00C201440B0B4B8F0A88A1C
:1009A0009A285078B79BA8295179247059446938FE
:1009B000644831F1BBAB88002C547CF0B38BB8A8F1
:1009C00004285078F1B088B49726A85998BBABB3E7
:1009D0008B02264666B0B8F08A9CA82951798B29EB
:1009E00051798A2470598B2058718A4469388B391F
:1009F00040688A6448318B30496088F1AC002C54DF
:100A00007CF08CA804285078F1889726A85998ACD7
:100A10008C02264666F0899CA82951792470594495
:100A20006938644831A98809205970AB1138406988
:100A3000A8193148608CA83C415C207C00F1879863
:100A40001986A86E767EA999882D557DD8B1B5B93D
:100A5000A3DFDFDFAED0DFAAD0DEF2ABF8F9D9B08A
:100A600087C4AAF1DFDFBBAFDFDFB9D8B1F1A3974D
:100A70008E60DFB084F2C8F8F9D9DED89385F14AE8
:100A8000B183A308B5839A0810B79F10D8F1B0BA04
:100A9000AEB08AC2B2B68E9EF1FBD9F41DD8F9D998
:100AA0000CF1D8F8F8AD61D9AEFBD8F40CF1D8F858
:100AB000F8AD19D9AEFBDFD8F416F1D8F8AD8D61D9
:100AC000D9F4F4ACF59C9C8DDF2BBAB6AEFAF8F4F1
:100AD0000BD8F1AED0F8AD51DAAEFAF8F1D8B9B121
:100AE000B6A3839C08B9B1839AB5AAC0FD3083B779
:100AF0009F10B58B93F20202D1ABDADED8F1B08051
:100B0000BAABC0C3B284C1C3D8B1B9F38BA391B699
:100B100009B4D9ABDEB0879CB9A3DDF1B38B8B8B65
:100B20008B8BB087A3A3A3A3B28BB69BF2A3A3A383
:100B3000A3A3A3A3A3A3A3F1B087B59AA3F39BA3F5
:100B4000A3DCBAACDFB9A3A3A3A3A3A3A3A3A3A3CA
:100B5000A3A3A3A3A3A3D8D8D8BBB3B7F1AAF9DAA8
:100B6000FFD9809AAA28B48098A720B79787A8664B
:100B700088F07951F1902C870CA781976293F071DE
:100B8000716085940129517990A5F1284C6C870CEE
:100B900095188578A38390284C6C886CD8F3A28232
:100BA00000F210A8921980A2F2D926D8F188A84D97
:100BB000D948D896A83980D93CD89580A839A68636
:100BC00098D92CDA87A72CD8A8899519A980D93863
:100BD000D8A88939A980DA3CD8A82EA83990D90C90
:100BE000D8A8953198D90CD8A809D9FFD801DAFF2F
:100BF000D89539A9DA26FFD890A80D8999A8108030
:100C00009821DA2ED88999A83180DA2ED8A886962C
:100C10003180DA2ED8A8873180DA2ED8A88292F3D4
:100C20004180F1D92ED8A882F31980F1D92ED8822B
:100C3000ACF3C0A28022F1A62EA72EA92298A82943
:100C4000DAACDEFFD8A2F22AF1A92E8292A8F23104
:100C500080A696F1D900AC8C9C0C30ACDED0DEFFC7
:100C6000D88C9CACD010ACDE8092A2F24C82A8F161
:100C7000CAF235F19688A6D900D8F1FF0000000726
:100C80000002010000030406000000000000000054
:100C90000102040810204080010204081020010213
:100CA00004081020040404040404040402020202E0
:100CB00002020303030303030000000025002800D1
:100CC0002B001308FE1A11241FBECFEFD8E0DEBFA1
:100CD000CDBF11E0A0E0B1E0E0E8FDE302C0059087
:100CE0000D92A038B107D9F714E0A0E8B1E001C037
:100CF0001D92A634B107E1F71CE0C6ECDCE004C0AD
:100D00002297FE010E94AD1EC23CD107C9F70E9486
:100D10002F180C94BE1E0C940000A1E0B0E0E3E993
:100D2000F6E00C94841EA89588E10FB6F8948093A1
:100D30006000109260000FBE40E052EC61E070E095
:100D40008BE893E00E94831A63E770E08BE893E0FE
:100D50000E94B71886E991E00E94080860E080E9E7
:100D600091E00E94B70B68EC80E891E00E948C094A
:100D700068E670E08BE893E00E94B7181982E09172
:100D80008B03F0918C030280F381E02D41E050E071
:100D9000BE016F5F7F4F8BE893E009952196E2E0FB
:100DA0000C94A01ECF9380E891E00E94CD09C82F3B
:100DB000811187C06CE371E08BE893E00E94981882
:100DC000409186015091870160918801709189015D
:100DD0002AE030E08BE893E00E94561961E471E06C
:100DE0008BE893E00E94981840918A0150918B0102
:100DF00060918C0170918D012AE030E08BE893E0E6
:100E00000E94561961E471E08BE893E00E94981803
:100E100040918E0150918F016091900170919101EC
:100E20002AE030E08BE893E00E94561961E471E01B
:100E30008BE893E00E9498184091920150919301A1
:100E400060919401709195012AE030E08BE893E085
:100E50000E94561963E471E08BE893E00E949818B1
:100E600066E471E08BE893E00E949818609180013D
:100E7000709181014AE050E08BE893E00E944D19A7
:100E80006AE471E08BE893E00E9498186091820117
:100E9000709183014AE050E08BE893E00E944D1985
:100EA0006FE471E08BE893E00E94981860918401F0
:100EB000709185014AE050E08BE893E00E944D1963
:100EC0000DC064E571E08BE893E00E9498184AE059
:100ED00050E06C2F8BE893E00E94651965E471E0A7
:100EE0008BE893E00E94C918CF9108958091C501C5
:100EF00090E02091C601821B910908952091C601BE
:100F00008091C501281750F4E22FF0E0E953FE4F1D
:100F1000808190E02F5F2093C60108958FEF9FEFAF
:100F20000895E091C6018091C501E81730F4F0E022
:100F3000E953FE4F808190E008958FEF9FEF089571
:100F40000895A0E0B0E0E7EAF7E00C947E1E7C0193
:100F5000CB018A012091A201222389F0EB016B01D0
:100F6000C40ED51ECC15DD0569F06991D701ED9150
:100F7000FC910190F081E02DC7010995F3CF642F1A
:100F80000E943608C801CDB7DEB7E8E00C949A1E7F
:100F9000A1E0B0E0EEECF7E00C94841E69832091B0
:100FA000A2012223D1F02091A301203240F021E0C0
:100FB00030E0FC013383228380E090E015C0809113
:100FC000A401E82FF0E0EB55FE4F998190838F5FED
:100FD0008093A4018093A30105C061E0CE01019636
:100FE0000E94360881E090E02196E2E00C94A01E79
:100FF000FC011382128248EE53E060E070E044830B
:1010000055836683778384E691E091838083089596
:101010001092C6011092C5011092A4011092A30172
:101020000E941808089586E991E00E94F807089543
:101030001092540281E0809352021092510261E0BA
:1010400082E10E94B11C61E083E10E94B11CE9EBE6
:10105000F0E080818E7F808380818D7F808380E23D
:101060008093B80085E48093BC000895613298F4C1
:1010700020915402243089F460930902FC018BE032
:1010800092E0DC012A2F281B261718F421912D93BA
:10109000F9CF80E0089581E0089582E0089585ED1C
:1010A0008093BC008091BC0084FDFCCF1092540260
:1010B000089585EC8093BC001092540208951F920D
:1010C0000F920FB60F9211242F933F934F935F937C
:1010D0006F937F938F939F93AF93BF93EF93FF9300
:1010E0008091B900887F803609F49CC068F5883209
:1010F00009F45BC090F4803109F454C038F48823BB
:1011000009F4F5C0883009F44DC0F5C0883109F400
:101110004CC0803209F45DC0EEC0803409F468C070
:1011200048F4803309F455C0883309F0E4C0809353
:10113000E701A8C0803509F44FC0883509F45DC0C7
:10114000883409F0D8C0D5C0883909F4C6C0A8F4DD
:10115000883709F467C038F4883609F463C08037EB
:1011600009F460C0C8C0883809F4B7C0803909F4F0
:101170005FC0803809F0BFC05BC0803B09F485C008
:1011800038F4803A09F466C0883A09F47EC0B3C0E6
:10119000803C09F4A6C0883C09F4A3C0883B09F44C
:1011A00089C0A9C08091530210C090912C028091F7
:1011B0002B02981770F5E0912C0281E08E0F80933E
:1011C0002C02F0E0E35DFD4F80818093BB0085EC55
:1011D00085C08093E7018DC0E0912C0281E08E0FE5
:1011E00080932C028091BB00F0E0E35DFD4F808393
:1011F00090912C0280912B026DC0E0912C0281E035
:101200008E0F80932C028091BB00F0E0E35DFD4FD8
:1012100080838091520281116CC081E080935102E1
:1012200084EA60C083E0809354021092E801CFCF3B
:101230008091E801803208F050C0E091E80181E03F
:101240008E0F8093E8018091BB00F0E0E751FE4FE4
:101250008083BDCF8091E801803230F4E091E801D5
:10126000F0E0E751FE4F10820E944F086091E801C4
:1012700070E0E0914D02F0914E0289EE91E0099507
:101280001092E8010E94590836C084E0809354020D
:1012900010920A0210920902E0914F02F09150025E
:1012A000099580910902811105C081E080930902AE
:1012B00010920B02E0910A0281E08E0F80930A02E5
:1012C000F0E0E55FFD4F80818093BB0090910A02C2
:1012D00080910902981708F47ACF85E88093BC00C2
:1012E0000AC085EC8093BC001092540204C0109296
:1012F000E7010E944F08FF91EF91BF91AF919F913D
:101300008F917F916F915F914F913F912F910F90AE
:101310000FBE0F901F901895A2E0B0E0E2E9F9E04F
:101320000C94841E81E090E06A830E94770D0E94F5
:10133000B40D80E090E00E941515898388E70E9433
:10134000A913898380ED97E00E94BE0F898382E014
:101350000E9415108983CE0101960E94301188E702
:101360000E94EF10898380E090E00E94070A0E94AB
:10137000200A0E94300A89836A81862F90E00E94A9
:101380003B0A898381E00E94D01789830E94C80AA2
:1013900080E02296E2E00C94A01EA1E0B0E0E3ED34
:1013A000F9E00C94801E8C018FEF8983780186E030
:1013B000E80EF11CAE014F5F5F4FB701C8010E94FC
:1013C000300B811104C089818230A0F780E0219622
:1013D000E6E00C949C1EA9E0B0E0E1EFF9E00C948B
:1013E000841E89E0E8E0F1E0DE01119601900D92A3
:1013F0008A95E1F7AE014F5F5F4F69E070E088EBDF
:1014000094E00E946F142996E2E00C94A01E8230B2
:10141000910598F490935602809355024BE0489FB3
:101420009001499F300D1124275A3D4F30935802A7
:101430002093570280E090E008958FEF9FEF08958A
:10144000E0915702F09158021182108213821282A9
:1014500015821482178216821186108612860895CC
:1014600028EC30E040E054E066E870E086EF9BE076
:101470000E9441170895A4E1B0E0E1E4FAE00C9481
:10148000821E8C018CE0E1E1F1E0DE011196019019
:101490000D928A95E1F7093C110518F08FEF9FEF47
:1014A00025C088EC90E0B8010E940B1E61507109C4
:1014B0007D876E87AE01435F5F4F62E070E086E13B
:1014C00092E00E946F14892B49F7AE014F5F5F4F86
:1014D0006CE070E081EC9AE00E946F140097F1F6E6
:1014E000E0915702F0915802118700876496E4E07A
:1014F0000C949E1EA4E0B0E0E0E8FAE00C94841E98
:10150000882349F080EC898382EC8A8384EC8B8386
:1015100086EC8C8307C08BE89BE8DC0189839A8387
:10152000AB83BC83AE014F5F5F4F64E070E088E93E
:101530009AE00E946F140E94A10E2496E2E00C949F
:10154000A01EA4E0B0E0E7EAFAE00C94841E882331
:1015500049F080E2898388E28A8380E38B8388E391
:101560008C8307C083EA93EADC0189839A83AB8387
:10157000BC83AE014F5F5F4F64E070E08EE99AE09C
:101580000E946F140E94A10E2496E2E00C94A01E0B
:10159000AAE0B0E0EEECFAE00C94841E82E08983CD
:1015A0008AEC8A8383EE8B8389E08C83AE014F5F64
:1015B0005F4F64E070E088E690E00E946F1483EA79
:1015C00089838A838B838C8394EC9D839CEC9E839C
:1015D00096EC9F83888789878A87AE014F5F5F4F2C
:1015E0006AE070E087EA9AE00E946F1488ED8983D0
:1015F000AE014F5F5F4F61E070E086EB9AE00E94C2
:101600006F140E94EB0982EB89838BE88A8386EB57
:101610008B838BE98C83AE014F5F5F4F64E070E09A
:1016200082EA9AE00E946F1480E00E947A0A81E0C8
:101630000E94A10AE0915702F091580288E391E0DC
:10164000978386830E94A10EE0915702F091580281
:1016500086E1828780E090E02A96E2E00C94A01E6A
:10166000A0E2B0E0E6E3FBE00C94801E7C018B017D
:10167000E0915702F09158028285BE016F5F7F4F63
:1016800090E00E944011009709F05EC029814A81D4
:1016900050E060E070E0BA0155274427722B2C819E
:1016A000422B2B81522BF801408351836283738339
:1016B0002D814E8150E060E070E0BA01552744274B
:1016C000722B2885422B2F81522B448355836683AE
:1016D000778329854A8550E060E070E0BA0155279C
:1016E0004427722B2C85422B2B85522B4087518708
:1016F000628773872D854E8550E060E070E0BA0107
:1017000055274427722B2889422B2F85522B44873B
:10171000558766877787298930E0322F22274A89C3
:10172000242BF701318320832B8930E0322F2227AD
:101730004C89242B338322832D8930E0322F2227BA
:101740004E89242B35832483A096E6E00C949C1EBE
:101750002AEF30E08091BC0087FD03C021503109A1
:10176000C8F781E0121613060CF080E008959C0182
:101770001092BC0088B1662311F0806301C08F7C99
:1017800088B91092B900442737FD4095542F60E87E
:101790007EE380E090E00E94551E2051310941090E
:1017A0005109CA01B90122E030E040E050E00E9456
:1017B000551E2093B80084E08093BC0008950F93D9
:1017C0001F93CF93DF93D82FDD0FC3E014EB04E812
:1017D0001093BC000E94A80B8823C1F09091B9001F
:1017E000987F983011F0903199F4D093BB0000931A
:1017F000BC000E94A80B882369F09091B900987FE3
:10180000903251F4C15021F784E009C081E007C053
:1018100082E005C083E003C09831B1F780E0DF913A
:10182000CF911F910F9108958093BB0084E880931E
:10183000BC000E94A80B882349F08091B900887FE2
:10184000883211F082E0089580E0089581E00895E3
:1018500084E98093BC000E94A80B91E0811190E084
:10186000892F0895A3E0B0E0E8E3FCE00C94801E2B
:10187000142F2A833B8369830E94DF0B6981862FA3
:101880000E94140C2A81022FE22E3B81F32E8E2D12
:10189000801B811730F4F70181917F010E94140CA5
:1018A000F6CF0E94280C81E02396E6E00C949C1E63
:1018B000A0E0B0E0EEE5FCE00C947D1ED82FB62E43
:1018C0008A01D22EC3E074EBF72E8E7FE82EE4E877
:1018D000CE2EF092BC000E94A80B8823B9F0909104
:1018E000B900987F983011F0903191F4E092BB00EC
:1018F000C092BC000E94A80B882361F09091B900AF
:10190000987F903249F4C15049F0E3CF80E174C030
:1019100081E172C082E170C0983111F083E16CC046
:10192000B092BB0084E88093BC000E94A80B88237F
:1019300041F19091B900987F983229F5C3E054EBBA
:10194000F52ED16064E8E62EF092BC000E94A80B50
:101950008823D9F09091B900987F983011F0903198
:10196000B1F4D093BB00E092BC000E94A80B882386
:1019700081F09091B900987F983479F4C15059F072
:10198000E3CF84E139C085E137C086E135C087E126
:1019900033C088E131C089E12FC09034E1F7E8011C
:1019A00000E010E0ED2CF12C81E0E81AF10834ECB5
:1019B000B32E44E8C42E0D15D0F40E151F0519F4EE
:1019C000C092BC0002C0B092BC000E94A80B882349
:1019D00091F08091B900982F907F903511F0887F19
:1019E0000BC08091BB0089930F5F1F4FE4CF0E9413
:1019F000280C80E001C08AE1CDB7DEB7E9E00C94A5
:101A0000991EA1E0B0E0E7E0FDE00C94791E782E8D
:101A1000D62EC42E79010E94F81B4B015C012C2D9F
:101A2000A7016D2D872D880F0E94580C811102C0CF
:101A30004C2D01C04FEF01151105C1F049830E94E3
:101A4000F81B681979098A099B0920E030E049816F
:101A5000601771078207930748F0D12C242F332792
:101A600027FD30952C153D050CF44FEF842F219662
:101A7000EDE00C94951EA1E0B0E0E1E4FDE00C94F3
:101A8000841EE0917102F0917202958D992321F0EC
:101A9000882339F082E01DC09681992399F0811145
:101AA00014C01982A081B1810280F381E02D9E01D2
:101AB0002F5F3F4F41E051966C9180810E94320C24
:101AC000811109C08FEF9FEF0EC08485811109C07D
:101AD00081E08983E7CFE0917102F0917202898100
:101AE000848780E090E02196E2E00C94A01E823092
:101AF0009105B8F59093700280936F024AE2489F77
:101B00009001499F300D1124295C3C4F309378029D
:101B1000209377024CE0489F9001499F300D11249B
:101B2000215E3C4F309376022093750247E2489F36
:101B30009001499F300D11242F523D4F3093740274
:101B4000209373024CE2489F9001499F300D11246D
:101B500027583D4F309372022093710280E090E04D
:101B600008958FEF9FEF0895CF93DF93E091770271
:101B7000F091780285E7808389E181838AE182831D
:101B80008CE083838AE6848383E285838BE186838A
:101B90008CE187838DE180878EE181878FE1828769
:101BA00080E2838782E7848784E7858783E486876A
:101BB0008BE3878781E4808B88E3818B89E3828B49
:101BC0008AE3838B29E6248B8BE6858B8CE6868BD8
:101BD00087E3878B8FE6808F87E7818F84E2828F10
:101BE0008DE6838F8EE6848F80E7858F89E480A7DA
:101BF00081E081A785E2868F86E2878F87E280A3D6
:101C000088E281A389E282A38AE283A384E384A396
:101C100083E685A384E686A387E687A380916F0287
:101C200090917002A0917502B0917602009721F018
:101C3000019721F42C9302C088E68C9320917502C1
:101C40003091760280E094E0D90112969C938E93B5
:101C5000119780E813968C93139781E491E0159681
:101C60009C938E93149717961C921E92169780E061
:101C700091E019969C938E93189783E393E11B96BA
:101C80009C938E931A97C0917302D091740283E84B
:101C900090E0A0E0B0E088839983AA83BB8380E0D2
:101CA00098E0A0E0B0E08C839D83AE83BF8318866C
:101CB00081E089871A8688E18B8782E390E09D879F
:101CC0008C8785E08E8780E090E0A0E2B1E48F878A
:101CD000988BA98BBA8B80E090E0A2EDB2E48B8B5D
:101CE0009C8BAD8BBE8B89E29CE5AFE0BEE38F8B16
:101CF000988FA98FBA8F4AE959E969E97EE34B8F3A
:101D00005C8F6D8F7E8F43E353E363E77FE34F8FF9
:101D100058A369A37AA38BA39CA3ADA3BEA3A09150
:101D20007102B09172021196FC93EE9313963C935C
:101D30002E9312979B96DC93CE939A97DF91CF9137
:101D40000895A1E0B0E0E7EAFEE00C94841EE09183
:101D50007102F09172028681811103C08FEF9FEFB3
:101D600009C11982A081B1810280F381E02D9E0119
:101D70002F5F3F4F41E051966C9180810E94320C61
:101D8000882361F3E0917102F0917202A081B18128
:101D90000280F381E02D9E012F5F3F4F41E01596B9
:101DA0006C9180810E94320C8823C1F2E091710213
:101DB000F0917202A081B1810280F381E02D9E0139
:101DC0002F5F3F4F41E014966C9180810E94320C4E
:101DD000882321F2E0917102F0917202858DA28137
:101DE000B381882309F45CC08CE089830190F08181
:101DF000E02D9E012F5F3F4F41E064818C910E9456
:101E0000320C882309F4AACF62E370E080E090E00E
:101E10000E94271C80EC8983E0917102F09172028C
:101E2000868180FF02C080EE8983A081B18102801B
:101E3000F381E02D9E012F5F3F4F41E014966C919E
:101E400080810E94320C882309F488CFE0917102CE
:101E5000F09172028485882319F082E0898301C0A1
:101E60001982A081B1810280F381E02D9E012F5F54
:101E70003F4F41E051966C9180810E94320C882343
:101E800009F46CCF1982E0917102F0917202A08185
:101E9000B1810280F381E02D9E012F5F3F4F5DC035
:101EA00084E089830190F081E02D9E012F5F3F4FF8
:101EB00041E064818C910E94320C882309F44ECF5A
:101EC000E0917102F09172028585811103C08681D3
:101ED00080FD02C080E401C080E68983A081B181D9
:101EE0000280F381E02D9E012F5F3F4F41E0149669
:101EF0006C9180810E94320C882309F42FCF62E319
:101F000070E080E090E00E94271CE0917102F09167
:101F100072028485882319F081E0898301C01982C7
:101F2000A081B1810280F381E02D9E012F5F3F4FA0
:101F300041E051966C9180810E94320C882309F413
:101F40000DCFE0917102F09172029F01255F3F4F2A
:101F5000A081B1810280F381E02D41E015966C9162
:101F600080810E94320C91E09827892F90E0919512
:101F7000819591092196E2E00C94A01EA1E0B0E0C9
:101F8000E4ECFFE00C94841EE0917102F091720287
:101F90002681222309F440C0843F21E0920779F092
:101FA00028F48A3F9105C1F519820DC0883E23E0CF
:101FB000920739F0803D974079F588E103C088E0C9
:101FC00001C080E18983248130E0898190E0B3E021
:101FD00095958795BA95E1F72817390701F1A08102
:101FE000B1810280F381E02D9E012F5F3F4F41E0E0
:101FF00016966C9180810E94320C882369F0E091E2
:102000007102F0917202898190E0A3E09595879525
:10201000AA95E1F7848303C08FEF9FEF02C080E0B1
:1020200090E02196E2E00C94A01EA1E0B0E0EBE18C
:10203000F0E10C94841EE0917102F091720296819D
:102040009923D1F1843059F020F48230A9F5198216
:102050000AC0883031F0803179F588E103C088E02A
:1020600001C080E18983258130E0898190E043E0EF
:10207000959587954A95E1F72817390701F1A081D1
:10208000B1810280F381E02D9E012F5F3F4F41E03F
:1020900017966C9180810E94320C882369F0E09140
:1020A0007102F0917202898190E023E09595879505
:1020B0002A95E1F7858303C08FEF9FEF02C080E090
:1020C00090E02196E2E00C94A01EA1E0B0E0EBE6E7
:1020D000F0E10C94841EE0917102F091720226816D
:1020E000211103C08FEF9FEF36C08C3B910510F09C
:1020F00081E014C08236910510F082E00FC08A3270
:10210000910510F083E00AC08431910510F084E05D
:1021100005C00A9710F085E001C086E089839781A9
:1021200089819817B1F0A081B1810280F381E02DFF
:102130009E012F5F3F4F41E012966C9180810E947B
:10214000320C882379F2E0917102F0917202898158
:10215000878380E090E02196E2E00C94A01EA1E04D
:10216000B0E0E5EBF0E10C94841EBC01009719F49B
:102170008FEF9FEF30C0E0917102F0917202818584
:10218000928586179707A0F36536710588F70E9438
:102190000B1E61506983A081B1810280F381E02D23
:1021A0009E012F5F3F4F41E094966C9180810E9489
:1021B000320C8823E9F2E0917102F0917202698198
:1021C00070E06F5F7F4F818592850E940B1E72A326
:1021D00061A380E090E02196E2E00C94A01E0F93B2
:1021E0001F93CF93DF93E0917102F0917202958D6E
:1021F00091112BC09681992359F1182F1E7F0385C9
:10220000812F89238387C1E0D0E0811302C0C0E021
:10221000D0E0D195C195D109111103C087858823DC
:1022200031F081E00E943B0D1123A1F004C080E059
:102230000E943B0D0FC00E94A10E892B59F0E09126
:102240007102F0917202038703C0C0E0D0E002C0C7
:10225000CFEFDFEFCE01DF91CF911F910F91089566
:10226000E0917102F09172022681222321F021E097
:10227000FC01208302C0FC01108280E090E0089500
:10228000A2E0B0E0E6E4F1E10C947A1E6C014B01AF
:102290005A01E0917102F0917202858D882309F450
:1022A00070C08681882309F46FC0009100011091ED
:1022B0000101A081B1810280F381E02D9E012F5F99
:1022C0003F4F42E01C966C9180810E94010D882353
:1022D00009F45DC0E980F12CFE2CEE248A81E82A05
:1022E000EC14FD0428F4F501108281E090E057C061
:1022F000A0917102B09172021296ED91FC91139728
:1023000081819281969587958E159F05D0F40091D5
:102310000001109101010D90BC91A02D9E012F5F35
:102320003F4F41E053966C9180810E94010D8823BC
:1023300089F1898184FF05C00E94A10E82E090E0AE
:102340002EC0E0917102F091720200910001109193
:102350000101A081B1810280F381E02D94014C2D17
:102360001D966C9180810E94010D8823B1F0C701F8
:10237000B6010E940B1E6150F501608380E090E081
:102380000EC08FEF9FEF0BC08EEF9FEF08C08DEF59
:102390009FEF05C08BEF9FEF02C089EF9FEF229662
:1023A000ECE00C94961EA1E0B0E0E9EDF1E10C94B4
:1023B000811EF82EE0917102F091720285858F15D1
:1023C00009F48FC00091000110910101A081B18139
:1023D0000280F381E02D9E012F5F3F4F41E0149674
:1023E0006C918081FF2079F10E94010D811103C061
:1023F0008FEF9FEF78C089818F7D8983E091710293
:10240000F0917202A081B1810280F381E02D9E01E2
:102410002F5F3F4F41E014966C9180810E94320CF7
:10242000882331F363E070E080E090E00E94271C95
:1024300082E08983E0917102F0917202838D88239A
:10244000A1F182E82FC00E94010D882389F2E0915A
:102450007102F09172029681898190FF02C08062C0
:1024600001C08F7D8983A081B1810280F381E02D3D
:102470009E012F5F3F4F41E014966C9180810E9436
:10248000320C882309F4B4CF63E070E080E090E080
:102490000E94271CE0917102F0917202838D8823C3
:1024A00019F080E8898301C01982848D882319F08E
:1024B000898180638983A081B1810280F381E02DCD
:1024C0009E012F5F3F4F41E057966C9180810E94A3
:1024D000320C882309F48CCFE0917102F0917202E2
:1024E000F58680E090E02196E5E00C949D1EA1E049
:1024F000B0E0EDE7F2E10C94831E182FE091710239
:10250000F0917202848D811739F1112319F080E363
:10251000898301C019828585882319F089818260A9
:102520008983838D882319F0898180688983A081BC
:10253000B1810280F381E02D9E012F5F3F4F41E08A
:1025400057966C9180810E94320C882341F0E09173
:102550007102F0917202148F80E090E002C08FEF60
:102560009FEF2196E3E00C949F1EA2E0B0E0EBEB1E
:10257000F2E10C94831E182F893208F04FC08111AC
:1025800020C080E00E947712198287E08A83E09160
:102590007102F0917202A081B1810280F381E02D7D
:1025A0009E012F5F3F4F42E055966C9180810E94C3
:1025B000320C882399F1E0917102F0917202178632
:1025C00052C081E00E947712113011F482E011C0F4
:1025D000123011F483E00DC0163010F484E009C00D
:1025E0001B3010F485E005C0153110F486E001C001
:1025F00087E08983E0917102F0917202A081B1813C
:102600000280F381E02D9E012F5F3F4F41E019963C
:102610006C9180810E94320C811103C08FEF9FEF7B
:1026200024C080E28983E0917102F0917202A0815E
:10263000B1810280F381E02D9E012F5F3F4F41E089
:1026400055966C9180810E94320C882339F3E09179
:102650007102F091720288E08683108681E087879C
:1026600080E00E94EF1080E090E02296E3E00C947E
:102670009F1EA1E0B0E0EFE3F3E10C94821E8C0119
:10268000E0917102F09172028681811103C08FEF97
:102690009FEF5BC0858D8111FACF8785882359F024
:1026A000C8010197889720F4802F0E94B5124BC073
:1026B00080E00E94B5120430110540F0B801093ED7
:1026C00083E0180728F068EE73E002C064E070E071
:1026D00008EE13E0C8010E940B1E61506983E0916F
:1026E0007102F0917202A081B1810280F381E02D2C
:1026F0009E012F5F3F4F41E011966C9180810E94B7
:10270000320C882321F2E0917102F091720269810A
:1027100070E06F5F7F4FC8010E941F1E7287618744
:1027200081A192A18536910510F084E690E00E9487
:10273000AF10E0917102F0917202818592859695B9
:1027400087950E94651080E090E02196E4E00C946B
:102750009E1EA2E0B0E0EFEAF3E10C94811EF82E99
:10276000807711F081E005C0FF2011F01A8202C0CD
:1027700080E48A83E0917102F0917202A081B181BC
:102780000280F381E02D9E012E5F3F4F41E0559680
:102790006C9180810E94320CE0917102F091720282
:1027A000882361F18A818F7B8087F6FE02C01A82BE
:1027B00002C084E08A83F5FC03C08A8182608A8338
:1027C000F4FC03C08A8181608A83F3FC03C08A81A0
:1027D00088638A83A081B1810280F381E02D9E010C
:1027E0002E5F3F4F41E056966C9180810E94320CE3
:1027F000811108C0E0917102F091720216828FEF90
:102800009FEF69C08F2D877F19F080E00E947712BB
:10281000E0917102F09172020091000110910101AA
:10282000A081B1810280F381E02D9E012F5F3F4F97
:1028300041E014966C9180810E94010D8823F9F289
:102840008981F0FE04C091E19A83806203C090E127
:102850009A838F7D8983E0917102F0917202958D48
:102860008981992311F0806801C08F778983A081C5
:10287000B1810280F381E02D9E012E5F3F4F41E048
:1028800096966C9180810E94320C882309F4B7CF10
:10289000E0917102F0917202A081B1810280F38116
:1028A000E02D9E012F5F3F4F41E014966C91808197
:1028B0000E94320C882309F4A2CFE0917102F091BA
:1028C0007202F682178662E370E080E090E00E9478
:1028D000271C80E090E02296E5E00C949D1EA2E08B
:1028E000B0E0E5E7F4E10C94801E8B017A0141151C
:1028F0005105B9F1E0917102F09172022681222313
:1029000099F199838A83A281B3819B01280F311D9C
:1029100018968D919C9119978217930740F1019019
:10292000F081E02D9E012F5F3F4F42E0638D8C913F
:102930000E94320C8823F1F0E0917102F091720252
:10294000A081B1810280F381E02D9701402F58963C
:102950006C9180810E94320C81110FC08BEF9FEF30
:102960000EC08FEF9FEF0BC08EEF9FEF08C08DEF73
:102970009FEF05C08CEF9FEF02C080E090E02296B1
:10298000E6E00C949C1EA2E0B0E0E9ECF4E10C94CB
:102990007E1E7B016A014115510519F48FEF9FEFEF
:1029A00040C0E0917102F091720226812223B1F3BE
:1029B00099838A83A281B3819B01280F311D1896C8
:1029C0008D919C9119978217930740F30190F081A4
:1029D000E02D9E012F5F3F4F42E0638D8C910E945E
:1029E000320C8823D9F2E0917102F09172020091C9
:1029F000000110910101A081B1810280F381E02DDD
:102A000096014E2D58966C9180810E94010D21E017
:102A100030E0882311F020E030E088279927821BDE
:102A2000930B2296E8E00C949A1EACE0B0E0EBE148
:102A3000F5E10C94811E80E88983E0917102F091A8
:102A40007202A081B1810280F381E02D9E012F5F8F
:102A50003F4F41E055966C9180810E94320C882353
:102A600009F4D7C064E670E080E090E00E94271C83
:102A70001982E0917102F0917202A081B18102800D
:102A8000F381E02D9E012F5F3F4F41E055966C9101
:102A900080810E94320C882309F4BEC0AE01455FDC
:102AA0005F4F61E070E087E190E00E94C314892BE2
:102AB00009F0B5C01B85113009F0B4C0E091710276
:102AC000F0917202168688E48983A081B181028028
:102AD000F381E02D9E012F5F3F4F41E018966C91EE
:102AE00080810E94320C882309F49FC0E09171021A
:102AF000F09172022FEF26832483258327838FEFA3
:102B00009FEF928781872387258792A381A31087D0
:102B1000138F148E108A178671968AE0DF011D923A
:102B20008A95E9F7E0917102F0917202158E168E86
:102B300010A2178E80ED97E00E94BE0F892B09F03E
:102B400077C082E00E941510892B09F074C08AE2D8
:102B500090E00E946510892B09F070C082E390E03C
:102B60000E943913892B09F06CC080E00E94EF109D
:102B7000892B09F069C081E00E94D3119CE000918B
:102B80000001109101019E01295F3F4F41E060E08B
:102B9000892F9C870E94010D9C85882319F08F81C5
:102BA000883421F09F5F903151F728C0E091710285
:102BB000F091720293A330E1F32EFF829E01295F10
:102BC0003F4F41E06AE0892F0E94320C8823B1F028
:102BD00061E070E080E090E00E94271C8FE18F832D
:102BE000E0917102F09172029E01295F3F4F41E036
:102BF0006AE083A10E94320C81112CC08AE090E02F
:102C00000E94AF108C01009711F580E00E94A9137B
:102C100033C10FEF1FEF30C10EEF1FEF2DC109EFD2
:102C20001FEF2AC108EF1FEF27C107EF1FEF24C1D5
:102C300006EF1FEF21C105EF1FEF1EC104EF1FEFCD
:102C40001BC103EF1FEF18C102EF1FEF15C101EF0A
:102C50001FEF12C161E070E080E090E00E94271C4D
:102C60000091000110910101E0917102F091720256
:102C70009E01295F3F4F43E060E183A10E94010D67
:102C8000882309F4BBCFE0917102F09172028F8129
:102C900090E080589F4F95A384A3888590E080584A
:102CA0009F4F97A386A3898590E080589F4F91A757
:102CB00080A7FF829E01295F3F4F41E06AE083A128
:102CC0000E94320C882309F499CF61E070E080E023
:102CD00090E00E94271C80E00E94D31180E48F8343
:102CE000E0917102F0917202A081B1810280F381C2
:102CF000E02D9E01295F3F4F41E05A966C91808103
:102D00000E94320C882309F479CFE0917102F0918E
:102D1000720283A180688F83A081B1810280F381D8
:102D2000E02D9E01295F3F4F41E05E966C918081CE
:102D30000E94320C882309F461CF82E08F83E091F6
:102D40007102F0917202A081B1810280F381E02DC5
:102D50009E01295F3F4F41E05F966C9180810E9408
:102D6000320C882309F44ACF88E88F83E0917102FE
:102D7000F0917202A081B1810280F381E02D9E0169
:102D8000295F3F4F41E090966C9180810E94320C08
:102D9000882309F433CFE0917102F091720283A18C
:102DA0008F83A081B1810280F381E02D9E01295F94
:102DB0003F4F41E091966C9180810E94320C8823B4
:102DC00009F41CCF8AE08F83E0917102F0917202C6
:102DD000A081B1810280F381E02D9E01295F3F4FE8
:102DE00041E092966C9180810E94320C882309F414
:102DF00005CF81E88F83E0917102F0917202A0818A
:102E0000B1810280F381E02D9E01295F3F4F41E0B7
:102E100093966C9180810E94320C882309F4EECE47
:102E200081E18F83E0917102F0917202A081B18102
:102E30000280F381E02D9E01295F3F4F41E096968D
:102E40006C9180810E94320C882309F4D7CE83E0F4
:102E50008F83E0917102F0917202A081B1810280B2
:102E6000F381E02D9E01295F3F4F41E097966C91E1
:102E700080810E94320CC2CEC8012C96E5E00C94F1
:102E80009D1EA2E1B0E0E7E4F7E10C94761E6C0130
:102E90005B01542E452E4901E0917102F0917202BE
:102EA000868D811168C06115710509F467C080E1E4
:102EB00090E00E94E41C782E692EE12CF12CEC1499
:102EC000FD04C0F5C6018E199F098131910510F0EE
:102ED00080E190E0A72DB62D00E010E095012E0DC9
:102EE0003F1D0817190741F0F901E00FF11FE491A8
:102EF000ED930F5F1F4FF5CF472D562DB801C7013A
:102F00000E946F14892BE9F5AE014F5F5F4FB80146
:102F1000C7010E94C314892BB9F5A801BE016F5FD8
:102F20007F4F872D962D0E94B11E892B81F5E00ED3
:102F3000F11EC5CF498A5A8AE0917102F09172025E
:102F4000A081B1810280F381E02D9E012F5E3F4F71
:102F500042E05D966C9180810E94320C8823D1F012
:102F6000E0917102F091720281E0868F90A2878ECB
:102F700080E090E011C08FEF9FEF0EC08EEF9FEFCB
:102F80000BC08DEF9FEF08C08CEF9FEF05C08BEF5C
:102F90009FEF02C08AEF9FEF6296E0E10C94921ED1
:102FA000A1E0B0E0E6EDF7E10C94841EE09171023F
:102FB000F0917202958D981709F448C0882359F151
:102FC000868D882309F445C080E00E943B0D80E097
:102FD0000E94D311E0917102F0917202878D90A14D
:102FE0000E9439131982E0917102F09172020280FD
:102FF000F381E02D9E012F5F3F4F41E063E280812E
:103000000E94320CE0917102F091720281E0858F92
:103010000E943B0D19C080E00E943B0DE0917102BF
:10302000F0917202838589830280F381E02D9E01F5
:103030002F5F3F4F41E063E280810E94320CE091BC
:103040007102F0917202158E0E94A10E80E090E054
:1030500002C08FEF9FEF2196E2E00C94A01E0E9429
:103060004D1C0E948D06CFE3DAE10E94D206209724
:10307000E1F30E943F1AF9CFA0E0B0E0E2E4F8E10A
:103080000C947E1E6C017A01EB01E60EF71E00E047
:1030900010E0CE15DF0561F06991D601ED91FC914C
:1030A0000190F081E02DC6010995080F191FF1CF9D
:1030B000C801CDB7DEB7E8E00C949A1E6115710522
:1030C00089F0DB010D900020E9F7AD014150510975
:1030D000461B570BDC01ED91FC910280F381E02D42
:1030E0000995089580E090E00895EF92FF920F9384
:1030F0001F93CF93DF938C01FB01C0E0D0E064917C
:103100007F018FEFE81AF80A662361F0D801ED918C
:10311000FC910190F081E02DC8010995C80FD91FDD
:10312000F701EDCFCE01CDB7DEB7E6E00C949C1EE3
:103130000E945E180895DC01ED91FC910190F081F0
:10314000E02D099508950F931F93CF93DF93EC0122
:103150006DE00E949B188C016AE0CE010E949B18D2
:10316000800F911FDF91CF911F910F9108950F93C1
:103170001F93CF93DF93EC010E9475188C01CE0151
:103180000E94A318800F911FDF91CF911F910F9183
:1031900008950F931F93CF93DF93EC010E945E1865
:1031A0008C01CE010E94A318800F911FDF91CF9157
:1031B0001F910F910895A1E2B0E0E1EEF8E10C94C7
:1031C0007A1E7C01C42EE52FCB01D22E19A221E05C
:1031D0002D1510F02AE0D22E8E010F5D1F4F8D2C81
:1031E000912CA12CB12C6C2D7E2FA50194010E9455
:1031F000331E8C2DD29E80191124015011098A3062
:1032000014F4805D01C0895CF801808321153105CB
:103210004105510521F0C22EE32FCA01E4CFB801C8
:10322000C7010E945E18A196ECE00C94961EA0E0E7
:10323000B0E0EDE1F9E10C947E1EEC016A017B0146
:103240002115310541F4E881F9810190F081E02DEB
:10325000642F09951DC02A303105A9F477FF12C0EB
:103260006DE20E949B188C0144275527BA014C1926
:103270005D096E097F092AE0CE010E94DB18800FEC
:10328000911F06C02AE0B701A601CE010E94DB18FB
:10329000CDB7DEB7E8E00C949A1E9A01AB01662721
:1032A00057FD6095762F0E94171908952115310555
:1032B00049F4DC01ED91FC910190F081E02D642F47
:1032C000099508950E94DB1808959A01462F50E051
:1032D00060E070E00E9456190895FC012485358550
:1032E000F901E05CFF4F80819181F901EE5BFF4FB6
:1032F00020813181821B930B8F7399270895FC01E4
:1033000084859585FC01E05CFF4F40815181FC0183
:10331000EE5BFF4F208131814217530741F001904E
:10332000F081E02DE80FF91F808190E008958FEF84
:103330009FEF0895FC0184859585FC01E05CFF4FBB
:1033400040815181FC01EE5BFF4F208131814217AA
:10335000530779F0A081B181A80FB91F8C9120810A
:1033600031812F5F3F4F2F7333273183208390E0CC
:1033700008958FEF9FEF0895FC0181A1882329F024
:10338000A489B5898C9186FFFBCF11A20895CF93B4
:10339000DF93FC0126853785D901A05CBF4F8D9155
:1033A0009C91119701968F739927E901CE5BDF4FAE
:1033B0004881598184179507D9F30D90BC91A02DB0
:1033C000A20FB31F6C93A685B785A05CBF4F119663
:1033D0009C938E93A689B7892C9181E090E0078C0D
:1033E00002C0880F991F0A94E2F7282B2C9381E0E2
:1033F00081A30488F589E02D80818064808381E049
:1034000090E0DF91CF91089508951F920F920FB62B
:103410000F9211242F933F934F938F939F93EF938A
:10342000FF938091C00082FD1CC04091C600809136
:1034300031049091320401968F73992720913304BF
:10344000309134048217930771F0E0913104F091C8
:103450003204EF50FC4F4083909332048093310448
:1034600002C08091C600FF91EF919F918F914F9183
:103470003F912F910F900FBE0F901F9018958BE8E2
:1034800093E00E946D19892B11F00E94041A08958F
:103490001F920F920FB60F9211242F933F938F9389
:1034A0009F93EF93FF932091ED033091EE03809172
:1034B000EF039091F0032817390731F48091C10090
:1034C0008F7D8093C10014C0E091EF03F091F00371
:1034D000E355FC4F20818091EF039091F00301961A
:1034E0008F7399279093F0038093EF032093C60086
:1034F000FF91EF919F918F913F912F910F900FBE70
:103500000F901F901895CF92DF92EF92FF92CF937A
:10351000DF93EC016A017B01EC89FD8981E090E099
:1035200008A002C0880F991F0A94E2F7808360E820
:1035300074E88EE190E0A70196010E94331E2150AD
:103540003109410951095695479537952795211518
:1035500080E1380798F0EC89FD89108260E472E41C
:103560008FE090E0A70196010E94331E215031099F
:10357000410951095695479537952795E889F98965
:103580003083EA89FB89208319A2EE89FF89408173
:1035900081E090E09C010C8C02C0220F331F0A9442
:1035A000E2F7422B4083EE89FF8940819C010D8C1C
:1035B00002C0220F331F0A94E2F7422B4083EE89A8
:1035C000FF8940819C010E8C02C0220F331F0A9498
:1035D000E2F7422B4083EE89FF8920810F8C02C0E5
:1035E000880F991F0A94E2F7809582238083DF91E8
:1035F000CF91FF90EF90DF90CF90089510928E03BF
:1036000010928D0388EE93E0A0E0B0E080938F03EA
:1036100090939003A0939103B093920384E791E079
:1036200090938C0380938B0381EF93E090939803A6
:10363000809397038DEA93E090939A038093990384
:1036400085EC90E090939C0380939B0384EC90E046
:1036500090939E0380939D0380EC90E09093A00351
:1036600080939F0381EC90E09093A2038093A10349
:1036700082EC90E09093A4038093A30386EC90E007
:103680009093A6038093A50384E08093A70383E02F
:103690008093A80387E08093A90385E08093AA0321
:1036A00081E08093AB0308951F920F920FB60F92A3
:1036B00011242F933F934F935F936F937F938F9337
:1036C0009F93AF93BF93EF93FF93809135049091B5
:1036D0003604892B29F0E0913504F09136040995E0
:1036E000FF91EF91BF91AF919F918F917F916F91DA
:1036F0005F914F913F912F910F900FBE0F901F90B0
:1037000018951F920F920FB60F9211242F933F938B
:103710004F935F936F937F938F939F93AF93BF93D9
:10372000EF93FF938091370490913804892B29F00F
:10373000E0913704F09138040995FF91EF91BF9122
:10374000AF919F918F917F916F915F914F913F9139
:103750002F910F900FBE0F901F9018951F920F92F0
:103760000FB60F9211242F933F938F939F93AF9394
:10377000BF9380913A0490913B04A0913C04B09196
:103780003D043091390426E0230F2D3720F40296B2
:10379000A11DB11D05C029E8230F0396A11DB11D70
:1037A0002093390480933A0490933B04A0933C0403
:1037B000B0933D0480913E0490913F04A091400459
:1037C000B09141040196A11DB11D80933E049093D8
:1037D0003F04A0934004B0934104BF91AF919F91E7
:1037E0008F913F912F910F900FBE0F901F901895C2
:1037F0002FB7F89460913A0470913B0480913C0497
:1038000090913D042FBF08953FB7F89480913E04F6
:1038100090913F04A0914004B091410426B5A89B2B
:1038200005C02F3F19F00196A11DB11D3FBF6627AE
:10383000782F892F9A2F620F711D811D911D43E0F2
:10384000660F771F881F991F4A95D1F70895CF9269
:10385000DF92EF92FF92CF93DF936B017C010E9486
:10386000041CEB01C114D104E104F10479F00E94BD
:10387000041C6C1B7D0B683E7340A0F381E0C81AEA
:10388000D108E108F108C851DC4FECCFDF91CF91AE
:10389000FF90EF90DF90CF900895789484B5826088
:1038A00084BD84B5816084BD85B5826085BD85B5E4
:1038B000816085BDEEE6F0E0808181608083E1E893
:1038C000F0E01082808182608083808181608083CB
:1038D000E0E8F0E0808181608083E1EBF0E08081CE
:1038E00084608083E0EBF0E0808181608083EAE7A0
:1038F000F0E0808184608083808182608083808129
:10390000816080838081806880831092C1000895E7
:10391000833081F028F4813099F08230A1F008954D
:103920008630A9F08730B9F08430D1F480918000DE
:103930008F7D03C0809180008F77809380000895F1
:1039400084B58F7702C084B58F7D84BD0895809142
:10395000B0008F7703C08091B0008F7D8093B0005E
:103960000895A1E0B0E0E7EBFCE10C94821E282F63
:1039700030E0F901E458F34F8491F901E057F34F37
:103980001491F901EC55F34F04910023C9F08823F9
:1039900021F069830E94881C6981E02FF0E0EE0F1E
:1039A000FF1FE854F34FA591B4919FB7F8948C9101
:1039B000611103C01095812301C0812B8C939FBF9F
:1039C0002196E4E00C949E1ECF93DF938230910504
:1039D00010F482E090E0E0914404F091450420E08E
:1039E00030E0A0E0B0E0309739F1408151814817D4
:1039F0005907B8F04817590771F4828193811097DD
:103A000029F013969C938E9312972CC090934504A3
:103A10008093440427C02115310531F04217530724
:103A200018F0A901DB0101C0EF019A01BD01DF011E
:103A30000280F381E02DD7CF21153105F9F0281B45
:103A4000390B2430310580F48A819B816115710521
:103A500021F0FB019383828304C0909345048093FB
:103A60004404FE01329644C0FE01E20FF31F81932D
:103A7000919322503109398328833AC0209142041E
:103A800030914304232B41F420910401309105012E
:103A900030934304209342042091020130910301AA
:103AA0002115310541F42DB73EB7409106015091E3
:103AB0000701241B350BE0914204F0914304E21707
:103AC000F307A0F42E1B3F0B2817390778F0AC0141
:103AD0004E5F5F4F2417350748F04E0F5F1F50931E
:103AE0004304409342048193919302C0E0E0F0E0EC
:103AF000CF01DF91CF910895CF93DF93009709F421
:103B000087C0FC01329713821282C0914404D09185
:103B10004504209781F420813181280F391F80913D
:103B20004204909143048217930779F5F09343047C
:103B3000E09342046DC0DE0120E030E0AE17BF0725
:103B400050F412964D915C9113979D0141155105CA
:103B500009F1DA01F3CFB383A28340815181840F4D
:103B6000951F8A179B0771F48D919C911197840F73
:103B7000951F02969183808312968D919C91139745
:103B8000938382832115310529F4F0934504E09352
:103B900044043EC0D9011396FC93EE9312974D91C5
:103BA0005D91A40FB51FEA17FB0779F4808191811D
:103BB000840F951F0296D90111969C938E93828152
:103BC000938113969C938E931297E0E0F0E08A81A4
:103BD0009B81009719F0FE01EC01F9CFCE0102960E
:103BE00028813981820F931F209142043091430430
:103BF0002817390769F4309729F410924504109278
:103C0000440402C013821282D0934304C09342043E
:103C1000DF91CF910895AA1BBB1B51E107C0AA1FDA
:103C2000BB1FA617B70710F0A61BB70B881F991F5D
:103C30005A95A9F780959095BC01CD01089597FB01
:103C4000072E16F4009407D077FD09D00E940B1EB2
:103C500007FC05D03EF4909581959F4F089570958F
:103C600061957F4F0895A1E21A2EAA1BBB1BFD018F
:103C70000DC0AA1FBB1FEE1FFF1FA217B307E4074B
:103C8000F50720F0A21BB30BE40BF50B661F771FA3
:103C9000881F991F1A9469F7609570958095909583
:103CA0009B01AC01BD01CF010895052E97FB1EF4C9
:103CB00000940E946C1E57FD07D00E94331E07FC23
:103CC00003D04EF40C946C1E509540953095219580
:103CD0003F4F4F4F5F4F0895909580957095619538
:103CE0007F4F8F4F9F4F08952F923F924F925F9239
:103CF0006F927F928F929F92AF92BF92CF92DF92FC
:103D0000EF92FF920F931F93CF93DF93CDB7DEB760
:103D1000CA1BDB0B0FB6F894DEBF0FBECDBF0994F4
:103D20002A88398848885F846E847D848C849B844B
:103D3000AA84B984C884DF80EE80FD800C811B8159
:103D4000AA81B981CE0FD11D0FB6F894DEBF0FBE88
:103D5000CDBFED010895EE0FFF1F0590F491E02D0A
:103D60000994FB01DC0104C08D910190801921F4BC
:103D700041505040C8F7881B990B0895F894FFCF25
:103D8000E803000046048000B8AAB38DB4980D354E
:103D90005DFEF2ABC4AAF1DFDFBBAFDFDFB8AAAADA
:103DA000AAB088C3C5C7D8B1B9F38BA391B609B47B
:103DB000D9DAB1B9F38BA391B6DAB4DA20513A5B10
:103DC000002C005D090067723A002067703A0020FD
:103DD00067793A004572726F722C207265743A00EE
:103DE00000000000C807A10776077E079107A0071B
:103DF00000000000C7193C186D199A197F19BC19E9
:00000001FF
